{
  "contractName": "ToknITO",
  "abi": [
    {
      "inputs": [
        {
          "internalType": "contract ToknFactory",
          "name": "_toknFactory",
          "type": "address"
        },
        {
          "internalType": "contract UsdcToken",
          "name": "_usdc",
          "type": "address"
        }
      ],
      "stateMutability": "nonpayable",
      "type": "constructor"
    },
    {
      "anonymous": false,
      "inputs": [
        {
          "indexed": false,
          "internalType": "address",
          "name": "account",
          "type": "address"
        }
      ],
      "name": "Paused",
      "type": "event"
    },
    {
      "anonymous": false,
      "inputs": [
        {
          "indexed": false,
          "internalType": "address",
          "name": "account",
          "type": "address"
        }
      ],
      "name": "Unpaused",
      "type": "event"
    },
    {
      "inputs": [
        {
          "internalType": "uint256",
          "name": "",
          "type": "uint256"
        }
      ],
      "name": "artistList",
      "outputs": [
        {
          "internalType": "address",
          "name": "",
          "type": "address"
        }
      ],
      "stateMutability": "view",
      "type": "function",
      "constant": true
    },
    {
      "inputs": [
        {
          "internalType": "address",
          "name": "",
          "type": "address"
        }
      ],
      "name": "artistTracker",
      "outputs": [
        {
          "internalType": "uint256",
          "name": "",
          "type": "uint256"
        }
      ],
      "stateMutability": "view",
      "type": "function",
      "constant": true
    },
    {
      "inputs": [
        {
          "internalType": "uint256",
          "name": "",
          "type": "uint256"
        },
        {
          "internalType": "address",
          "name": "",
          "type": "address"
        }
      ],
      "name": "bookedTokns",
      "outputs": [
        {
          "internalType": "uint256",
          "name": "",
          "type": "uint256"
        }
      ],
      "stateMutability": "view",
      "type": "function",
      "constant": true
    },
    {
      "inputs": [
        {
          "internalType": "address",
          "name": "",
          "type": "address"
        }
      ],
      "name": "hasPaid",
      "outputs": [
        {
          "internalType": "bool",
          "name": "",
          "type": "bool"
        }
      ],
      "stateMutability": "view",
      "type": "function",
      "constant": true
    },
    {
      "inputs": [],
      "name": "paused",
      "outputs": [
        {
          "internalType": "bool",
          "name": "",
          "type": "bool"
        }
      ],
      "stateMutability": "view",
      "type": "function",
      "constant": true
    },
    {
      "inputs": [],
      "name": "toknFactory",
      "outputs": [
        {
          "internalType": "contract ToknFactory",
          "name": "",
          "type": "address"
        }
      ],
      "stateMutability": "view",
      "type": "function",
      "constant": true
    },
    {
      "inputs": [
        {
          "internalType": "uint256",
          "name": "",
          "type": "uint256"
        }
      ],
      "name": "toknITOs",
      "outputs": [
        {
          "internalType": "uint256",
          "name": "toknsAvailable",
          "type": "uint256"
        },
        {
          "internalType": "uint256",
          "name": "price",
          "type": "uint256"
        },
        {
          "internalType": "enum ToknITO.State",
          "name": "itoState",
          "type": "uint8"
        }
      ],
      "stateMutability": "view",
      "type": "function",
      "constant": true
    },
    {
      "inputs": [],
      "name": "treasury",
      "outputs": [
        {
          "internalType": "address payable",
          "name": "",
          "type": "address"
        }
      ],
      "stateMutability": "view",
      "type": "function",
      "constant": true
    },
    {
      "inputs": [],
      "name": "treasuryPercentage",
      "outputs": [
        {
          "internalType": "uint256",
          "name": "",
          "type": "uint256"
        }
      ],
      "stateMutability": "view",
      "type": "function",
      "constant": true
    },
    {
      "inputs": [],
      "name": "usdc",
      "outputs": [
        {
          "internalType": "contract UsdcToken",
          "name": "",
          "type": "address"
        }
      ],
      "stateMutability": "view",
      "type": "function",
      "constant": true
    },
    {
      "inputs": [
        {
          "internalType": "uint256",
          "name": "",
          "type": "uint256"
        }
      ],
      "name": "userList",
      "outputs": [
        {
          "internalType": "address",
          "name": "",
          "type": "address"
        }
      ],
      "stateMutability": "view",
      "type": "function",
      "constant": true
    },
    {
      "inputs": [
        {
          "internalType": "address",
          "name": "",
          "type": "address"
        }
      ],
      "name": "userTracker",
      "outputs": [
        {
          "internalType": "uint256",
          "name": "",
          "type": "uint256"
        }
      ],
      "stateMutability": "view",
      "type": "function",
      "constant": true
    },
    {
      "inputs": [
        {
          "internalType": "uint256",
          "name": "_pc",
          "type": "uint256"
        }
      ],
      "name": "setTreasuryPercentage",
      "outputs": [],
      "stateMutability": "nonpayable",
      "type": "function"
    },
    {
      "inputs": [
        {
          "internalType": "address",
          "name": "_treasury",
          "type": "address"
        }
      ],
      "name": "setTreasury",
      "outputs": [],
      "stateMutability": "nonpayable",
      "type": "function"
    },
    {
      "inputs": [],
      "name": "getUsersCount",
      "outputs": [
        {
          "internalType": "uint256",
          "name": "",
          "type": "uint256"
        }
      ],
      "stateMutability": "view",
      "type": "function",
      "constant": true
    },
    {
      "inputs": [
        {
          "internalType": "uint256",
          "name": "_id",
          "type": "uint256"
        },
        {
          "internalType": "uint256",
          "name": "_price",
          "type": "uint256"
        }
      ],
      "name": "setToknPrice",
      "outputs": [],
      "stateMutability": "nonpayable",
      "type": "function"
    },
    {
      "inputs": [
        {
          "internalType": "uint256",
          "name": "_id",
          "type": "uint256"
        }
      ],
      "name": "startITO",
      "outputs": [],
      "stateMutability": "nonpayable",
      "type": "function"
    },
    {
      "inputs": [
        {
          "internalType": "uint256",
          "name": "_id",
          "type": "uint256"
        }
      ],
      "name": "stopITO",
      "outputs": [],
      "stateMutability": "nonpayable",
      "type": "function"
    },
    {
      "inputs": [
        {
          "internalType": "uint256",
          "name": "_id",
          "type": "uint256"
        }
      ],
      "name": "getCurrentState",
      "outputs": [
        {
          "internalType": "enum ToknITO.State",
          "name": "",
          "type": "uint8"
        }
      ],
      "stateMutability": "view",
      "type": "function",
      "constant": true
    },
    {
      "inputs": [
        {
          "internalType": "uint256",
          "name": "_id",
          "type": "uint256"
        }
      ],
      "name": "getITO",
      "outputs": [
        {
          "components": [
            {
              "internalType": "uint256",
              "name": "toknsAvailable",
              "type": "uint256"
            },
            {
              "internalType": "uint256",
              "name": "price",
              "type": "uint256"
            },
            {
              "internalType": "address[]",
              "name": "investors",
              "type": "address[]"
            },
            {
              "internalType": "enum ToknITO.State",
              "name": "itoState",
              "type": "uint8"
            }
          ],
          "internalType": "struct ToknITO.ITOConfig",
          "name": "",
          "type": "tuple"
        }
      ],
      "stateMutability": "view",
      "type": "function",
      "constant": true
    },
    {
      "inputs": [
        {
          "internalType": "uint256",
          "name": "_id",
          "type": "uint256"
        },
        {
          "internalType": "uint256",
          "name": "_qty",
          "type": "uint256"
        }
      ],
      "name": "investFixedPrice",
      "outputs": [],
      "stateMutability": "nonpayable",
      "type": "function"
    },
    {
      "inputs": [
        {
          "internalType": "address",
          "name": "_user",
          "type": "address"
        },
        {
          "internalType": "uint256",
          "name": "_id",
          "type": "uint256"
        },
        {
          "internalType": "uint256",
          "name": "_amount",
          "type": "uint256"
        }
      ],
      "name": "bookTokensForUser",
      "outputs": [],
      "stateMutability": "nonpayable",
      "type": "function"
    },
    {
      "inputs": [
        {
          "internalType": "address[]",
          "name": "_users",
          "type": "address[]"
        },
        {
          "internalType": "uint256",
          "name": "_id",
          "type": "uint256"
        },
        {
          "internalType": "uint256[]",
          "name": "_amounts",
          "type": "uint256[]"
        }
      ],
      "name": "bookTokensForUsers",
      "outputs": [],
      "stateMutability": "nonpayable",
      "type": "function"
    },
    {
      "inputs": [
        {
          "internalType": "uint256",
          "name": "_id",
          "type": "uint256"
        }
      ],
      "name": "allocateFixedPrice",
      "outputs": [],
      "stateMutability": "nonpayable",
      "type": "function"
    },
    {
      "inputs": [
        {
          "internalType": "address",
          "name": "_investor",
          "type": "address"
        },
        {
          "internalType": "uint256",
          "name": "_id",
          "type": "uint256"
        }
      ],
      "name": "getBookedToknsFor",
      "outputs": [
        {
          "internalType": "uint256",
          "name": "",
          "type": "uint256"
        }
      ],
      "stateMutability": "view",
      "type": "function",
      "constant": true
    },
    {
      "inputs": [],
      "name": "pause",
      "outputs": [],
      "stateMutability": "nonpayable",
      "type": "function"
    },
    {
      "inputs": [],
      "name": "unPause",
      "outputs": [],
      "stateMutability": "nonpayable",
      "type": "function"
    }
  ],
  "bytecode": "0x6080604052600d6003553480156200001657600080fd5b50604051620037a6380380620037a683398181016040528101906200003c91906200014f565b60008060006101000a81548160ff02191690831515021790555081600060016101000a81548173ffffffffffffffffffffffffffffffffffffffff021916908373ffffffffffffffffffffffffffffffffffffffff16021790555080600160006101000a81548173ffffffffffffffffffffffffffffffffffffffff021916908373ffffffffffffffffffffffffffffffffffffffff16021790555033600260006101000a81548173ffffffffffffffffffffffffffffffffffffffff021916908373ffffffffffffffffffffffffffffffffffffffff160217905550505062000220565b6000815190506200013281620001ec565b92915050565b600081519050620001498162000206565b92915050565b600080604083850312156200016357600080fd5b6000620001738582860162000121565b9250506020620001868582860162000138565b9150509250929050565b60006200019d82620001cc565b9050919050565b6000620001b18262000190565b9050919050565b6000620001c58262000190565b9050919050565b600073ffffffffffffffffffffffffffffffffffffffff82169050919050565b620001f781620001a4565b81146200020357600080fd5b50565b6200021181620001b8565b81146200021d57600080fd5b50565b61357680620002306000396000f3fe608060405234801561001057600080fd5b50600436106101a95760003560e01c80638456cb59116100f9578063b40573f611610097578063f0f4426011610071578063f0f44260146104e2578063f24748d9146104fe578063f7b188a51461051a578063fbf47a9a14610524576101a9565b8063b40573f61461047a578063b795191014610496578063e9fb274c146104c6576101a9565b80639e4baa3d116100d35780639e4baa3d146103e05780639f4216e8146103fc578063a4a1e2631461042c578063a8e361b21461044a576101a9565b80638456cb5914610374578063926e98021461037e57806399f8c889146103ae576101a9565b80635697b4d51161016657806361d027b31161014057806361d027b3146102ea578063671d60061461030857806375f09088146103265780637ab5608314610356576101a9565b80635697b4d5146102805780635748c1301461029c5780635c975abb146102cc576101a9565b8063113a169c146101ae57806311c2e55d146101ca57806312d4ed4f146101e6578063398eebf0146102165780633e413bee146102325780634d70417114610250575b600080fd5b6101c860048036038101906101c39190612ca2565b610554565b005b6101e460048036038101906101df9190612c14565b6106b8565b005b61020060048036038101906101fb9190612c66565b61079a565b60405161020d919061313b565b60405180910390f35b610230600480360381019061022b9190612c14565b6107bf565b005b61023a610ee3565b6040516102479190613083565b60405180910390f35b61026a60048036038101906102659190612ad7565b610f09565b604051610277919061313b565b60405180910390f35b61029a60048036038101906102959190612ca2565b610f64565b005b6102b660048036038101906102b19190612c14565b611280565b6040516102c3919061309e565b60405180910390f35b6102d46112ad565b6040516102e1919061304d565b60405180910390f35b6102f26112c3565b6040516102ff9190612f51565b60405180910390f35b6103106112e9565b60405161031d9190613068565b60405180910390f35b610340600480360381019061033b9190612a5c565b61130f565b60405161034d919061313b565b60405180910390f35b61035e611327565b60405161036b919061313b565b60405180910390f35b61037c61132d565b005b61039860048036038101906103939190612a5c565b61140e565b6040516103a5919061313b565b60405180910390f35b6103c860048036038101906103c39190612c14565b611426565b6040516103d793929190613156565b60405180910390f35b6103fa60048036038101906103f59190612b13565b61145d565b005b61041660048036038101906104119190612c14565b61174a565b6040516104239190612f36565b60405180910390f35b610434611789565b604051610441919061313b565b60405180910390f35b610464600480360381019061045f9190612c14565b611796565b6040516104719190612f36565b60405180910390f35b610494600480360381019061048f9190612c14565b6117d5565b005b6104b060048036038101906104ab9190612c14565b611a50565b6040516104bd9190613119565b60405180910390f35b6104e060048036038101906104db9190612c14565b611ba6565b005b6104fc60048036038101906104f79190612a5c565b611dd7565b005b61051860048036038101906105139190612b62565b611ef3565b005b610522612385565b005b61053e60048036038101906105399190612a5c565b612466565b60405161054b919061304d565b60405180910390f35b61055c6112ad565b1561059c576040517f08c379a0000000000000000000000000000000000000000000000000000000008152600401610593906130d9565b60405180910390fd5b3373ffffffffffffffffffffffffffffffffffffffff16600060019054906101000a900473ffffffffffffffffffffffffffffffffffffffff1673ffffffffffffffffffffffffffffffffffffffff1663e6253d40846040518263ffffffff1660e01b815260040161060e919061313b565b60206040518083038186803b15801561062657600080fd5b505afa15801561063a573d6000803e3d6000fd5b505050506040513d601f19601f8201168201806040525081019061065e9190612a85565b73ffffffffffffffffffffffffffffffffffffffff16148015610682575060008114155b61068b57600080fd5b620f42408161069a919061326f565b60056000848152602001908152602001600020600101819055505050565b6106c06112ad565b15610700576040517f08c379a00000000000000000000000000000000000000000000000000000000081526004016106f7906130d9565b60405180910390fd5b600260009054906101000a900473ffffffffffffffffffffffffffffffffffffffff1673ffffffffffffffffffffffffffffffffffffffff163373ffffffffffffffffffffffffffffffffffffffff1614610790576040517f08c379a0000000000000000000000000000000000000000000000000000000008152600401610787906130f9565b60405180910390fd5b8060038190555050565b6004602052816000526040600020602052806000526040600020600091509150505481565b6107c76112ad565b15610807576040517f08c379a00000000000000000000000000000000000000000000000000000000081526004016107fe906130d9565b60405180910390fd5b3373ffffffffffffffffffffffffffffffffffffffff16600060019054906101000a900473ffffffffffffffffffffffffffffffffffffffff1673ffffffffffffffffffffffffffffffffffffffff1663e6253d40836040518263ffffffff1660e01b8152600401610879919061313b565b60206040518083038186803b15801561089157600080fd5b505afa1580156108a5573d6000803e3d6000fd5b505050506040513d601f19601f820116820180604052508101906108c99190612a85565b73ffffffffffffffffffffffffffffffffffffffff16146108e957600080fd5b600380811115610922577f4e487b7100000000000000000000000000000000000000000000000000000000600052602160045260246000fd5b6005600083815260200190815260200160002060030160009054906101000a900460ff16600381111561097e577f4e487b7100000000000000000000000000000000000000000000000000000000600052602160045260246000fd5b1461098857600080fd5b600060056000838152602001908152602001600020600201805480602002602001604051908101604052809291908181526020018280548015610a2057602002820191906000526020600020905b8160009054906101000a900473ffffffffffffffffffffffffffffffffffffffff1673ffffffffffffffffffffffffffffffffffffffff16815260200190600101908083116109d6575b5050505050905060005b8151811015610ede57600060019054906101000a900473ffffffffffffffffffffffffffffffffffffffff1673ffffffffffffffffffffffffffffffffffffffff1663f242432a33848481518110610aab577f4e487b7100000000000000000000000000000000000000000000000000000000600052603260045260246000fd5b602002602001015186600460008981526020019081526020016000206000888881518110610b02577f4e487b7100000000000000000000000000000000000000000000000000000000600052603260045260246000fd5b602002602001015173ffffffffffffffffffffffffffffffffffffffff1673ffffffffffffffffffffffffffffffffffffffff168152602001908152602001600020546040518563ffffffff1660e01b8152600401610b649493929190612fcc565b600060405180830381600087803b158015610b7e57600080fd5b505af1158015610b92573d6000803e3d6000fd5b505050506000600460008581526020019081526020016000206000848481518110610be6577f4e487b7100000000000000000000000000000000000000000000000000000000600052603260045260246000fd5b602002602001015173ffffffffffffffffffffffffffffffffffffffff1673ffffffffffffffffffffffffffffffffffffffff168152602001908152602001600020546005600086815260200190815260200160002060010154610c4a919061326f565b90506000606460035483610c5e919061326f565b610c68919061323e565b905060086000858581518110610ca7577f4e487b7100000000000000000000000000000000000000000000000000000000600052603260045260246000fd5b602002602001015173ffffffffffffffffffffffffffffffffffffffff1673ffffffffffffffffffffffffffffffffffffffff16815260200190815260200160002060009054906101000a900460ff16610e7e57600160009054906101000a900473ffffffffffffffffffffffffffffffffffffffff1673ffffffffffffffffffffffffffffffffffffffff1663a9059cbb600260009054906101000a900473ffffffffffffffffffffffffffffffffffffffff16836040518363ffffffff1660e01b8152600401610d7a929190612f6c565b602060405180830381600087803b158015610d9457600080fd5b505af1158015610da8573d6000803e3d6000fd5b505050506040513d601f19601f82011682018060405250810190610dcc9190612beb565b50600160009054906101000a900473ffffffffffffffffffffffffffffffffffffffff1673ffffffffffffffffffffffffffffffffffffffff1663a9059cbb33846040518363ffffffff1660e01b8152600401610e2a929190613024565b602060405180830381600087803b158015610e4457600080fd5b505af1158015610e58573d6000803e3d6000fd5b505050506040513d601f19601f82011682018060405250810190610e7c9190612beb565b505b610ec985858581518110610ebb577f4e487b7100000000000000000000000000000000000000000000000000000000600052603260045260246000fd5b602002602001015184612486565b50508080610ed6906133fa565b915050610a2a565b505050565b600160009054906101000a900473ffffffffffffffffffffffffffffffffffffffff1681565b60006004600083815260200190815260200160002060008473ffffffffffffffffffffffffffffffffffffffff1673ffffffffffffffffffffffffffffffffffffffff16815260200190815260200160002054905092915050565b610f6c6112ad565b15610fac576040517f08c379a0000000000000000000000000000000000000000000000000000000008152600401610fa3906130d9565b60405180910390fd5b60056000838152602001908152602001600020600001548111158015611065575060016003811115611007577f4e487b7100000000000000000000000000000000000000000000000000000000600052602160045260246000fd5b6005600084815260200190815260200160002060030160009054906101000a900460ff166003811115611063577f4e487b7100000000000000000000000000000000000000000000000000000000600052602160045260246000fd5b145b61106e57600080fd5b6000600560008481526020019081526020016000206001015482611092919061326f565b905060006064600354836110a6919061326f565b6110b0919061323e565b9050600160009054906101000a900473ffffffffffffffffffffffffffffffffffffffff1673ffffffffffffffffffffffffffffffffffffffff166323b872dd333084866110fe91906131e8565b6040518463ffffffff1660e01b815260040161111c93929190612f95565b602060405180830381600087803b15801561113657600080fd5b505af115801561114a573d6000803e3d6000fd5b505050506040513d601f19601f8201168201806040525081019061116e9190612beb565b508260056000868152602001908152602001600020600001600082825461119591906132c9565b9250508190555060056000858152602001908152602001600020600201339080600181540180825580915050600190039060005260206000200160009091909190916101000a81548173ffffffffffffffffffffffffffffffffffffffff021916908373ffffffffffffffffffffffffffffffffffffffff160217905550826004600086815260200190815260200160002060003373ffffffffffffffffffffffffffffffffffffffff1673ffffffffffffffffffffffffffffffffffffffff168152602001908152602001600020600082825461127391906131e8565b9250508190555050505050565b60006005600083815260200190815260200160002060030160009054906101000a900460ff169050919050565b60008060009054906101000a900460ff16905090565b600260009054906101000a900473ffffffffffffffffffffffffffffffffffffffff1681565b600060019054906101000a900473ffffffffffffffffffffffffffffffffffffffff1681565b60066020528060005260406000206000915090505481565b60035481565b600060019054906101000a900473ffffffffffffffffffffffffffffffffffffffff1673ffffffffffffffffffffffffffffffffffffffff1663d5f394886040518163ffffffff1660e01b815260040160206040518083038186803b15801561139557600080fd5b505afa1580156113a9573d6000803e3d6000fd5b505050506040513d601f19601f820116820180604052508101906113cd9190612aae565b73ffffffffffffffffffffffffffffffffffffffff163373ffffffffffffffffffffffffffffffffffffffff161461140457600080fd5b61140c612786565b565b60076020528060005260406000206000915090505481565b60056020528060005260406000206000915090508060000154908060010154908060030160009054906101000a900460ff16905083565b6114656112ad565b156114a5576040517f08c379a000000000000000000000000000000000000000000000000000000000815260040161149c906130d9565b60405180910390fd5b600060019054906101000a900473ffffffffffffffffffffffffffffffffffffffff1673ffffffffffffffffffffffffffffffffffffffff1663d5f394886040518163ffffffff1660e01b815260040160206040518083038186803b15801561150d57600080fd5b505afa158015611521573d6000803e3d6000fd5b505050506040513d601f19601f820116820180604052508101906115459190612aae565b73ffffffffffffffffffffffffffffffffffffffff163373ffffffffffffffffffffffffffffffffffffffff161461157c57600080fd5b600060056000848152602001908152602001600020600101549050600060035460646115a891906131e8565b6064846115b5919061326f565b6115bf919061323e565b9050600082620f4240836115d3919061326f565b6115dd919061323e565b90508060056000878152602001908152602001600020600001600082825461160591906132c9565b9250508190555060056000868152602001908152602001600020600201869080600181540180825580915050600190039060005260206000200160009091909190916101000a81548173ffffffffffffffffffffffffffffffffffffffff021916908373ffffffffffffffffffffffffffffffffffffffff160217905550806004600087815260200190815260200160002060008873ffffffffffffffffffffffffffffffffffffffff1673ffffffffffffffffffffffffffffffffffffffff16815260200190815260200160002060008282546116e391906131e8565b925050819055506001600860008873ffffffffffffffffffffffffffffffffffffffff1673ffffffffffffffffffffffffffffffffffffffff16815260200190815260200160002060006101000a81548160ff021916908315150217905550505050505050565b600a818154811061175a57600080fd5b906000526020600020016000915054906101000a900473ffffffffffffffffffffffffffffffffffffffff1681565b6000600a80549050905090565b600981815481106117a657600080fd5b906000526020600020016000915054906101000a900473ffffffffffffffffffffffffffffffffffffffff1681565b6117dd6112ad565b1561181d576040517f08c379a0000000000000000000000000000000000000000000000000000000008152600401611814906130d9565b60405180910390fd5b3373ffffffffffffffffffffffffffffffffffffffff16600060019054906101000a900473ffffffffffffffffffffffffffffffffffffffff1673ffffffffffffffffffffffffffffffffffffffff1663e6253d40836040518263ffffffff1660e01b815260040161188f919061313b565b60206040518083038186803b1580156118a757600080fd5b505afa1580156118bb573d6000803e3d6000fd5b505050506040513d601f19601f820116820180604052508101906118df9190612a85565b73ffffffffffffffffffffffffffffffffffffffff1614801561191957506000600560008381526020019081526020016000206001015414155b61192257600080fd5b60016005600083815260200190815260200160002060030160006101000a81548160ff02191690836003811115611982577f4e487b7100000000000000000000000000000000000000000000000000000000600052602160045260246000fd5b0217905550600060019054906101000a900473ffffffffffffffffffffffffffffffffffffffff1673ffffffffffffffffffffffffffffffffffffffff1662fdd58e33836040518363ffffffff1660e01b81526004016119e3929190613024565b60206040518083038186803b1580156119fb57600080fd5b505afa158015611a0f573d6000803e3d6000fd5b505050506040513d601f19601f82011682018060405250810190611a339190612c3d565b600560008381526020019081526020016000206000018190555050565b611a586128ea565b60056000838152602001908152602001600020604051806080016040529081600082015481526020016001820154815260200160028201805480602002602001604051908101604052809291908181526020018280548015611b0f57602002820191906000526020600020905b8160009054906101000a900473ffffffffffffffffffffffffffffffffffffffff1673ffffffffffffffffffffffffffffffffffffffff1681526020019060010190808311611ac5575b505050505081526020016003820160009054906101000a900460ff166003811115611b63577f4e487b7100000000000000000000000000000000000000000000000000000000600052602160045260246000fd5b6003811115611b9b577f4e487b7100000000000000000000000000000000000000000000000000000000600052602160045260246000fd5b815250509050919050565b611bae6112ad565b15611bee576040517f08c379a0000000000000000000000000000000000000000000000000000000008152600401611be5906130d9565b60405180910390fd5b3373ffffffffffffffffffffffffffffffffffffffff16600060019054906101000a900473ffffffffffffffffffffffffffffffffffffffff1673ffffffffffffffffffffffffffffffffffffffff1663e6253d40836040518263ffffffff1660e01b8152600401611c60919061313b565b60206040518083038186803b158015611c7857600080fd5b505afa158015611c8c573d6000803e3d6000fd5b505050506040513d601f19601f82011682018060405250810190611cb09190612a85565b73ffffffffffffffffffffffffffffffffffffffff16148015611d66575060016003811115611d08577f4e487b7100000000000000000000000000000000000000000000000000000000600052602160045260246000fd5b6005600083815260200190815260200160002060030160009054906101000a900460ff166003811115611d64577f4e487b7100000000000000000000000000000000000000000000000000000000600052602160045260246000fd5b145b611d6f57600080fd5b60036005600083815260200190815260200160002060030160006101000a81548160ff02191690836003811115611dcf577f4e487b7100000000000000000000000000000000000000000000000000000000600052602160045260246000fd5b021790555050565b611ddf6112ad565b15611e1f576040517f08c379a0000000000000000000000000000000000000000000000000000000008152600401611e16906130d9565b60405180910390fd5b600260009054906101000a900473ffffffffffffffffffffffffffffffffffffffff1673ffffffffffffffffffffffffffffffffffffffff163373ffffffffffffffffffffffffffffffffffffffff1614611eaf576040517f08c379a0000000000000000000000000000000000000000000000000000000008152600401611ea6906130f9565b60405180910390fd5b80600260006101000a81548173ffffffffffffffffffffffffffffffffffffffff021916908373ffffffffffffffffffffffffffffffffffffffff16021790555050565b611efb6112ad565b15611f3b576040517f08c379a0000000000000000000000000000000000000000000000000000000008152600401611f32906130d9565b60405180910390fd5b600060019054906101000a900473ffffffffffffffffffffffffffffffffffffffff1673ffffffffffffffffffffffffffffffffffffffff1663d5f394886040518163ffffffff1660e01b815260040160206040518083038186803b158015611fa357600080fd5b505afa158015611fb7573d6000803e3d6000fd5b505050506040513d601f19601f82011682018060405250810190611fdb9190612aae565b73ffffffffffffffffffffffffffffffffffffffff163373ffffffffffffffffffffffffffffffffffffffff161461201257600080fd5b6000806005600086815260200190815260200160002060010154905060005b8787905081101561237b57620f4240858583818110612079577f4e487b7100000000000000000000000000000000000000000000000000000000600052603260045260246000fd5b9050602002013561208a919061326f565b8361209591906131e8565b9250600060035460646120a891906131e8565b60648787858181106120e3577f4e487b7100000000000000000000000000000000000000000000000000000000600052603260045260246000fd5b905060200201356120f4919061326f565b6120fe919061323e565b9050600083620f424083612112919061326f565b61211c919061323e565b905080600560008a8152602001908152602001600020600001600082825461214491906132c9565b92505081905550600560008981526020019081526020016000206002018a8a8581811061219a577f4e487b7100000000000000000000000000000000000000000000000000000000600052603260045260246000fd5b90506020020160208101906121af9190612a5c565b9080600181540180825580915050600190039060005260206000200160009091909190916101000a81548173ffffffffffffffffffffffffffffffffffffffff021916908373ffffffffffffffffffffffffffffffffffffffff16021790555080600460008a815260200190815260200160002060008c8c8781811061225e577f4e487b7100000000000000000000000000000000000000000000000000000000600052603260045260246000fd5b90506020020160208101906122739190612a5c565b73ffffffffffffffffffffffffffffffffffffffff1673ffffffffffffffffffffffffffffffffffffffff16815260200190815260200160002060008282546122bc91906131e8565b925050819055506001600860008c8c87818110612302577f4e487b7100000000000000000000000000000000000000000000000000000000600052603260045260246000fd5b90506020020160208101906123179190612a5c565b73ffffffffffffffffffffffffffffffffffffffff1673ffffffffffffffffffffffffffffffffffffffff16815260200190815260200160002060006101000a81548160ff021916908315150217905550505080612374906133fa565b9050612031565b5050505050505050565b600060019054906101000a900473ffffffffffffffffffffffffffffffffffffffff1673ffffffffffffffffffffffffffffffffffffffff1663d5f394886040518163ffffffff1660e01b815260040160206040518083038186803b1580156123ed57600080fd5b505afa158015612401573d6000803e3d6000fd5b505050506040513d601f19601f820116820180604052508101906124259190612aae565b73ffffffffffffffffffffffffffffffffffffffff163373ffffffffffffffffffffffffffffffffffffffff161461245c57600080fd5b612464612828565b565b60086020528060005260406000206000915054906101000a900460ff1681565b60008060019054906101000a900473ffffffffffffffffffffffffffffffffffffffff1673ffffffffffffffffffffffffffffffffffffffff1663e6253d40856040518263ffffffff1660e01b81526004016124e2919061313b565b60206040518083038186803b1580156124fa57600080fd5b505afa15801561250e573d6000803e3d6000fd5b505050506040513d601f19601f820116820180604052508101906125329190612a85565b90503373ffffffffffffffffffffffffffffffffffffffff168173ffffffffffffffffffffffffffffffffffffffff1614806125735750612572336128c9565b5b61257c57600080fd5b6000600660008373ffffffffffffffffffffffffffffffffffffffff1673ffffffffffffffffffffffffffffffffffffffff168152602001908152602001600020541415612628576009819080600181540180825580915050600190039060005260206000200160009091909190916101000a81548173ffffffffffffffffffffffffffffffffffffffff021916908373ffffffffffffffffffffffffffffffffffffffff1602179055505b81600660008373ffffffffffffffffffffffffffffffffffffffff1673ffffffffffffffffffffffffffffffffffffffff168152602001908152602001600020600082825461267791906131e8565b925050819055506000600760008573ffffffffffffffffffffffffffffffffffffffff1673ffffffffffffffffffffffffffffffffffffffff16815260200190815260200160002054141561272a57600a839080600181540180825580915050600190039060005260206000200160009091909190916101000a81548173ffffffffffffffffffffffffffffffffffffffff021916908373ffffffffffffffffffffffffffffffffffffffff1602179055505b81600760008573ffffffffffffffffffffffffffffffffffffffff1673ffffffffffffffffffffffffffffffffffffffff168152602001908152602001600020600082825461277991906131e8565b9250508190555050505050565b61278e6112ad565b156127ce576040517f08c379a00000000000000000000000000000000000000000000000000000000081526004016127c5906130d9565b60405180910390fd5b60016000806101000a81548160ff0219169083151502179055507f62e78cea01bee320cd4e420270b5ea74000d11b0c9f74754ebdbfc544b05a2586128116128e2565b60405161281e9190612f36565b60405180910390a1565b6128306112ad565b61286f576040517f08c379a0000000000000000000000000000000000000000000000000000000008152600401612866906130b9565b60405180910390fd5b60008060006101000a81548160ff0219169083151502179055507f5db9ee0a495bf2e6ff9c91a7834c1ba4fdd244a5e8aa4e537bd38aeae4b073aa6128b26128e2565b6040516128bf9190612f36565b60405180910390a1565b600080823b905060008163ffffffff1611915050919050565b600033905090565b604051806080016040528060008152602001600081526020016060815260200160006003811115612944577f4e487b7100000000000000000000000000000000000000000000000000000000600052602160045260246000fd5b81525090565b600081359050612959816134e4565b92915050565b60008151905061296e816134e4565b92915050565b600081519050612983816134fb565b92915050565b60008083601f84011261299b57600080fd5b8235905067ffffffffffffffff8111156129b457600080fd5b6020830191508360208202830111156129cc57600080fd5b9250929050565b60008083601f8401126129e557600080fd5b8235905067ffffffffffffffff8111156129fe57600080fd5b602083019150836020820283011115612a1657600080fd5b9250929050565b600081519050612a2c81613512565b92915050565b600081359050612a4181613529565b92915050565b600081519050612a5681613529565b92915050565b600060208284031215612a6e57600080fd5b6000612a7c8482850161294a565b91505092915050565b600060208284031215612a9757600080fd5b6000612aa58482850161295f565b91505092915050565b600060208284031215612ac057600080fd5b6000612ace84828501612974565b91505092915050565b60008060408385031215612aea57600080fd5b6000612af88582860161294a565b9250506020612b0985828601612a32565b9150509250929050565b600080600060608486031215612b2857600080fd5b6000612b368682870161294a565b9350506020612b4786828701612a32565b9250506040612b5886828701612a32565b9150509250925092565b600080600080600060608688031215612b7a57600080fd5b600086013567ffffffffffffffff811115612b9457600080fd5b612ba088828901612989565b95509550506020612bb388828901612a32565b935050604086013567ffffffffffffffff811115612bd057600080fd5b612bdc888289016129d3565b92509250509295509295909350565b600060208284031215612bfd57600080fd5b6000612c0b84828501612a1d565b91505092915050565b600060208284031215612c2657600080fd5b6000612c3484828501612a32565b91505092915050565b600060208284031215612c4f57600080fd5b6000612c5d84828501612a47565b91505092915050565b60008060408385031215612c7957600080fd5b6000612c8785828601612a32565b9250506020612c988582860161294a565b9150509250929050565b60008060408385031215612cb557600080fd5b6000612cc385828601612a32565b9250506020612cd485828601612a32565b9150509250929050565b6000612cea8383612d14565b60208301905092915050565b612cff8161336a565b82525050565b612d0e8161330f565b82525050565b612d1d816132fd565b82525050565b612d2c816132fd565b82525050565b6000612d3d8261319d565b612d4781856131b5565b9350612d528361318d565b8060005b83811015612d83578151612d6a8882612cde565b9750612d75836131a8565b925050600181019050612d56565b5085935050505092915050565b612d9981613321565b82525050565b612da88161337c565b82525050565b612db7816133a0565b82525050565b612dc6816133c4565b82525050565b612dd5816133c4565b82525050565b6000612de86014836131d7565b91507f5061757361626c653a206e6f74207061757365640000000000000000000000006000830152602082019050919050565b6000612e286010836131d7565b91507f5061757361626c653a20706175736564000000000000000000000000000000006000830152602082019050919050565b6000612e686015836131d7565b91507f43616c6c6572206e6f7420617574686f72697a656400000000000000000000006000830152602082019050919050565b6000612ea86000836131c6565b9150600082019050919050565b6000608083016000830151612ecd6000860182612f18565b506020830151612ee06020860182612f18565b5060408301518482036040860152612ef88282612d32565b9150506060830151612f0d6060860182612dbd565b508091505092915050565b612f2181613360565b82525050565b612f3081613360565b82525050565b6000602082019050612f4b6000830184612d23565b92915050565b6000602082019050612f666000830184612d05565b92915050565b6000604082019050612f816000830185612cf6565b612f8e6020830184612f27565b9392505050565b6000606082019050612faa6000830186612d23565b612fb76020830185612d23565b612fc46040830184612f27565b949350505050565b600060a082019050612fe16000830187612d23565b612fee6020830186612d23565b612ffb6040830185612f27565b6130086060830184612f27565b818103608083015261301981612e9b565b905095945050505050565b60006040820190506130396000830185612d23565b6130466020830184612f27565b9392505050565b60006020820190506130626000830184612d90565b92915050565b600060208201905061307d6000830184612d9f565b92915050565b60006020820190506130986000830184612dae565b92915050565b60006020820190506130b36000830184612dcc565b92915050565b600060208201905081810360008301526130d281612ddb565b9050919050565b600060208201905081810360008301526130f281612e1b565b9050919050565b6000602082019050818103600083015261311281612e5b565b9050919050565b600060208201905081810360008301526131338184612eb5565b905092915050565b60006020820190506131506000830184612f27565b92915050565b600060608201905061316b6000830186612f27565b6131786020830185612f27565b6131856040830184612dcc565b949350505050565b6000819050602082019050919050565b600081519050919050565b6000602082019050919050565b600082825260208201905092915050565b600082825260208201905092915050565b600082825260208201905092915050565b60006131f382613360565b91506131fe83613360565b9250827fffffffffffffffffffffffffffffffffffffffffffffffffffffffffffffffff0382111561323357613232613443565b5b828201905092915050565b600061324982613360565b915061325483613360565b92508261326457613263613472565b5b828204905092915050565b600061327a82613360565b915061328583613360565b9250817fffffffffffffffffffffffffffffffffffffffffffffffffffffffffffffffff04831182151516156132be576132bd613443565b5b828202905092915050565b60006132d482613360565b91506132df83613360565b9250828210156132f2576132f1613443565b5b828203905092915050565b600061330882613340565b9050919050565b600061331a82613340565b9050919050565b60008115159050919050565b600081905061333b826134d0565b919050565b600073ffffffffffffffffffffffffffffffffffffffff82169050919050565b6000819050919050565b6000613375826133d6565b9050919050565b60006133878261338e565b9050919050565b600061339982613340565b9050919050565b60006133ab826133b2565b9050919050565b60006133bd82613340565b9050919050565b60006133cf8261332d565b9050919050565b60006133e1826133e8565b9050919050565b60006133f382613340565b9050919050565b600061340582613360565b91507fffffffffffffffffffffffffffffffffffffffffffffffffffffffffffffffff82141561343857613437613443565b5b600182019050919050565b7f4e487b7100000000000000000000000000000000000000000000000000000000600052601160045260246000fd5b7f4e487b7100000000000000000000000000000000000000000000000000000000600052601260045260246000fd5b7f4e487b7100000000000000000000000000000000000000000000000000000000600052602160045260246000fd5b600481106134e1576134e06134a1565b5b50565b6134ed816132fd565b81146134f857600080fd5b50565b6135048161330f565b811461350f57600080fd5b50565b61351b81613321565b811461352657600080fd5b50565b61353281613360565b811461353d57600080fd5b5056fea26469706673582212203bf34a057a59adfaf5d6f8d2cd8d2d2f0d5610b3f0a4b2f112e78d2c7fabf53a64736f6c63430008000033",
  "immutableReferences": {},
  "source": "// SPDX-License-Identifier: MIT\r\n\r\npragma solidity^0.8.0;\r\n\r\nimport \"./ToknFactory.sol\";\r\n\r\n\r\n\r\ncontract ToknITO is Pausable{\r\n    \r\n    ToknFactory public toknFactory;\r\n    UsdcToken public usdc;\r\n    address payable public treasury;\r\n\r\n    uint public treasuryPercentage = 13;\r\n\r\n    enum State {Started, Running, Cancelled, Ended}\r\n    \r\n    struct ITOConfig{\r\n        uint toknsAvailable;\r\n        uint price;\r\n        address[] investors;\r\n        State itoState;\r\n    }\r\n\r\n    mapping(uint => mapping(address => uint)) public bookedTokns;\r\n    mapping(uint => ITOConfig) public toknITOs;\r\n    mapping(address => uint) public artistTracker;\r\n    mapping(address => uint) public userTracker;\r\n    mapping(address => bool) public hasPaid;\r\n    \r\n    address[] public artistList;\r\n    address[] public userList;\r\n\r\n\r\n    \r\n    constructor(ToknFactory _toknFactory, UsdcToken _usdc){\r\n        toknFactory = _toknFactory;\r\n        usdc = _usdc;\r\n        treasury = payable(msg.sender);\r\n    }\r\n    \r\n    // function setUserHasPaid(address _user, uint _amount) public {\r\n    //     require(msg.sender== toknFactory.deployer(), \"User not authorized\");\r\n    //     hasPaid[_user] = _amount;\r\n    // }\r\n\r\n    // function setUsersHavePaid(address[] memory _users, uint[] memory _amounts) public {\r\n    //     require(msg.sender== toknFactory.deployer(), \"User not authorized\");\r\n    //     for(uint i = 0; i<_users.length; ++i){\r\n    //         setUserHasPaid(_users[i], _amounts[i]);\r\n    //     }\r\n    // }\r\n    function setTreasuryPercentage(uint _pc) public whenNotPaused{\r\n        require(msg.sender == treasury, \"Caller not authorized\");\r\n        treasuryPercentage = _pc;\r\n    }\r\n\r\n    function setTreasury(address _treasury) public whenNotPaused{\r\n        require(msg.sender == treasury, \"Caller not authorized\");\r\n        treasury = payable(_treasury);\r\n    }\r\n\r\n    function getUsersCount() public view returns(uint){\r\n        return userList.length;    \r\n    }\r\n    \r\n    function isContract(address _addr) private view returns (bool){\r\n      uint32 size;\r\n      assembly {\r\n        size := extcodesize(_addr)\r\n      }\r\n      return (size > 0);\r\n    }\r\n    \r\n    function airdropTracker(uint _id, address _receiver, uint _price) internal {\r\n        // if(_id == 1){\r\n        //     require(msg.sender == toknFactory.deployer());\r\n        // } else{\r\n            address artist = toknFactory.toknIdToArtist(_id);\r\n            require(artist == msg.sender || isContract(msg.sender));\r\n            if(artistTracker[artist] == 0) {\r\n                artistList.push(artist); \r\n            }\r\n            artistTracker[artist] += _price;\r\n        // }\r\n        if(userTracker[_receiver] == 0) {\r\n            userList.push(_receiver);\r\n        }\r\n        userTracker[_receiver] += _price;\r\n    }\r\n    \r\n\r\n    function setToknPrice(uint _id, uint _price) public whenNotPaused{\r\n        \r\n        require(toknFactory.toknIdToArtist(_id) == msg.sender && _price != 0);\r\n        toknITOs[_id].price = _price*10**6;\r\n    }\r\n    \r\n   \r\n    \r\n    function startITO(uint _id) public whenNotPaused{\r\n        \r\n        require(toknFactory.toknIdToArtist(_id) == msg.sender && toknITOs[_id].price != 0);\r\n        toknITOs[_id].itoState = State.Running;\r\n        toknITOs[_id].toknsAvailable = toknFactory.balanceOf(msg.sender, _id);\r\n    }\r\n    \r\n    function stopITO(uint _id) public whenNotPaused{\r\n        \r\n        require(toknFactory.toknIdToArtist(_id) == msg.sender && toknITOs[_id].itoState== State.Running);\r\n        toknITOs[_id].itoState = State.Ended;\r\n    }    \r\n    \r\n    function getCurrentState(uint _id) public view returns(State) {\r\n        \r\n        return toknITOs[_id].itoState;\r\n    }\r\n\r\n    function getITO(uint _id) public view returns(ITOConfig memory) {\r\n        return toknITOs[_id];\r\n    }\r\n    \r\n    function investFixedPrice(uint _id, uint _qty) public whenNotPaused{\r\n        \r\n        require(_qty <= toknITOs[_id].toknsAvailable && toknITOs[_id].itoState == State.Running);\r\n        uint usdcAmount = _qty * toknITOs[_id].price;\r\n        uint platform_fee = usdcAmount*treasuryPercentage/uint(100);\r\n        usdc.transferFrom(msg.sender, address(this), usdcAmount+platform_fee);\r\n        toknITOs[_id].toknsAvailable -= _qty;\r\n        toknITOs[_id].investors.push(payable(msg.sender));\r\n        bookedTokns[_id][msg.sender] += _qty;\r\n    }\r\n\r\n    // function redeemBookedTokens(uint _id) public {\r\n    //     require(toknITOs[_id].itoState == State.Running);\r\n    //     require(hasPaid[msg.sender] != 0, \"User has not paid.\");\r\n    //     uint toknPrice = toknITOs[_id].price;\r\n    //     uint _qty = hasPaid[msg.sender]/toknPrice;\r\n    //     require(_qty <= toknITOs[_id].toknsAvailable );\r\n    //     toknITOs[_id].toknsAvailable -= _qty;\r\n    //     toknITOs[_id].investors.push(payable(msg.sender));\r\n    //     bookedTokns[_id][msg.sender] += _qty;\r\n    //     hasPaid[msg.sender] = 0;\r\n    // }\r\n\r\n    function bookTokensForUser(address _user, uint _id, uint _amount) public whenNotPaused{\r\n        require(msg.sender == toknFactory.deployer());\r\n        uint toknPrice = toknITOs[_id].price;\r\n        uint cost = _amount*100/uint(100 + treasuryPercentage);\r\n        uint tokens = cost*10**6/toknPrice;\r\n        toknITOs[_id].toknsAvailable -= tokens;\r\n        toknITOs[_id].investors.push(payable(_user));\r\n        bookedTokns[_id][_user] += tokens;\r\n        hasPaid[_user] = true;\r\n        // usdc.transferFrom(msg.sender, address(this), _amount*10**6);\r\n    }\r\n\r\n    function bookTokensForUsers(address[] calldata _users, uint _id, uint[] calldata _amounts) public whenNotPaused{\r\n        require(msg.sender == toknFactory.deployer());\r\n        uint amount = 0;\r\n        uint toknPrice = toknITOs[_id].price;\r\n        for(uint i = 0; i < _users.length; ++i){\r\n            amount += _amounts[i]*10**6;\r\n            uint cost = _amounts[i]*100/uint(100 + treasuryPercentage);\r\n            uint tokens = cost*10**6/toknPrice;\r\n            toknITOs[_id].toknsAvailable -= tokens;\r\n            toknITOs[_id].investors.push(payable(_users[i]));\r\n            bookedTokns[_id][_users[i]] += tokens;\r\n            hasPaid[_users[i]] = true;\r\n        }\r\n        // usdc.transferFrom(msg.sender, address(this), amount);\r\n\r\n    }\r\n    \r\n    function allocateFixedPrice(uint _id) public whenNotPaused{\r\n        // stopITO(_id);\r\n        \r\n        require(toknFactory.toknIdToArtist(_id) == msg.sender);\r\n        require(toknITOs[_id].itoState == State.Ended);\r\n        address[] memory toknInvestors = toknITOs[_id].investors;\r\n        for(uint i = 0; i < toknInvestors.length; i++) {\r\n            toknFactory.safeTransferFrom(msg.sender, toknInvestors[i], _id, bookedTokns[_id][toknInvestors[i]], \"\");\r\n            uint amount = toknITOs[_id].price * bookedTokns[_id][toknInvestors[i]];\r\n            uint treasury_amount = amount*treasuryPercentage/uint(100);\r\n            // uint artistAmount = amount - treasury_amount;\r\n            if(!hasPaid[toknInvestors[i]]){\r\n                usdc.transfer(treasury, treasury_amount);\r\n                usdc.transfer(msg.sender, amount);\r\n            }\r\n            \r\n            airdropTracker(_id, toknInvestors[i], amount);\r\n        }\r\n    }\r\n    \r\n   function getBookedToknsFor(address _investor, uint _id) public view returns (uint) {\r\n       return bookedTokns[_id][_investor];\r\n   }\r\n\r\n   function pause() public {\r\n        require(msg.sender == toknFactory.deployer());\r\n        _pause();\r\n    }\r\n\r\n    function unPause() public {\r\n        require(msg.sender == toknFactory.deployer());\r\n        _unpause();\r\n    }\r\n    \r\n}",
  "sourcePath": "C:\\Users\\sj931\\OneDrive\\Desktop\\Tokn\\alpha\\Tokn-alpha\\Alpha-Contracts\\contracts\\ToknITO.sol",
  "compiler": {
    "name": "solc",
    "version": "0.8.0+commit.c7dfd78e.Emscripten.clang"
  },
  "schemaVersion": "3.4.3",
  "updatedAt": "2022-01-27T09:47:35.384Z",
  "networkType": "ethereum",
  "devdoc": {
    "kind": "dev",
    "methods": {
      "paused()": {
        "details": "Returns true if the contract is paused, and false otherwise."
      }
    },
    "version": 1
  },
  "userdoc": {
    "kind": "user",
    "methods": {},
    "version": 1
  }
}