{
  "contractName": "ToknFactory",
  "abi": [
    {
      "inputs": [
        {
          "internalType": "string",
          "name": "_platformURI",
          "type": "string"
        }
      ],
      "stateMutability": "nonpayable",
      "type": "constructor"
    },
    {
      "anonymous": false,
      "inputs": [
        {
          "indexed": true,
          "internalType": "address",
          "name": "account",
          "type": "address"
        },
        {
          "indexed": true,
          "internalType": "address",
          "name": "operator",
          "type": "address"
        },
        {
          "indexed": false,
          "internalType": "bool",
          "name": "approved",
          "type": "bool"
        }
      ],
      "name": "ApprovalForAll",
      "type": "event"
    },
    {
      "anonymous": false,
      "inputs": [
        {
          "indexed": false,
          "internalType": "address",
          "name": "account",
          "type": "address"
        }
      ],
      "name": "Paused",
      "type": "event"
    },
    {
      "anonymous": false,
      "inputs": [
        {
          "indexed": true,
          "internalType": "address",
          "name": "operator",
          "type": "address"
        },
        {
          "indexed": true,
          "internalType": "address",
          "name": "from",
          "type": "address"
        },
        {
          "indexed": true,
          "internalType": "address",
          "name": "to",
          "type": "address"
        },
        {
          "indexed": false,
          "internalType": "uint256[]",
          "name": "ids",
          "type": "uint256[]"
        },
        {
          "indexed": false,
          "internalType": "uint256[]",
          "name": "values",
          "type": "uint256[]"
        }
      ],
      "name": "TransferBatch",
      "type": "event"
    },
    {
      "anonymous": false,
      "inputs": [
        {
          "indexed": true,
          "internalType": "address",
          "name": "operator",
          "type": "address"
        },
        {
          "indexed": true,
          "internalType": "address",
          "name": "from",
          "type": "address"
        },
        {
          "indexed": true,
          "internalType": "address",
          "name": "to",
          "type": "address"
        },
        {
          "indexed": false,
          "internalType": "uint256",
          "name": "id",
          "type": "uint256"
        },
        {
          "indexed": false,
          "internalType": "uint256",
          "name": "value",
          "type": "uint256"
        }
      ],
      "name": "TransferSingle",
      "type": "event"
    },
    {
      "anonymous": false,
      "inputs": [
        {
          "indexed": false,
          "internalType": "string",
          "name": "value",
          "type": "string"
        },
        {
          "indexed": true,
          "internalType": "uint256",
          "name": "id",
          "type": "uint256"
        }
      ],
      "name": "URI",
      "type": "event"
    },
    {
      "anonymous": false,
      "inputs": [
        {
          "indexed": false,
          "internalType": "address",
          "name": "account",
          "type": "address"
        }
      ],
      "name": "Unpaused",
      "type": "event"
    },
    {
      "inputs": [
        {
          "internalType": "uint256",
          "name": "",
          "type": "uint256"
        },
        {
          "internalType": "uint256",
          "name": "",
          "type": "uint256"
        }
      ],
      "name": "addressTracker",
      "outputs": [
        {
          "internalType": "address",
          "name": "",
          "type": "address"
        }
      ],
      "stateMutability": "view",
      "type": "function",
      "constant": true
    },
    {
      "inputs": [
        {
          "internalType": "address",
          "name": "",
          "type": "address"
        },
        {
          "internalType": "uint256",
          "name": "",
          "type": "uint256"
        }
      ],
      "name": "artistTokns",
      "outputs": [
        {
          "internalType": "uint256",
          "name": "",
          "type": "uint256"
        }
      ],
      "stateMutability": "view",
      "type": "function",
      "constant": true
    },
    {
      "inputs": [
        {
          "internalType": "address",
          "name": "account",
          "type": "address"
        },
        {
          "internalType": "uint256",
          "name": "id",
          "type": "uint256"
        }
      ],
      "name": "balanceOf",
      "outputs": [
        {
          "internalType": "uint256",
          "name": "",
          "type": "uint256"
        }
      ],
      "stateMutability": "view",
      "type": "function",
      "constant": true
    },
    {
      "inputs": [
        {
          "internalType": "address[]",
          "name": "accounts",
          "type": "address[]"
        },
        {
          "internalType": "uint256[]",
          "name": "ids",
          "type": "uint256[]"
        }
      ],
      "name": "balanceOfBatch",
      "outputs": [
        {
          "internalType": "uint256[]",
          "name": "",
          "type": "uint256[]"
        }
      ],
      "stateMutability": "view",
      "type": "function",
      "constant": true
    },
    {
      "inputs": [],
      "name": "deployer",
      "outputs": [
        {
          "internalType": "address payable",
          "name": "",
          "type": "address"
        }
      ],
      "stateMutability": "view",
      "type": "function",
      "constant": true
    },
    {
      "inputs": [
        {
          "internalType": "address",
          "name": "account",
          "type": "address"
        },
        {
          "internalType": "address",
          "name": "operator",
          "type": "address"
        }
      ],
      "name": "isApprovedForAll",
      "outputs": [
        {
          "internalType": "bool",
          "name": "",
          "type": "bool"
        }
      ],
      "stateMutability": "view",
      "type": "function",
      "constant": true
    },
    {
      "inputs": [],
      "name": "paused",
      "outputs": [
        {
          "internalType": "bool",
          "name": "",
          "type": "bool"
        }
      ],
      "stateMutability": "view",
      "type": "function",
      "constant": true
    },
    {
      "inputs": [
        {
          "internalType": "address",
          "name": "from",
          "type": "address"
        },
        {
          "internalType": "address",
          "name": "to",
          "type": "address"
        },
        {
          "internalType": "uint256[]",
          "name": "ids",
          "type": "uint256[]"
        },
        {
          "internalType": "uint256[]",
          "name": "amounts",
          "type": "uint256[]"
        },
        {
          "internalType": "bytes",
          "name": "data",
          "type": "bytes"
        }
      ],
      "name": "safeBatchTransferFrom",
      "outputs": [],
      "stateMutability": "nonpayable",
      "type": "function"
    },
    {
      "inputs": [
        {
          "internalType": "address",
          "name": "operator",
          "type": "address"
        },
        {
          "internalType": "bool",
          "name": "approved",
          "type": "bool"
        }
      ],
      "name": "setApprovalForAll",
      "outputs": [],
      "stateMutability": "nonpayable",
      "type": "function"
    },
    {
      "inputs": [
        {
          "internalType": "bytes4",
          "name": "interfaceId",
          "type": "bytes4"
        }
      ],
      "name": "supportsInterface",
      "outputs": [
        {
          "internalType": "bool",
          "name": "",
          "type": "bool"
        }
      ],
      "stateMutability": "view",
      "type": "function",
      "constant": true
    },
    {
      "inputs": [
        {
          "internalType": "string",
          "name": "",
          "type": "string"
        }
      ],
      "name": "symbolToId",
      "outputs": [
        {
          "internalType": "uint256",
          "name": "",
          "type": "uint256"
        }
      ],
      "stateMutability": "view",
      "type": "function",
      "constant": true
    },
    {
      "inputs": [],
      "name": "toknId",
      "outputs": [
        {
          "internalType": "uint256",
          "name": "",
          "type": "uint256"
        }
      ],
      "stateMutability": "view",
      "type": "function",
      "constant": true
    },
    {
      "inputs": [
        {
          "internalType": "uint256",
          "name": "",
          "type": "uint256"
        }
      ],
      "name": "toknIdToArtist",
      "outputs": [
        {
          "internalType": "address",
          "name": "",
          "type": "address"
        }
      ],
      "stateMutability": "view",
      "type": "function",
      "constant": true
    },
    {
      "inputs": [
        {
          "internalType": "uint256",
          "name": "",
          "type": "uint256"
        }
      ],
      "name": "toknIdToURI",
      "outputs": [
        {
          "internalType": "string",
          "name": "",
          "type": "string"
        }
      ],
      "stateMutability": "view",
      "type": "function",
      "constant": true
    },
    {
      "inputs": [
        {
          "internalType": "uint256",
          "name": "",
          "type": "uint256"
        }
      ],
      "name": "toknsAvailable",
      "outputs": [
        {
          "internalType": "uint256",
          "name": "",
          "type": "uint256"
        }
      ],
      "stateMutability": "view",
      "type": "function",
      "constant": true
    },
    {
      "inputs": [
        {
          "internalType": "uint256",
          "name": "",
          "type": "uint256"
        }
      ],
      "name": "totalSupplies",
      "outputs": [
        {
          "internalType": "uint256",
          "name": "",
          "type": "uint256"
        }
      ],
      "stateMutability": "view",
      "type": "function",
      "constant": true
    },
    {
      "inputs": [
        {
          "internalType": "uint256",
          "name": "",
          "type": "uint256"
        }
      ],
      "name": "uri",
      "outputs": [
        {
          "internalType": "string",
          "name": "",
          "type": "string"
        }
      ],
      "stateMutability": "view",
      "type": "function",
      "constant": true
    },
    {
      "inputs": [],
      "name": "usdc",
      "outputs": [
        {
          "internalType": "contract UsdcToken",
          "name": "",
          "type": "address"
        }
      ],
      "stateMutability": "view",
      "type": "function",
      "constant": true
    },
    {
      "inputs": [
        {
          "internalType": "string",
          "name": "_symbol",
          "type": "string"
        },
        {
          "internalType": "uint256",
          "name": "_amount",
          "type": "uint256"
        },
        {
          "internalType": "string",
          "name": "_uri",
          "type": "string"
        }
      ],
      "name": "createInvestorTokns",
      "outputs": [],
      "stateMutability": "nonpayable",
      "type": "function"
    },
    {
      "inputs": [
        {
          "internalType": "uint256",
          "name": "_amount",
          "type": "uint256"
        },
        {
          "internalType": "uint256",
          "name": "_toknId",
          "type": "uint256"
        }
      ],
      "name": "mintInvestorTokns",
      "outputs": [],
      "stateMutability": "nonpayable",
      "type": "function"
    },
    {
      "inputs": [
        {
          "internalType": "uint256",
          "name": "_amount",
          "type": "uint256"
        },
        {
          "internalType": "uint256",
          "name": "_toknId",
          "type": "uint256"
        }
      ],
      "name": "burnInvestorTokns",
      "outputs": [],
      "stateMutability": "nonpayable",
      "type": "function"
    },
    {
      "inputs": [
        {
          "internalType": "uint256",
          "name": "_id",
          "type": "uint256"
        }
      ],
      "name": "returnAddressesForTokn",
      "outputs": [
        {
          "internalType": "address[]",
          "name": "",
          "type": "address[]"
        }
      ],
      "stateMutability": "view",
      "type": "function",
      "constant": true
    },
    {
      "inputs": [
        {
          "internalType": "address",
          "name": "from",
          "type": "address"
        },
        {
          "internalType": "address",
          "name": "to",
          "type": "address"
        },
        {
          "internalType": "uint256",
          "name": "id",
          "type": "uint256"
        },
        {
          "internalType": "uint256",
          "name": "amount",
          "type": "uint256"
        },
        {
          "internalType": "bytes",
          "name": "data",
          "type": "bytes"
        }
      ],
      "name": "safeTransferFrom",
      "outputs": [],
      "stateMutability": "nonpayable",
      "type": "function"
    },
    {
      "inputs": [],
      "name": "pause",
      "outputs": [],
      "stateMutability": "nonpayable",
      "type": "function"
    },
    {
      "inputs": [],
      "name": "unPause",
      "outputs": [],
      "stateMutability": "nonpayable",
      "type": "function"
    }
  ],
  "bytecode": "0x60806040523480156200001157600080fd5b50604051620042e1380380620042e1833981810160405281019062000037919062000240565b8062000049816200010260201b60201c565b506000600360006101000a81548160ff02191690831515021790555033600360016101000a81548173ffffffffffffffffffffffffffffffffffffffff021916908373ffffffffffffffffffffffffffffffffffffffff160217905550734dbcdf9b62e891a7cec5a2568c3f4faf9e8abe2b600c60006101000a81548173ffffffffffffffffffffffffffffffffffffffff021916908373ffffffffffffffffffffffffffffffffffffffff16021790555050620003b6565b80600290805190602001906200011a9291906200011e565b5050565b8280546200012c9062000322565b90600052602060002090601f0160209004810192826200015057600085556200019c565b82601f106200016b57805160ff19168380011785556200019c565b828001600101855582156200019c579182015b828111156200019b5782518255916020019190600101906200017e565b5b509050620001ab9190620001af565b5090565b5b80821115620001ca576000816000905550600101620001b0565b5090565b6000620001e5620001df84620002b9565b62000285565b905082815260208101848484011115620001fe57600080fd5b6200020b848285620002ec565b509392505050565b600082601f8301126200022557600080fd5b815162000237848260208601620001ce565b91505092915050565b6000602082840312156200025357600080fd5b600082015167ffffffffffffffff8111156200026e57600080fd5b6200027c8482850162000213565b91505092915050565b6000604051905081810181811067ffffffffffffffff82111715620002af57620002ae62000387565b5b8060405250919050565b600067ffffffffffffffff821115620002d757620002d662000387565b5b601f19601f8301169050602081019050919050565b60005b838110156200030c578082015181840152602081019050620002ef565b838111156200031c576000848401525b50505050565b600060028204905060018216806200033b57607f821691505b6020821081141562000352576200035162000358565b5b50919050565b7f4e487b7100000000000000000000000000000000000000000000000000000000600052602260045260246000fd5b7f4e487b7100000000000000000000000000000000000000000000000000000000600052604160045260246000fd5b613f1b80620003c66000396000f3fe608060405234801561001057600080fd5b50600436106101725760003560e01c8063700a451b116100de578063c4f899db11610097578063e6253d4011610071578063e6253d4014610495578063e985e9c5146104c5578063f242432a146104f5578063f7b188a51461051157610172565b8063c4f899db1461043d578063ce290c3714610459578063d5f394881461047757610172565b8063700a451b1461035757806372ed8a5d146103875780638456cb59146103b7578063a22cb465146103c1578063a35d5ef9146103dd578063b54fa4741461040d57610172565b80632eb2c2d6116101305780632eb2c2d61461029757806330a071f7146102b3578063338012e5146102cf5780633e413bee146102eb5780634e1273f4146103095780635c975abb1461033957610172565b8062fdd58e1461017757806301ffc9a7146101a757806305e1e18d146101d75780630e89341c146102075780631146c2b41461023757806318adc58214610267575b600080fd5b610191600480360381019061018c9190612bce565b61051b565b60405161019e9190613955565b60405180910390f35b6101c160048036038101906101bc9190612c76565b6105e4565b6040516101ce919061371d565b60405180910390f35b6101f160048036038101906101ec9190612bce565b6106c6565b6040516101fe9190613955565b60405180910390f35b610221600480360381019061021c9190612d88565b6106f7565b60405161022e9190613753565b60405180910390f35b610251600480360381019061024c9190612d88565b61078b565b60405161025e9190613955565b60405180910390f35b610281600480360381019061027c9190612db1565b6107a3565b60405161028e91906135aa565b60405180910390f35b6102b160048036038101906102ac9190612a44565b6107f1565b005b6102cd60048036038101906102c89190612db1565b610892565b005b6102e960048036038101906102e49190612db1565b6109ac565b005b6102f3610b62565b6040516103009190613738565b60405180910390f35b610323600480360381019061031e9190612c0a565b610b88565b60405161033091906136c4565b60405180910390f35b610341610d39565b60405161034e919061371d565b60405180910390f35b610371600480360381019061036c9190612cc8565b610d50565b60405161037e9190613955565b60405180910390f35b6103a1600480360381019061039c9190612d88565b610d7e565b6040516103ae9190613753565b60405180910390f35b6103bf610e1e565b005b6103db60048036038101906103d69190612b92565b610e82565b005b6103f760048036038101906103f29190612d88565b610e98565b60405161040491906136a2565b60405180910390f35b61042760048036038101906104229190612d88565b610f39565b6040516104349190613955565b60405180910390f35b61045760048036038101906104529190612d09565b610f51565b005b6104616110c7565b60405161046e9190613955565b60405180910390f35b61047f6110cd565b60405161048c91906135c5565b60405180910390f35b6104af60048036038101906104aa9190612d88565b6110f3565b6040516104bc91906135aa565b60405180910390f35b6104df60048036038101906104da9190612a08565b611126565b6040516104ec919061371d565b60405180910390f35b61050f600480360381019061050a9190612b03565b6111ba565b005b610519611562565b005b60008073ffffffffffffffffffffffffffffffffffffffff168373ffffffffffffffffffffffffffffffffffffffff16141561058c576040517f08c379a0000000000000000000000000000000000000000000000000000000008152600401610583906137d5565b60405180910390fd5b60008083815260200190815260200160002060008473ffffffffffffffffffffffffffffffffffffffff1673ffffffffffffffffffffffffffffffffffffffff16815260200190815260200160002054905092915050565b60007fd9b67a26000000000000000000000000000000000000000000000000000000007bffffffffffffffffffffffffffffffffffffffffffffffffffffffff1916827bffffffffffffffffffffffffffffffffffffffffffffffffffffffff191614806106af57507f0e89341c000000000000000000000000000000000000000000000000000000007bffffffffffffffffffffffffffffffffffffffffffffffffffffffff1916827bffffffffffffffffffffffffffffffffffffffffffffffffffffffff1916145b806106bf57506106be826115c6565b5b9050919050565b600960205281600052604060002081815481106106e257600080fd5b90600052602060002001600091509150505481565b60606002805461070690613cad565b80601f016020809104026020016040519081016040528092919081815260200182805461073290613cad565b801561077f5780601f106107545761010080835404028352916020019161077f565b820191906000526020600020905b81548152906001019060200180831161076257829003601f168201915b50505050509050919050565b60066020528060005260406000206000915090505481565b600b60205281600052604060002081815481106107bf57600080fd5b906000526020600020016000915091509054906101000a900473ffffffffffffffffffffffffffffffffffffffff1681565b6107f9611630565b73ffffffffffffffffffffffffffffffffffffffff168573ffffffffffffffffffffffffffffffffffffffff16148061083f575061083e85610839611630565b611126565b5b61087e576040517f08c379a000000000000000000000000000000000000000000000000000000000815260040161087590613875565b60405180910390fd5b61088b8585858585611638565b5050505050565b80338073ffffffffffffffffffffffffffffffffffffffff16600a600084815260200190815260200160002060009054906101000a900473ffffffffffffffffffffffffffffffffffffffff1673ffffffffffffffffffffffffffffffffffffffff16146108ff57600080fd5b610907610d39565b15610947576040517f08c379a000000000000000000000000000000000000000000000000000000000815260040161093e90613835565b60405180910390fd5b610952338486611998565b836005600085815260200190815260200160002060008282546109759190613b8d565b925050819055508360066000858152602001908152602001600020600082825461099f9190613b8d565b9250508190555050505050565b80338073ffffffffffffffffffffffffffffffffffffffff16600a600084815260200190815260200160002060009054906101000a900473ffffffffffffffffffffffffffffffffffffffff1673ffffffffffffffffffffffffffffffffffffffff1614610a1957600080fd5b610a21610d39565b15610a61576040517f08c379a0000000000000000000000000000000000000000000000000000000008152600401610a5890613835565b60405180910390fd5b610b08338486600760008881526020019081526020016000208054610a8590613cad565b80601f0160208091040260200160405190810160405280929190818152602001828054610ab190613cad565b8015610afe5780601f10610ad357610100808354040283529160200191610afe565b820191906000526020600020905b815481529060010190602001808311610ae157829003601f168201915b5050505050611bb5565b83600560008581526020019081526020016000206000828254610b2b9190613b37565b9250508190555083600660008581526020019081526020016000206000828254610b559190613b37565b9250508190555050505050565b600c60009054906101000a900473ffffffffffffffffffffffffffffffffffffffff1681565b60608151835114610bce576040517f08c379a0000000000000000000000000000000000000000000000000000000008152600401610bc5906138f5565b60405180910390fd5b6000835167ffffffffffffffff811115610c11577f4e487b7100000000000000000000000000000000000000000000000000000000600052604160045260246000fd5b604051908082528060200260200182016040528015610c3f5781602001602082028036833780820191505090505b50905060005b8451811015610d2e57610cd8858281518110610c8a577f4e487b7100000000000000000000000000000000000000000000000000000000600052603260045260246000fd5b6020026020010151858381518110610ccb577f4e487b7100000000000000000000000000000000000000000000000000000000600052603260045260246000fd5b602002602001015161051b565b828281518110610d11577f4e487b7100000000000000000000000000000000000000000000000000000000600052603260045260246000fd5b60200260200101818152505080610d2790613cdf565b9050610c45565b508091505092915050565b6000600360009054906101000a900460ff16905090565b6008818051602081018201805184825260208301602085012081835280955050505050506000915090505481565b60076020528060005260406000206000915090508054610d9d90613cad565b80601f0160208091040260200160405190810160405280929190818152602001828054610dc990613cad565b8015610e165780601f10610deb57610100808354040283529160200191610e16565b820191906000526020600020905b815481529060010190602001808311610df957829003601f168201915b505050505081565b600360019054906101000a900473ffffffffffffffffffffffffffffffffffffffff1673ffffffffffffffffffffffffffffffffffffffff163373ffffffffffffffffffffffffffffffffffffffff1614610e7857600080fd5b610e80611d4b565b565b610e94610e8d611630565b8383611dee565b5050565b6060600b6000838152602001908152602001600020805480602002602001604051908101604052809291908181526020018280548015610f2d57602002820191906000526020600020905b8160009054906101000a900473ffffffffffffffffffffffffffffffffffffffff1673ffffffffffffffffffffffffffffffffffffffff1681526020019060010190808311610ee3575b50505050509050919050565b60056020528060005260406000206000915090505481565b610f59610d39565b15610f99576040517f08c379a0000000000000000000000000000000000000000000000000000000008152600401610f9090613835565b60405180910390fd5b33600a6000600460008154610fad90613cdf565b919050819055815260200190815260200160002060006101000a81548173ffffffffffffffffffffffffffffffffffffffff021916908373ffffffffffffffffffffffffffffffffffffffff1602179055506004546008846040516110129190613593565b908152602001604051809103902081905550600960003373ffffffffffffffffffffffffffffffffffffffff1673ffffffffffffffffffffffffffffffffffffffff16815260200190815260200160002060045490806001815401808255809150506001900390600052602060002001600090919091909150558060076000600454815260200190815260200160002090805190602001906110b5929190612700565b506110c2826004546109ac565b505050565b60045481565b600360019054906101000a900473ffffffffffffffffffffffffffffffffffffffff1681565b600a6020528060005260406000206000915054906101000a900473ffffffffffffffffffffffffffffffffffffffff1681565b6000600160008473ffffffffffffffffffffffffffffffffffffffff1673ffffffffffffffffffffffffffffffffffffffff16815260200190815260200160002060008373ffffffffffffffffffffffffffffffffffffffff1673ffffffffffffffffffffffffffffffffffffffff16815260200190815260200160002060009054906101000a900460ff16905092915050565b6111c2610d39565b15611202576040517f08c379a00000000000000000000000000000000000000000000000000000000081526004016111f990613835565b60405180910390fd5b61120a611630565b73ffffffffffffffffffffffffffffffffffffffff168573ffffffffffffffffffffffffffffffffffffffff161480611250575061124f8561124a611630565b611126565b5b61128f576040517f08c379a000000000000000000000000000000000000000000000000000000000815260040161128690613815565b60405180910390fd5b61129c8585858585611f5b565b60006112a8868561051b565b14156114045760005b600b600085815260200190815260200160002080549050811015611402578573ffffffffffffffffffffffffffffffffffffffff16600b60008681526020019081526020016000208281548110611331577f4e487b7100000000000000000000000000000000000000000000000000000000600052603260045260246000fd5b9060005260206000200160009054906101000a900473ffffffffffffffffffffffffffffffffffffffff1673ffffffffffffffffffffffffffffffffffffffff1614156113f157600b600085815260200190815260200160002081815481106113c3577f4e487b7100000000000000000000000000000000000000000000000000000000600052603260045260246000fd5b9060005260206000200160006101000a81549073ffffffffffffffffffffffffffffffffffffffff02191690555b806113fb90613cdf565b90506112b1565b505b60005b600b6000858152602001908152602001600020805490508110156114e5578473ffffffffffffffffffffffffffffffffffffffff16600b60008681526020019081526020016000208281548110611487577f4e487b7100000000000000000000000000000000000000000000000000000000600052603260045260246000fd5b9060005260206000200160009054906101000a900473ffffffffffffffffffffffffffffffffffffffff1673ffffffffffffffffffffffffffffffffffffffff1614156114d4575061155b565b806114de90613cdf565b9050611407565b50600b6000848152602001908152602001600020849080600181540180825580915050600190039060005260206000200160009091909190916101000a81548173ffffffffffffffffffffffffffffffffffffffff021916908373ffffffffffffffffffffffffffffffffffffffff1602179055505b5050505050565b600360019054906101000a900473ffffffffffffffffffffffffffffffffffffffff1673ffffffffffffffffffffffffffffffffffffffff163373ffffffffffffffffffffffffffffffffffffffff16146115bc57600080fd5b6115c46121dd565b565b60007f01ffc9a7000000000000000000000000000000000000000000000000000000007bffffffffffffffffffffffffffffffffffffffffffffffffffffffff1916827bffffffffffffffffffffffffffffffffffffffffffffffffffffffff1916149050919050565b600033905090565b815183511461167c576040517f08c379a000000000000000000000000000000000000000000000000000000000815260040161167390613915565b60405180910390fd5b600073ffffffffffffffffffffffffffffffffffffffff168473ffffffffffffffffffffffffffffffffffffffff1614156116ec576040517f08c379a00000000000000000000000000000000000000000000000000000000081526004016116e390613855565b60405180910390fd5b60006116f6611630565b905061170681878787878761227f565b60005b845181101561190357600085828151811061174d577f4e487b7100000000000000000000000000000000000000000000000000000000600052603260045260246000fd5b602002602001015190506000858381518110611792577f4e487b7100000000000000000000000000000000000000000000000000000000600052603260045260246000fd5b60200260200101519050600080600084815260200190815260200160002060008b73ffffffffffffffffffffffffffffffffffffffff1673ffffffffffffffffffffffffffffffffffffffff16815260200190815260200160002054905081811015611833576040517f08c379a000000000000000000000000000000000000000000000000000000000815260040161182a906138b5565b60405180910390fd5b81810360008085815260200190815260200160002060008c73ffffffffffffffffffffffffffffffffffffffff1673ffffffffffffffffffffffffffffffffffffffff168152602001908152602001600020819055508160008085815260200190815260200160002060008b73ffffffffffffffffffffffffffffffffffffffff1673ffffffffffffffffffffffffffffffffffffffff16815260200190815260200160002060008282546118e89190613b37565b92505081905550505050806118fc90613cdf565b9050611709565b508473ffffffffffffffffffffffffffffffffffffffff168673ffffffffffffffffffffffffffffffffffffffff168273ffffffffffffffffffffffffffffffffffffffff167f4a39dc06d4c0dbc64b70af90fd698a233a518aa5d07e595d983b8c0526c8f7fb878760405161197a9291906136e6565b60405180910390a4611990818787878787612287565b505050505050565b600073ffffffffffffffffffffffffffffffffffffffff168373ffffffffffffffffffffffffffffffffffffffff161415611a08576040517f08c379a00000000000000000000000000000000000000000000000000000000081526004016119ff90613895565b60405180910390fd5b6000611a12611630565b9050611a4281856000611a2487612457565b611a2d87612457565b6040518060200160405280600081525061227f565b600080600085815260200190815260200160002060008673ffffffffffffffffffffffffffffffffffffffff1673ffffffffffffffffffffffffffffffffffffffff16815260200190815260200160002054905082811015611ad9576040517f08c379a0000000000000000000000000000000000000000000000000000000008152600401611ad0906137f5565b60405180910390fd5b82810360008086815260200190815260200160002060008773ffffffffffffffffffffffffffffffffffffffff1673ffffffffffffffffffffffffffffffffffffffff16815260200190815260200160002081905550600073ffffffffffffffffffffffffffffffffffffffff168573ffffffffffffffffffffffffffffffffffffffff168373ffffffffffffffffffffffffffffffffffffffff167fc3d58168c5ae7397731d063d5bbf3d657854427343f4c083240f7aacaa2d0f628787604051611ba6929190613970565b60405180910390a45050505050565b600073ffffffffffffffffffffffffffffffffffffffff168473ffffffffffffffffffffffffffffffffffffffff161415611c25576040517f08c379a0000000000000000000000000000000000000000000000000000000008152600401611c1c90613935565b60405180910390fd5b6000611c2f611630565b9050611c5081600087611c4188612457565b611c4a88612457565b8761227f565b8260008086815260200190815260200160002060008773ffffffffffffffffffffffffffffffffffffffff1673ffffffffffffffffffffffffffffffffffffffff1681526020019081526020016000206000828254611caf9190613b37565b925050819055508473ffffffffffffffffffffffffffffffffffffffff16600073ffffffffffffffffffffffffffffffffffffffff168273ffffffffffffffffffffffffffffffffffffffff167fc3d58168c5ae7397731d063d5bbf3d657854427343f4c083240f7aacaa2d0f628787604051611d2d929190613970565b60405180910390a4611d448160008787878761251d565b5050505050565b611d53610d39565b15611d93576040517f08c379a0000000000000000000000000000000000000000000000000000000008152600401611d8a90613835565b60405180910390fd5b6001600360006101000a81548160ff0219169083151502179055507f62e78cea01bee320cd4e420270b5ea74000d11b0c9f74754ebdbfc544b05a258611dd7611630565b604051611de491906135aa565b60405180910390a1565b8173ffffffffffffffffffffffffffffffffffffffff168373ffffffffffffffffffffffffffffffffffffffff161415611e5d576040517f08c379a0000000000000000000000000000000000000000000000000000000008152600401611e54906138d5565b60405180910390fd5b80600160008573ffffffffffffffffffffffffffffffffffffffff1673ffffffffffffffffffffffffffffffffffffffff16815260200190815260200160002060008473ffffffffffffffffffffffffffffffffffffffff1673ffffffffffffffffffffffffffffffffffffffff16815260200190815260200160002060006101000a81548160ff0219169083151502179055508173ffffffffffffffffffffffffffffffffffffffff168373ffffffffffffffffffffffffffffffffffffffff167f17307eab39ab6107e8899845ad3d59bd9653f200f220920489ca2b5937696c3183604051611f4e919061371d565b60405180910390a3505050565b600073ffffffffffffffffffffffffffffffffffffffff168473ffffffffffffffffffffffffffffffffffffffff161415611fcb576040517f08c379a0000000000000000000000000000000000000000000000000000000008152600401611fc290613855565b60405180910390fd5b6000611fd5611630565b9050611ff5818787611fe688612457565b611fef88612457565b8761227f565b600080600086815260200190815260200160002060008873ffffffffffffffffffffffffffffffffffffffff1673ffffffffffffffffffffffffffffffffffffffff1681526020019081526020016000205490508381101561208c576040517f08c379a0000000000000000000000000000000000000000000000000000000008152600401612083906138b5565b60405180910390fd5b83810360008087815260200190815260200160002060008973ffffffffffffffffffffffffffffffffffffffff1673ffffffffffffffffffffffffffffffffffffffff168152602001908152602001600020819055508360008087815260200190815260200160002060008873ffffffffffffffffffffffffffffffffffffffff1673ffffffffffffffffffffffffffffffffffffffff16815260200190815260200160002060008282546121419190613b37565b925050819055508573ffffffffffffffffffffffffffffffffffffffff168773ffffffffffffffffffffffffffffffffffffffff168373ffffffffffffffffffffffffffffffffffffffff167fc3d58168c5ae7397731d063d5bbf3d657854427343f4c083240f7aacaa2d0f6288886040516121be929190613970565b60405180910390a46121d482888888888861251d565b50505050505050565b6121e5610d39565b612224576040517f08c379a000000000000000000000000000000000000000000000000000000000815260040161221b906137b5565b60405180910390fd5b6000600360006101000a81548160ff0219169083151502179055507f5db9ee0a495bf2e6ff9c91a7834c1ba4fdd244a5e8aa4e537bd38aeae4b073aa612268611630565b60405161227591906135aa565b60405180910390a1565b505050505050565b6122a68473ffffffffffffffffffffffffffffffffffffffff166126ed565b1561244f578373ffffffffffffffffffffffffffffffffffffffff1663bc197c8187878686866040518663ffffffff1660e01b81526004016122ec9594939291906135e0565b602060405180830381600087803b15801561230657600080fd5b505af192505050801561233757506040513d601f19601f820116820180604052508101906123349190612c9f565b60015b6123c657612343613dd3565b8061234e575061238b565b806040517f08c379a00000000000000000000000000000000000000000000000000000000081526004016123829190613753565b60405180910390fd5b6040517f08c379a00000000000000000000000000000000000000000000000000000000081526004016123bd90613775565b60405180910390fd5b63bc197c8160e01b7bffffffffffffffffffffffffffffffffffffffffffffffffffffffff1916817bffffffffffffffffffffffffffffffffffffffffffffffffffffffff19161461244d576040517f08c379a000000000000000000000000000000000000000000000000000000000815260040161244490613795565b60405180910390fd5b505b505050505050565b60606000600167ffffffffffffffff81111561249c577f4e487b7100000000000000000000000000000000000000000000000000000000600052604160045260246000fd5b6040519080825280602002602001820160405280156124ca5781602001602082028036833780820191505090505b5090508281600081518110612508577f4e487b7100000000000000000000000000000000000000000000000000000000600052603260045260246000fd5b60200260200101818152505080915050919050565b61253c8473ffffffffffffffffffffffffffffffffffffffff166126ed565b156126e5578373ffffffffffffffffffffffffffffffffffffffff1663f23a6e6187878686866040518663ffffffff1660e01b8152600401612582959493929190613648565b602060405180830381600087803b15801561259c57600080fd5b505af19250505080156125cd57506040513d601f19601f820116820180604052508101906125ca9190612c9f565b60015b61265c576125d9613dd3565b806125e45750612621565b806040517f08c379a00000000000000000000000000000000000000000000000000000000081526004016126189190613753565b60405180910390fd5b6040517f08c379a000000000000000000000000000000000000000000000000000000000815260040161265390613775565b60405180910390fd5b63f23a6e6160e01b7bffffffffffffffffffffffffffffffffffffffffffffffffffffffff1916817bffffffffffffffffffffffffffffffffffffffffffffffffffffffff1916146126e3576040517f08c379a00000000000000000000000000000000000000000000000000000000081526004016126da90613795565b60405180910390fd5b505b505050505050565b600080823b905060008111915050919050565b82805461270c90613cad565b90600052602060002090601f01602090048101928261272e5760008555612775565b82601f1061274757805160ff1916838001178555612775565b82800160010185558215612775579182015b82811115612774578251825591602001919060010190612759565b5b5090506127829190612786565b5090565b5b8082111561279f576000816000905550600101612787565b5090565b60006127b66127b1846139ca565b613999565b905080838252602082019050828560208602820111156127d557600080fd5b60005b8581101561280557816127eb88826128f7565b8452602084019350602083019250506001810190506127d8565b5050509392505050565b600061282261281d846139f6565b613999565b9050808382526020820190508285602086028201111561284157600080fd5b60005b85811015612871578161285788826129f3565b845260208401935060208301925050600181019050612844565b5050509392505050565b600061288e61288984613a22565b613999565b9050828152602081018484840111156128a657600080fd5b6128b1848285613c6b565b509392505050565b60006128cc6128c784613a52565b613999565b9050828152602081018484840111156128e457600080fd5b6128ef848285613c6b565b509392505050565b60008135905061290681613e89565b92915050565b600082601f83011261291d57600080fd5b813561292d8482602086016127a3565b91505092915050565b600082601f83011261294757600080fd5b813561295784826020860161280f565b91505092915050565b60008135905061296f81613ea0565b92915050565b60008135905061298481613eb7565b92915050565b60008151905061299981613eb7565b92915050565b600082601f8301126129b057600080fd5b81356129c084826020860161287b565b91505092915050565b600082601f8301126129da57600080fd5b81356129ea8482602086016128b9565b91505092915050565b600081359050612a0281613ece565b92915050565b60008060408385031215612a1b57600080fd5b6000612a29858286016128f7565b9250506020612a3a858286016128f7565b9150509250929050565b600080600080600060a08688031215612a5c57600080fd5b6000612a6a888289016128f7565b9550506020612a7b888289016128f7565b945050604086013567ffffffffffffffff811115612a9857600080fd5b612aa488828901612936565b935050606086013567ffffffffffffffff811115612ac157600080fd5b612acd88828901612936565b925050608086013567ffffffffffffffff811115612aea57600080fd5b612af68882890161299f565b9150509295509295909350565b600080600080600060a08688031215612b1b57600080fd5b6000612b29888289016128f7565b9550506020612b3a888289016128f7565b9450506040612b4b888289016129f3565b9350506060612b5c888289016129f3565b925050608086013567ffffffffffffffff811115612b7957600080fd5b612b858882890161299f565b9150509295509295909350565b60008060408385031215612ba557600080fd5b6000612bb3858286016128f7565b9250506020612bc485828601612960565b9150509250929050565b60008060408385031215612be157600080fd5b6000612bef858286016128f7565b9250506020612c00858286016129f3565b9150509250929050565b60008060408385031215612c1d57600080fd5b600083013567ffffffffffffffff811115612c3757600080fd5b612c438582860161290c565b925050602083013567ffffffffffffffff811115612c6057600080fd5b612c6c85828601612936565b9150509250929050565b600060208284031215612c8857600080fd5b6000612c9684828501612975565b91505092915050565b600060208284031215612cb157600080fd5b6000612cbf8482850161298a565b91505092915050565b600060208284031215612cda57600080fd5b600082013567ffffffffffffffff811115612cf457600080fd5b612d00848285016129c9565b91505092915050565b600080600060608486031215612d1e57600080fd5b600084013567ffffffffffffffff811115612d3857600080fd5b612d44868287016129c9565b9350506020612d55868287016129f3565b925050604084013567ffffffffffffffff811115612d7257600080fd5b612d7e868287016129c9565b9150509250925092565b600060208284031215612d9a57600080fd5b6000612da8848285016129f3565b91505092915050565b60008060408385031215612dc457600080fd5b6000612dd2858286016129f3565b9250506020612de3858286016129f3565b9150509250929050565b6000612df98383612e2c565b60208301905092915050565b6000612e118383613575565b60208301905092915050565b612e2681613bd3565b82525050565b612e3581613bc1565b82525050565b612e4481613bc1565b82525050565b6000612e5582613aa2565b612e5f8185613ae8565b9350612e6a83613a82565b8060005b83811015612e9b578151612e828882612ded565b9750612e8d83613ace565b925050600181019050612e6e565b5085935050505092915050565b6000612eb382613aad565b612ebd8185613af9565b9350612ec883613a92565b8060005b83811015612ef9578151612ee08882612e05565b9750612eeb83613adb565b925050600181019050612ecc565b5085935050505092915050565b612f0f81613be5565b82525050565b6000612f2082613ab8565b612f2a8185613b0a565b9350612f3a818560208601613c7a565b612f4381613db5565b840191505092915050565b612f5781613c47565b82525050565b6000612f6882613ac3565b612f728185613b1b565b9350612f82818560208601613c7a565b612f8b81613db5565b840191505092915050565b6000612fa182613ac3565b612fab8185613b2c565b9350612fbb818560208601613c7a565b80840191505092915050565b6000612fd4603483613b1b565b91507f455243313135353a207472616e7366657220746f206e6f6e204552433131353560008301527f526563656976657220696d706c656d656e7465720000000000000000000000006020830152604082019050919050565b600061303a602883613b1b565b91507f455243313135353a204552433131353552656365697665722072656a6563746560008301527f6420746f6b656e730000000000000000000000000000000000000000000000006020830152604082019050919050565b60006130a0601483613b1b565b91507f5061757361626c653a206e6f74207061757365640000000000000000000000006000830152602082019050919050565b60006130e0602b83613b1b565b91507f455243313135353a2062616c616e636520717565727920666f7220746865207a60008301527f65726f20616464726573730000000000000000000000000000000000000000006020830152604082019050919050565b6000613146602483613b1b565b91507f455243313135353a206275726e20616d6f756e7420657863656564732062616c60008301527f616e6365000000000000000000000000000000000000000000000000000000006020830152604082019050919050565b60006131ac602983613b1b565b91507f455243313135353a2063616c6c6572206973206e6f74206f776e6572206e6f7260008301527f20617070726f76656400000000000000000000000000000000000000000000006020830152604082019050919050565b6000613212601083613b1b565b91507f5061757361626c653a20706175736564000000000000000000000000000000006000830152602082019050919050565b6000613252602583613b1b565b91507f455243313135353a207472616e7366657220746f20746865207a65726f20616460008301527f64726573730000000000000000000000000000000000000000000000000000006020830152604082019050919050565b60006132b8603283613b1b565b91507f455243313135353a207472616e736665722063616c6c6572206973206e6f742060008301527f6f776e6572206e6f7220617070726f76656400000000000000000000000000006020830152604082019050919050565b600061331e602383613b1b565b91507f455243313135353a206275726e2066726f6d20746865207a65726f206164647260008301527f65737300000000000000000000000000000000000000000000000000000000006020830152604082019050919050565b6000613384602a83613b1b565b91507f455243313135353a20696e73756666696369656e742062616c616e636520666f60008301527f72207472616e73666572000000000000000000000000000000000000000000006020830152604082019050919050565b60006133ea602983613b1b565b91507f455243313135353a2073657474696e6720617070726f76616c2073746174757360008301527f20666f722073656c6600000000000000000000000000000000000000000000006020830152604082019050919050565b6000613450602983613b1b565b91507f455243313135353a206163636f756e747320616e6420696473206c656e67746860008301527f206d69736d6174636800000000000000000000000000000000000000000000006020830152604082019050919050565b60006134b6602883613b1b565b91507f455243313135353a2069647320616e6420616d6f756e7473206c656e6774682060008301527f6d69736d617463680000000000000000000000000000000000000000000000006020830152604082019050919050565b600061351c602183613b1b565b91507f455243313135353a206d696e7420746f20746865207a65726f2061646472657360008301527f73000000000000000000000000000000000000000000000000000000000000006020830152604082019050919050565b61357e81613c3d565b82525050565b61358d81613c3d565b82525050565b600061359f8284612f96565b915081905092915050565b60006020820190506135bf6000830184612e3b565b92915050565b60006020820190506135da6000830184612e1d565b92915050565b600060a0820190506135f56000830188612e3b565b6136026020830187612e3b565b81810360408301526136148186612ea8565b905081810360608301526136288185612ea8565b9050818103608083015261363c8184612f15565b90509695505050505050565b600060a08201905061365d6000830188612e3b565b61366a6020830187612e3b565b6136776040830186613584565b6136846060830185613584565b81810360808301526136968184612f15565b90509695505050505050565b600060208201905081810360008301526136bc8184612e4a565b905092915050565b600060208201905081810360008301526136de8184612ea8565b905092915050565b600060408201905081810360008301526137008185612ea8565b905081810360208301526137148184612ea8565b90509392505050565b60006020820190506137326000830184612f06565b92915050565b600060208201905061374d6000830184612f4e565b92915050565b6000602082019050818103600083015261376d8184612f5d565b905092915050565b6000602082019050818103600083015261378e81612fc7565b9050919050565b600060208201905081810360008301526137ae8161302d565b9050919050565b600060208201905081810360008301526137ce81613093565b9050919050565b600060208201905081810360008301526137ee816130d3565b9050919050565b6000602082019050818103600083015261380e81613139565b9050919050565b6000602082019050818103600083015261382e8161319f565b9050919050565b6000602082019050818103600083015261384e81613205565b9050919050565b6000602082019050818103600083015261386e81613245565b9050919050565b6000602082019050818103600083015261388e816132ab565b9050919050565b600060208201905081810360008301526138ae81613311565b9050919050565b600060208201905081810360008301526138ce81613377565b9050919050565b600060208201905081810360008301526138ee816133dd565b9050919050565b6000602082019050818103600083015261390e81613443565b9050919050565b6000602082019050818103600083015261392e816134a9565b9050919050565b6000602082019050818103600083015261394e8161350f565b9050919050565b600060208201905061396a6000830184613584565b92915050565b60006040820190506139856000830185613584565b6139926020830184613584565b9392505050565b6000604051905081810181811067ffffffffffffffff821117156139c0576139bf613d86565b5b8060405250919050565b600067ffffffffffffffff8211156139e5576139e4613d86565b5b602082029050602081019050919050565b600067ffffffffffffffff821115613a1157613a10613d86565b5b602082029050602081019050919050565b600067ffffffffffffffff821115613a3d57613a3c613d86565b5b601f19601f8301169050602081019050919050565b600067ffffffffffffffff821115613a6d57613a6c613d86565b5b601f19601f8301169050602081019050919050565b6000819050602082019050919050565b6000819050602082019050919050565b600081519050919050565b600081519050919050565b600081519050919050565b600081519050919050565b6000602082019050919050565b6000602082019050919050565b600082825260208201905092915050565b600082825260208201905092915050565b600082825260208201905092915050565b600082825260208201905092915050565b600081905092915050565b6000613b4282613c3d565b9150613b4d83613c3d565b9250827fffffffffffffffffffffffffffffffffffffffffffffffffffffffffffffffff03821115613b8257613b81613d28565b5b828201905092915050565b6000613b9882613c3d565b9150613ba383613c3d565b925082821015613bb657613bb5613d28565b5b828203905092915050565b6000613bcc82613c1d565b9050919050565b6000613bde82613c1d565b9050919050565b60008115159050919050565b60007fffffffff0000000000000000000000000000000000000000000000000000000082169050919050565b600073ffffffffffffffffffffffffffffffffffffffff82169050919050565b6000819050919050565b6000613c5282613c59565b9050919050565b6000613c6482613c1d565b9050919050565b82818337600083830152505050565b60005b83811015613c98578082015181840152602081019050613c7d565b83811115613ca7576000848401525b50505050565b60006002820490506001821680613cc557607f821691505b60208210811415613cd957613cd8613d57565b5b50919050565b6000613cea82613c3d565b91507fffffffffffffffffffffffffffffffffffffffffffffffffffffffffffffffff821415613d1d57613d1c613d28565b5b600182019050919050565b7f4e487b7100000000000000000000000000000000000000000000000000000000600052601160045260246000fd5b7f4e487b7100000000000000000000000000000000000000000000000000000000600052602260045260246000fd5b7f4e487b7100000000000000000000000000000000000000000000000000000000600052604160045260246000fd5b6000601f19601f8301169050919050565b60008160e01c9050919050565b600060443d1015613de357613e86565b60046000803e613df4600051613dc6565b6308c379a08114613e055750613e86565b60405160043d036004823e80513d602482011167ffffffffffffffff82111715613e3157505050613e86565b808201805167ffffffffffffffff811115613e50575050505050613e86565b8060208301013d8501811115613e6b57505050505050613e86565b613e7482613db5565b60208401016040528296505050505050505b90565b613e9281613bc1565b8114613e9d57600080fd5b50565b613ea981613be5565b8114613eb457600080fd5b50565b613ec081613bf1565b8114613ecb57600080fd5b50565b613ed781613c3d565b8114613ee257600080fd5b5056fea2646970667358221220f790b885795071de78aed3c183e271df1ca8cdee2388ef3d28cdb93e96116c6764736f6c63430008000033",
  "immutableReferences": {},
  "source": "// SPDX-License-Identifier: MIT\r\n\r\npragma solidity ^0.8.0;\r\nimport \"@openzeppelin/contracts/token/ERC1155/ERC1155.sol\";\r\nimport \"@openzeppelin/contracts/security/Pausable.sol\";\r\n\r\ninterface UsdcToken {\r\n    function balanceOf(address tokenOwner) external view returns (uint balance);\r\n    function transfer(address to, uint tokens) external returns (bool success);\r\n    function transferFrom(address from, address to, uint tokens) external returns (bool success);\r\n    function approve(address spender, uint tokens) external returns (bool success);\r\n    function allowance(address tokenOwner, address spender) external view returns (uint remaining);\r\n}\r\n\r\ncontract ToknFactory is ERC1155, Pausable{\r\n  \r\n    address payable public deployer;\r\n    uint public toknId;\r\n\r\n    // totalSupplies for every token\r\n    mapping(uint => uint) public totalSupplies;\r\n    mapping(uint => uint) public toknsAvailable;\r\n    // maps token id to metadata uri\r\n    mapping(uint => string) public toknIdToURI;\r\n\r\n    mapping(string => uint) public symbolToId;\r\n    \r\n    //maps artist to his investor token\r\n    mapping(address => uint[]) public artistTokns;\r\n    mapping(uint => address) public toknIdToArtist;\r\n   \r\n    // mapping(address => uint[]) public nftBalances;\r\n    mapping(uint => address[]) public addressTracker;\r\n\r\n    UsdcToken public usdc;\r\n    \r\n    constructor(string memory _platformURI) ERC1155(_platformURI){\r\n      deployer = payable(msg.sender);\r\n      usdc = UsdcToken(0x4DBCdF9B62e891a7cec5A2568C3F4FAF9E8Abe2b); //Rinkeby usdc address\r\n    }\r\n    \r\n    modifier isToknOwner(uint _id, address _addr){\r\n        require (toknIdToArtist[_id] == _addr);\r\n        _;\r\n    }\r\n    \r\n    //lets artist create his investor token\r\n    function createInvestorTokns(string memory _symbol, uint _amount, string memory _uri) public whenNotPaused{\r\n        toknIdToArtist[++toknId] = msg.sender;\r\n        symbolToId[_symbol] = toknId;\r\n        artistTokns[msg.sender].push(toknId);\r\n        toknIdToURI[toknId] = _uri;\r\n        mintInvestorTokns(_amount, toknId);    \r\n    }\r\n    \r\n    //lets artists mint more of his investor tokens\r\n    function mintInvestorTokns(uint _amount, uint _toknId) public isToknOwner(_toknId, msg.sender) whenNotPaused{\r\n        _mint(msg.sender, _toknId, _amount, bytes(toknIdToURI[_toknId]));\r\n        totalSupplies[_toknId] += _amount;\r\n        toknsAvailable[_toknId] += _amount;\r\n    }\r\n    \r\n    \r\n    function burnInvestorTokns(uint _amount, uint _toknId) public isToknOwner(_toknId, msg.sender) whenNotPaused{\r\n        _burn(msg.sender, _toknId, _amount);\r\n        totalSupplies[_toknId] -= _amount;\r\n        toknsAvailable[_toknId] -= _amount;\r\n    }    \r\n    \r\n    function returnAddressesForTokn(uint _id) public view returns(address[] memory){\r\n        return addressTracker[_id];\r\n    }\r\n    \r\n    function safeTransferFrom(\r\n        address from,\r\n        address to,\r\n        uint256 id,\r\n        uint256 amount,\r\n        bytes memory data\r\n    ) public override (ERC1155) whenNotPaused {\r\n        require(\r\n            from == _msgSender() || isApprovedForAll(from, _msgSender()),\r\n            \"ERC1155: caller is not owner nor approved\"\r\n        );\r\n        _safeTransferFrom(from, to, id, amount, data);\r\n        if(balanceOf(from, id) == 0){\r\n            for(uint i = 0; i < addressTracker[id].length; ++i){\r\n                if(addressTracker[id][i] == from){\r\n                    delete addressTracker[id][i];\r\n                }\r\n            }\r\n        }\r\n        for(uint i = 0; i < addressTracker[id].length; ++i){\r\n            if(addressTracker[id][i] == to){\r\n                return;\r\n            }\r\n        }\r\n        addressTracker[id].push(to);\r\n    }\r\n\r\n    function pause() public {\r\n        require(msg.sender == deployer);\r\n        _pause();\r\n    }\r\n\r\n    function unPause() public {\r\n        require(msg.sender == deployer);\r\n        _unpause();\r\n    }\r\n}",
  "sourcePath": "C:\\Users\\sj931\\OneDrive\\Desktop\\Tokn\\alpha\\Tokn-alpha\\Alpha-Contracts\\contracts\\ToknFactory.sol",
  "compiler": {
    "name": "solc",
    "version": "0.8.0+commit.c7dfd78e.Emscripten.clang"
  },
  "schemaVersion": "3.4.3",
  "updatedAt": "2022-02-01T17:25:54.845Z",
  "networkType": "ethereum",
  "devdoc": {
    "kind": "dev",
    "methods": {
      "balanceOf(address,uint256)": {
        "details": "See {IERC1155-balanceOf}. Requirements: - `account` cannot be the zero address."
      },
      "balanceOfBatch(address[],uint256[])": {
        "details": "See {IERC1155-balanceOfBatch}. Requirements: - `accounts` and `ids` must have the same length."
      },
      "isApprovedForAll(address,address)": {
        "details": "See {IERC1155-isApprovedForAll}."
      },
      "paused()": {
        "details": "Returns true if the contract is paused, and false otherwise."
      },
      "safeBatchTransferFrom(address,address,uint256[],uint256[],bytes)": {
        "details": "See {IERC1155-safeBatchTransferFrom}."
      },
      "safeTransferFrom(address,address,uint256,uint256,bytes)": {
        "details": "See {IERC1155-safeTransferFrom}."
      },
      "setApprovalForAll(address,bool)": {
        "details": "See {IERC1155-setApprovalForAll}."
      },
      "supportsInterface(bytes4)": {
        "details": "See {IERC165-supportsInterface}."
      },
      "uri(uint256)": {
        "details": "See {IERC1155MetadataURI-uri}. This implementation returns the same URI for *all* token types. It relies on the token type ID substitution mechanism https://eips.ethereum.org/EIPS/eip-1155#metadata[defined in the EIP]. Clients calling this function must replace the `\\{id\\}` substring with the actual token type ID."
      }
    },
    "version": 1
  },
  "userdoc": {
    "kind": "user",
    "methods": {},
    "version": 1
  }
}