{
  "contractName": "ToknITO",
  "abi": [
    {
      "inputs": [
        {
          "internalType": "contract ToknFactory",
          "name": "_toknFactory",
          "type": "address"
        },
        {
          "internalType": "contract UsdcToken",
          "name": "_usdc",
          "type": "address"
        }
      ],
      "stateMutability": "nonpayable",
      "type": "constructor"
    },
    {
      "anonymous": false,
      "inputs": [
        {
          "indexed": false,
          "internalType": "address",
          "name": "account",
          "type": "address"
        }
      ],
      "name": "Paused",
      "type": "event"
    },
    {
      "anonymous": false,
      "inputs": [
        {
          "indexed": false,
          "internalType": "address",
          "name": "account",
          "type": "address"
        }
      ],
      "name": "Unpaused",
      "type": "event"
    },
    {
      "inputs": [
        {
          "internalType": "uint256",
          "name": "",
          "type": "uint256"
        }
      ],
      "name": "artistList",
      "outputs": [
        {
          "internalType": "address",
          "name": "",
          "type": "address"
        }
      ],
      "stateMutability": "view",
      "type": "function",
      "constant": true
    },
    {
      "inputs": [
        {
          "internalType": "address",
          "name": "",
          "type": "address"
        }
      ],
      "name": "artistTracker",
      "outputs": [
        {
          "internalType": "uint256",
          "name": "",
          "type": "uint256"
        }
      ],
      "stateMutability": "view",
      "type": "function",
      "constant": true
    },
    {
      "inputs": [
        {
          "internalType": "uint256",
          "name": "",
          "type": "uint256"
        },
        {
          "internalType": "address",
          "name": "",
          "type": "address"
        }
      ],
      "name": "bookedTokns",
      "outputs": [
        {
          "internalType": "uint256",
          "name": "",
          "type": "uint256"
        }
      ],
      "stateMutability": "view",
      "type": "function",
      "constant": true
    },
    {
      "inputs": [
        {
          "internalType": "address",
          "name": "",
          "type": "address"
        }
      ],
      "name": "hasPaid",
      "outputs": [
        {
          "internalType": "bool",
          "name": "",
          "type": "bool"
        }
      ],
      "stateMutability": "view",
      "type": "function",
      "constant": true
    },
    {
      "inputs": [],
      "name": "paused",
      "outputs": [
        {
          "internalType": "bool",
          "name": "",
          "type": "bool"
        }
      ],
      "stateMutability": "view",
      "type": "function",
      "constant": true
    },
    {
      "inputs": [],
      "name": "toknFactory",
      "outputs": [
        {
          "internalType": "contract ToknFactory",
          "name": "",
          "type": "address"
        }
      ],
      "stateMutability": "view",
      "type": "function",
      "constant": true
    },
    {
      "inputs": [
        {
          "internalType": "uint256",
          "name": "",
          "type": "uint256"
        }
      ],
      "name": "toknITOs",
      "outputs": [
        {
          "internalType": "uint256",
          "name": "toknsAvailable",
          "type": "uint256"
        },
        {
          "internalType": "uint256",
          "name": "price",
          "type": "uint256"
        },
        {
          "internalType": "enum ToknITO.State",
          "name": "itoState",
          "type": "uint8"
        }
      ],
      "stateMutability": "view",
      "type": "function",
      "constant": true
    },
    {
      "inputs": [],
      "name": "treasury",
      "outputs": [
        {
          "internalType": "address payable",
          "name": "",
          "type": "address"
        }
      ],
      "stateMutability": "view",
      "type": "function",
      "constant": true
    },
    {
      "inputs": [],
      "name": "treasuryPercentage",
      "outputs": [
        {
          "internalType": "uint256",
          "name": "",
          "type": "uint256"
        }
      ],
      "stateMutability": "view",
      "type": "function",
      "constant": true
    },
    {
      "inputs": [],
      "name": "usdc",
      "outputs": [
        {
          "internalType": "contract UsdcToken",
          "name": "",
          "type": "address"
        }
      ],
      "stateMutability": "view",
      "type": "function",
      "constant": true
    },
    {
      "inputs": [
        {
          "internalType": "uint256",
          "name": "",
          "type": "uint256"
        }
      ],
      "name": "userList",
      "outputs": [
        {
          "internalType": "address",
          "name": "",
          "type": "address"
        }
      ],
      "stateMutability": "view",
      "type": "function",
      "constant": true
    },
    {
      "inputs": [
        {
          "internalType": "address",
          "name": "",
          "type": "address"
        }
      ],
      "name": "userTracker",
      "outputs": [
        {
          "internalType": "uint256",
          "name": "",
          "type": "uint256"
        }
      ],
      "stateMutability": "view",
      "type": "function",
      "constant": true
    },
    {
      "inputs": [
        {
          "internalType": "uint256",
          "name": "_pc",
          "type": "uint256"
        }
      ],
      "name": "setTreasuryPercentage",
      "outputs": [],
      "stateMutability": "nonpayable",
      "type": "function"
    },
    {
      "inputs": [
        {
          "internalType": "address",
          "name": "_treasury",
          "type": "address"
        }
      ],
      "name": "setTreasury",
      "outputs": [],
      "stateMutability": "nonpayable",
      "type": "function"
    },
    {
      "inputs": [],
      "name": "getUsersCount",
      "outputs": [
        {
          "internalType": "uint256",
          "name": "",
          "type": "uint256"
        }
      ],
      "stateMutability": "view",
      "type": "function",
      "constant": true
    },
    {
      "inputs": [
        {
          "internalType": "uint256",
          "name": "_id",
          "type": "uint256"
        },
        {
          "internalType": "uint256",
          "name": "_price",
          "type": "uint256"
        }
      ],
      "name": "setToknPrice",
      "outputs": [],
      "stateMutability": "nonpayable",
      "type": "function"
    },
    {
      "inputs": [
        {
          "internalType": "uint256",
          "name": "_id",
          "type": "uint256"
        }
      ],
      "name": "startITO",
      "outputs": [],
      "stateMutability": "nonpayable",
      "type": "function"
    },
    {
      "inputs": [
        {
          "internalType": "uint256",
          "name": "_id",
          "type": "uint256"
        }
      ],
      "name": "stopITO",
      "outputs": [],
      "stateMutability": "nonpayable",
      "type": "function"
    },
    {
      "inputs": [
        {
          "internalType": "uint256",
          "name": "_id",
          "type": "uint256"
        }
      ],
      "name": "getCurrentState",
      "outputs": [
        {
          "internalType": "enum ToknITO.State",
          "name": "",
          "type": "uint8"
        }
      ],
      "stateMutability": "view",
      "type": "function",
      "constant": true
    },
    {
      "inputs": [
        {
          "internalType": "uint256",
          "name": "_id",
          "type": "uint256"
        }
      ],
      "name": "getITO",
      "outputs": [
        {
          "components": [
            {
              "internalType": "uint256",
              "name": "toknsAvailable",
              "type": "uint256"
            },
            {
              "internalType": "uint256",
              "name": "price",
              "type": "uint256"
            },
            {
              "internalType": "address[]",
              "name": "investors",
              "type": "address[]"
            },
            {
              "internalType": "enum ToknITO.State",
              "name": "itoState",
              "type": "uint8"
            }
          ],
          "internalType": "struct ToknITO.ITOConfig",
          "name": "",
          "type": "tuple"
        }
      ],
      "stateMutability": "view",
      "type": "function",
      "constant": true
    },
    {
      "inputs": [
        {
          "internalType": "uint256",
          "name": "_id",
          "type": "uint256"
        },
        {
          "internalType": "uint256",
          "name": "_qty",
          "type": "uint256"
        }
      ],
      "name": "investFixedPrice",
      "outputs": [],
      "stateMutability": "nonpayable",
      "type": "function"
    },
    {
      "inputs": [
        {
          "internalType": "address",
          "name": "_user",
          "type": "address"
        },
        {
          "internalType": "uint256",
          "name": "_id",
          "type": "uint256"
        },
        {
          "internalType": "uint256",
          "name": "_amount",
          "type": "uint256"
        }
      ],
      "name": "bookTokensForUser",
      "outputs": [],
      "stateMutability": "nonpayable",
      "type": "function"
    },
    {
      "inputs": [
        {
          "internalType": "address[]",
          "name": "_users",
          "type": "address[]"
        },
        {
          "internalType": "uint256",
          "name": "_id",
          "type": "uint256"
        },
        {
          "internalType": "uint256[]",
          "name": "_amounts",
          "type": "uint256[]"
        }
      ],
      "name": "bookTokensForUsers",
      "outputs": [],
      "stateMutability": "nonpayable",
      "type": "function"
    },
    {
      "inputs": [
        {
          "internalType": "uint256",
          "name": "_id",
          "type": "uint256"
        }
      ],
      "name": "allocateFixedPrice",
      "outputs": [],
      "stateMutability": "nonpayable",
      "type": "function"
    },
    {
      "inputs": [
        {
          "internalType": "address",
          "name": "_investor",
          "type": "address"
        },
        {
          "internalType": "uint256",
          "name": "_id",
          "type": "uint256"
        }
      ],
      "name": "getBookedToknsFor",
      "outputs": [
        {
          "internalType": "uint256",
          "name": "",
          "type": "uint256"
        }
      ],
      "stateMutability": "view",
      "type": "function",
      "constant": true
    },
    {
      "inputs": [],
      "name": "pause",
      "outputs": [],
      "stateMutability": "nonpayable",
      "type": "function"
    },
    {
      "inputs": [],
      "name": "unPause",
      "outputs": [],
      "stateMutability": "nonpayable",
      "type": "function"
    }
  ],
  "bytecode": "0x6080604052600d6003553480156200001657600080fd5b50604051620039503803806200395083398181016040528101906200003c91906200014f565b60008060006101000a81548160ff02191690831515021790555081600060016101000a81548173ffffffffffffffffffffffffffffffffffffffff021916908373ffffffffffffffffffffffffffffffffffffffff16021790555080600160006101000a81548173ffffffffffffffffffffffffffffffffffffffff021916908373ffffffffffffffffffffffffffffffffffffffff16021790555033600260006101000a81548173ffffffffffffffffffffffffffffffffffffffff021916908373ffffffffffffffffffffffffffffffffffffffff160217905550505062000220565b6000815190506200013281620001ec565b92915050565b600081519050620001498162000206565b92915050565b600080604083850312156200016357600080fd5b6000620001738582860162000121565b9250506020620001868582860162000138565b9150509250929050565b60006200019d82620001cc565b9050919050565b6000620001b18262000190565b9050919050565b6000620001c58262000190565b9050919050565b600073ffffffffffffffffffffffffffffffffffffffff82169050919050565b620001f781620001a4565b81146200020357600080fd5b50565b6200021181620001b8565b81146200021d57600080fd5b50565b61372080620002306000396000f3fe608060405234801561001057600080fd5b50600436106101a95760003560e01c80638456cb59116100f9578063b40573f611610097578063f0f4426011610071578063f0f44260146104e2578063f24748d9146104fe578063f7b188a51461051a578063fbf47a9a14610524576101a9565b8063b40573f61461047a578063b795191014610496578063e9fb274c146104c6576101a9565b80639e4baa3d116100d35780639e4baa3d146103e05780639f4216e8146103fc578063a4a1e2631461042c578063a8e361b21461044a576101a9565b80638456cb5914610374578063926e98021461037e57806399f8c889146103ae576101a9565b80635697b4d51161016657806361d027b31161014057806361d027b3146102ea578063671d60061461030857806375f09088146103265780637ab5608314610356576101a9565b80635697b4d5146102805780635748c1301461029c5780635c975abb146102cc576101a9565b8063113a169c146101ae57806311c2e55d146101ca57806312d4ed4f146101e6578063398eebf0146102165780633e413bee146102325780634d70417114610250575b600080fd5b6101c860048036038101906101c39190612e4c565b610554565b005b6101e460048036038101906101df9190612dbe565b6106b8565b005b61020060048036038101906101fb9190612e10565b61086f565b60405161020d91906132e5565b60405180910390f35b610230600480360381019061022b9190612dbe565b610894565b005b61023a610fb8565b604051610247919061322d565b60405180910390f35b61026a60048036038101906102659190612c81565b610fde565b60405161027791906132e5565b60405180910390f35b61029a60048036038101906102959190612e4c565b611039565b005b6102b660048036038101906102b19190612dbe565b611355565b6040516102c39190613248565b60405180910390f35b6102d4611382565b6040516102e191906131f7565b60405180910390f35b6102f2611398565b6040516102ff91906130fb565b60405180910390f35b6103106113be565b60405161031d9190613212565b60405180910390f35b610340600480360381019061033b9190612c06565b6113e4565b60405161034d91906132e5565b60405180910390f35b61035e6113fc565b60405161036b91906132e5565b60405180910390f35b61037c611402565b005b61039860048036038101906103939190612c06565b6114e3565b6040516103a591906132e5565b60405180910390f35b6103c860048036038101906103c39190612dbe565b6114fb565b6040516103d793929190613300565b60405180910390f35b6103fa60048036038101906103f59190612cbd565b611532565b005b61041660048036038101906104119190612dbe565b61181f565b60405161042391906130e0565b60405180910390f35b61043461185e565b60405161044191906132e5565b60405180910390f35b610464600480360381019061045f9190612dbe565b61186b565b60405161047191906130e0565b60405180910390f35b610494600480360381019061048f9190612dbe565b6118aa565b005b6104b060048036038101906104ab9190612dbe565b611b25565b6040516104bd91906132c3565b60405180910390f35b6104e060048036038101906104db9190612dbe565b611c7b565b005b6104fc60048036038101906104f79190612c06565b611eac565b005b61051860048036038101906105139190612d0c565b61209d565b005b61052261252f565b005b61053e60048036038101906105399190612c06565b612610565b60405161054b91906131f7565b60405180910390f35b61055c611382565b1561059c576040517f08c379a000000000000000000000000000000000000000000000000000000000815260040161059390613283565b60405180910390fd5b3373ffffffffffffffffffffffffffffffffffffffff16600060019054906101000a900473ffffffffffffffffffffffffffffffffffffffff1673ffffffffffffffffffffffffffffffffffffffff1663e6253d40846040518263ffffffff1660e01b815260040161060e91906132e5565b60206040518083038186803b15801561062657600080fd5b505afa15801561063a573d6000803e3d6000fd5b505050506040513d601f19601f8201168201806040525081019061065e9190612c2f565b73ffffffffffffffffffffffffffffffffffffffff16148015610682575060008114155b61068b57600080fd5b620f42408161069a9190613419565b60056000848152602001908152602001600020600101819055505050565b6106c0611382565b15610700576040517f08c379a00000000000000000000000000000000000000000000000000000000081526004016106f790613283565b60405180910390fd5b600260009054906101000a900473ffffffffffffffffffffffffffffffffffffffff1673ffffffffffffffffffffffffffffffffffffffff163373ffffffffffffffffffffffffffffffffffffffff1614806108265750600060019054906101000a900473ffffffffffffffffffffffffffffffffffffffff1673ffffffffffffffffffffffffffffffffffffffff1663d5f394886040518163ffffffff1660e01b815260040160206040518083038186803b1580156107bf57600080fd5b505afa1580156107d3573d6000803e3d6000fd5b505050506040513d601f19601f820116820180604052508101906107f79190612c58565b73ffffffffffffffffffffffffffffffffffffffff163373ffffffffffffffffffffffffffffffffffffffff16145b610865576040517f08c379a000000000000000000000000000000000000000000000000000000000815260040161085c906132a3565b60405180910390fd5b8060038190555050565b6004602052816000526040600020602052806000526040600020600091509150505481565b61089c611382565b156108dc576040517f08c379a00000000000000000000000000000000000000000000000000000000081526004016108d390613283565b60405180910390fd5b3373ffffffffffffffffffffffffffffffffffffffff16600060019054906101000a900473ffffffffffffffffffffffffffffffffffffffff1673ffffffffffffffffffffffffffffffffffffffff1663e6253d40836040518263ffffffff1660e01b815260040161094e91906132e5565b60206040518083038186803b15801561096657600080fd5b505afa15801561097a573d6000803e3d6000fd5b505050506040513d601f19601f8201168201806040525081019061099e9190612c2f565b73ffffffffffffffffffffffffffffffffffffffff16146109be57600080fd5b6003808111156109f7577f4e487b7100000000000000000000000000000000000000000000000000000000600052602160045260246000fd5b6005600083815260200190815260200160002060030160009054906101000a900460ff166003811115610a53577f4e487b7100000000000000000000000000000000000000000000000000000000600052602160045260246000fd5b14610a5d57600080fd5b600060056000838152602001908152602001600020600201805480602002602001604051908101604052809291908181526020018280548015610af557602002820191906000526020600020905b8160009054906101000a900473ffffffffffffffffffffffffffffffffffffffff1673ffffffffffffffffffffffffffffffffffffffff1681526020019060010190808311610aab575b5050505050905060005b8151811015610fb357600060019054906101000a900473ffffffffffffffffffffffffffffffffffffffff1673ffffffffffffffffffffffffffffffffffffffff1663f242432a33848481518110610b80577f4e487b7100000000000000000000000000000000000000000000000000000000600052603260045260246000fd5b602002602001015186600460008981526020019081526020016000206000888881518110610bd7577f4e487b7100000000000000000000000000000000000000000000000000000000600052603260045260246000fd5b602002602001015173ffffffffffffffffffffffffffffffffffffffff1673ffffffffffffffffffffffffffffffffffffffff168152602001908152602001600020546040518563ffffffff1660e01b8152600401610c399493929190613176565b600060405180830381600087803b158015610c5357600080fd5b505af1158015610c67573d6000803e3d6000fd5b505050506000600460008581526020019081526020016000206000848481518110610cbb577f4e487b7100000000000000000000000000000000000000000000000000000000600052603260045260246000fd5b602002602001015173ffffffffffffffffffffffffffffffffffffffff1673ffffffffffffffffffffffffffffffffffffffff168152602001908152602001600020546005600086815260200190815260200160002060010154610d1f9190613419565b90506000606460035483610d339190613419565b610d3d91906133e8565b905060086000858581518110610d7c577f4e487b7100000000000000000000000000000000000000000000000000000000600052603260045260246000fd5b602002602001015173ffffffffffffffffffffffffffffffffffffffff1673ffffffffffffffffffffffffffffffffffffffff16815260200190815260200160002060009054906101000a900460ff16610f5357600160009054906101000a900473ffffffffffffffffffffffffffffffffffffffff1673ffffffffffffffffffffffffffffffffffffffff1663a9059cbb600260009054906101000a900473ffffffffffffffffffffffffffffffffffffffff16836040518363ffffffff1660e01b8152600401610e4f929190613116565b602060405180830381600087803b158015610e6957600080fd5b505af1158015610e7d573d6000803e3d6000fd5b505050506040513d601f19601f82011682018060405250810190610ea19190612d95565b50600160009054906101000a900473ffffffffffffffffffffffffffffffffffffffff1673ffffffffffffffffffffffffffffffffffffffff1663a9059cbb33846040518363ffffffff1660e01b8152600401610eff9291906131ce565b602060405180830381600087803b158015610f1957600080fd5b505af1158015610f2d573d6000803e3d6000fd5b505050506040513d601f19601f82011682018060405250810190610f519190612d95565b505b610f9e85858581518110610f90577f4e487b7100000000000000000000000000000000000000000000000000000000600052603260045260246000fd5b602002602001015184612630565b50508080610fab906135a4565b915050610aff565b505050565b600160009054906101000a900473ffffffffffffffffffffffffffffffffffffffff1681565b60006004600083815260200190815260200160002060008473ffffffffffffffffffffffffffffffffffffffff1673ffffffffffffffffffffffffffffffffffffffff16815260200190815260200160002054905092915050565b611041611382565b15611081576040517f08c379a000000000000000000000000000000000000000000000000000000000815260040161107890613283565b60405180910390fd5b6005600083815260200190815260200160002060000154811115801561113a5750600160038111156110dc577f4e487b7100000000000000000000000000000000000000000000000000000000600052602160045260246000fd5b6005600084815260200190815260200160002060030160009054906101000a900460ff166003811115611138577f4e487b7100000000000000000000000000000000000000000000000000000000600052602160045260246000fd5b145b61114357600080fd5b60006005600084815260200190815260200160002060010154826111679190613419565b9050600060646003548361117b9190613419565b61118591906133e8565b9050600160009054906101000a900473ffffffffffffffffffffffffffffffffffffffff1673ffffffffffffffffffffffffffffffffffffffff166323b872dd333084866111d39190613392565b6040518463ffffffff1660e01b81526004016111f19392919061313f565b602060405180830381600087803b15801561120b57600080fd5b505af115801561121f573d6000803e3d6000fd5b505050506040513d601f19601f820116820180604052508101906112439190612d95565b508260056000868152602001908152602001600020600001600082825461126a9190613473565b9250508190555060056000858152602001908152602001600020600201339080600181540180825580915050600190039060005260206000200160009091909190916101000a81548173ffffffffffffffffffffffffffffffffffffffff021916908373ffffffffffffffffffffffffffffffffffffffff160217905550826004600086815260200190815260200160002060003373ffffffffffffffffffffffffffffffffffffffff1673ffffffffffffffffffffffffffffffffffffffff16815260200190815260200160002060008282546113489190613392565b9250508190555050505050565b60006005600083815260200190815260200160002060030160009054906101000a900460ff169050919050565b60008060009054906101000a900460ff16905090565b600260009054906101000a900473ffffffffffffffffffffffffffffffffffffffff1681565b600060019054906101000a900473ffffffffffffffffffffffffffffffffffffffff1681565b60066020528060005260406000206000915090505481565b60035481565b600060019054906101000a900473ffffffffffffffffffffffffffffffffffffffff1673ffffffffffffffffffffffffffffffffffffffff1663d5f394886040518163ffffffff1660e01b815260040160206040518083038186803b15801561146a57600080fd5b505afa15801561147e573d6000803e3d6000fd5b505050506040513d601f19601f820116820180604052508101906114a29190612c58565b73ffffffffffffffffffffffffffffffffffffffff163373ffffffffffffffffffffffffffffffffffffffff16146114d957600080fd5b6114e1612930565b565b60076020528060005260406000206000915090505481565b60056020528060005260406000206000915090508060000154908060010154908060030160009054906101000a900460ff16905083565b61153a611382565b1561157a576040517f08c379a000000000000000000000000000000000000000000000000000000000815260040161157190613283565b60405180910390fd5b600060019054906101000a900473ffffffffffffffffffffffffffffffffffffffff1673ffffffffffffffffffffffffffffffffffffffff1663d5f394886040518163ffffffff1660e01b815260040160206040518083038186803b1580156115e257600080fd5b505afa1580156115f6573d6000803e3d6000fd5b505050506040513d601f19601f8201168201806040525081019061161a9190612c58565b73ffffffffffffffffffffffffffffffffffffffff163373ffffffffffffffffffffffffffffffffffffffff161461165157600080fd5b6000600560008481526020019081526020016000206001015490506000600354606461167d9190613392565b60648461168a9190613419565b61169491906133e8565b9050600082620f4240836116a89190613419565b6116b291906133e8565b9050806005600087815260200190815260200160002060000160008282546116da9190613473565b9250508190555060056000868152602001908152602001600020600201869080600181540180825580915050600190039060005260206000200160009091909190916101000a81548173ffffffffffffffffffffffffffffffffffffffff021916908373ffffffffffffffffffffffffffffffffffffffff160217905550806004600087815260200190815260200160002060008873ffffffffffffffffffffffffffffffffffffffff1673ffffffffffffffffffffffffffffffffffffffff16815260200190815260200160002060008282546117b89190613392565b925050819055506001600860008873ffffffffffffffffffffffffffffffffffffffff1673ffffffffffffffffffffffffffffffffffffffff16815260200190815260200160002060006101000a81548160ff021916908315150217905550505050505050565b600a818154811061182f57600080fd5b906000526020600020016000915054906101000a900473ffffffffffffffffffffffffffffffffffffffff1681565b6000600a80549050905090565b6009818154811061187b57600080fd5b906000526020600020016000915054906101000a900473ffffffffffffffffffffffffffffffffffffffff1681565b6118b2611382565b156118f2576040517f08c379a00000000000000000000000000000000000000000000000000000000081526004016118e990613283565b60405180910390fd5b3373ffffffffffffffffffffffffffffffffffffffff16600060019054906101000a900473ffffffffffffffffffffffffffffffffffffffff1673ffffffffffffffffffffffffffffffffffffffff1663e6253d40836040518263ffffffff1660e01b815260040161196491906132e5565b60206040518083038186803b15801561197c57600080fd5b505afa158015611990573d6000803e3d6000fd5b505050506040513d601f19601f820116820180604052508101906119b49190612c2f565b73ffffffffffffffffffffffffffffffffffffffff161480156119ee57506000600560008381526020019081526020016000206001015414155b6119f757600080fd5b60016005600083815260200190815260200160002060030160006101000a81548160ff02191690836003811115611a57577f4e487b7100000000000000000000000000000000000000000000000000000000600052602160045260246000fd5b0217905550600060019054906101000a900473ffffffffffffffffffffffffffffffffffffffff1673ffffffffffffffffffffffffffffffffffffffff1662fdd58e33836040518363ffffffff1660e01b8152600401611ab89291906131ce565b60206040518083038186803b158015611ad057600080fd5b505afa158015611ae4573d6000803e3d6000fd5b505050506040513d601f19601f82011682018060405250810190611b089190612de7565b600560008381526020019081526020016000206000018190555050565b611b2d612a94565b60056000838152602001908152602001600020604051806080016040529081600082015481526020016001820154815260200160028201805480602002602001604051908101604052809291908181526020018280548015611be457602002820191906000526020600020905b8160009054906101000a900473ffffffffffffffffffffffffffffffffffffffff1673ffffffffffffffffffffffffffffffffffffffff1681526020019060010190808311611b9a575b505050505081526020016003820160009054906101000a900460ff166003811115611c38577f4e487b7100000000000000000000000000000000000000000000000000000000600052602160045260246000fd5b6003811115611c70577f4e487b7100000000000000000000000000000000000000000000000000000000600052602160045260246000fd5b815250509050919050565b611c83611382565b15611cc3576040517f08c379a0000000000000000000000000000000000000000000000000000000008152600401611cba90613283565b60405180910390fd5b3373ffffffffffffffffffffffffffffffffffffffff16600060019054906101000a900473ffffffffffffffffffffffffffffffffffffffff1673ffffffffffffffffffffffffffffffffffffffff1663e6253d40836040518263ffffffff1660e01b8152600401611d3591906132e5565b60206040518083038186803b158015611d4d57600080fd5b505afa158015611d61573d6000803e3d6000fd5b505050506040513d601f19601f82011682018060405250810190611d859190612c2f565b73ffffffffffffffffffffffffffffffffffffffff16148015611e3b575060016003811115611ddd577f4e487b7100000000000000000000000000000000000000000000000000000000600052602160045260246000fd5b6005600083815260200190815260200160002060030160009054906101000a900460ff166003811115611e39577f4e487b7100000000000000000000000000000000000000000000000000000000600052602160045260246000fd5b145b611e4457600080fd5b60036005600083815260200190815260200160002060030160006101000a81548160ff02191690836003811115611ea4577f4e487b7100000000000000000000000000000000000000000000000000000000600052602160045260246000fd5b021790555050565b611eb4611382565b15611ef4576040517f08c379a0000000000000000000000000000000000000000000000000000000008152600401611eeb90613283565b60405180910390fd5b600260009054906101000a900473ffffffffffffffffffffffffffffffffffffffff1673ffffffffffffffffffffffffffffffffffffffff163373ffffffffffffffffffffffffffffffffffffffff16148061201a5750600060019054906101000a900473ffffffffffffffffffffffffffffffffffffffff1673ffffffffffffffffffffffffffffffffffffffff1663d5f394886040518163ffffffff1660e01b815260040160206040518083038186803b158015611fb357600080fd5b505afa158015611fc7573d6000803e3d6000fd5b505050506040513d601f19601f82011682018060405250810190611feb9190612c58565b73ffffffffffffffffffffffffffffffffffffffff163373ffffffffffffffffffffffffffffffffffffffff16145b612059576040517f08c379a0000000000000000000000000000000000000000000000000000000008152600401612050906132a3565b60405180910390fd5b80600260006101000a81548173ffffffffffffffffffffffffffffffffffffffff021916908373ffffffffffffffffffffffffffffffffffffffff16021790555050565b6120a5611382565b156120e5576040517f08c379a00000000000000000000000000000000000000000000000000000000081526004016120dc90613283565b60405180910390fd5b600060019054906101000a900473ffffffffffffffffffffffffffffffffffffffff1673ffffffffffffffffffffffffffffffffffffffff1663d5f394886040518163ffffffff1660e01b815260040160206040518083038186803b15801561214d57600080fd5b505afa158015612161573d6000803e3d6000fd5b505050506040513d601f19601f820116820180604052508101906121859190612c58565b73ffffffffffffffffffffffffffffffffffffffff163373ffffffffffffffffffffffffffffffffffffffff16146121bc57600080fd5b6000806005600086815260200190815260200160002060010154905060005b8787905081101561252557620f4240858583818110612223577f4e487b7100000000000000000000000000000000000000000000000000000000600052603260045260246000fd5b905060200201356122349190613419565b8361223f9190613392565b9250600060035460646122529190613392565b606487878581811061228d577f4e487b7100000000000000000000000000000000000000000000000000000000600052603260045260246000fd5b9050602002013561229e9190613419565b6122a891906133e8565b9050600083620f4240836122bc9190613419565b6122c691906133e8565b905080600560008a815260200190815260200160002060000160008282546122ee9190613473565b92505081905550600560008981526020019081526020016000206002018a8a85818110612344577f4e487b7100000000000000000000000000000000000000000000000000000000600052603260045260246000fd5b90506020020160208101906123599190612c06565b9080600181540180825580915050600190039060005260206000200160009091909190916101000a81548173ffffffffffffffffffffffffffffffffffffffff021916908373ffffffffffffffffffffffffffffffffffffffff16021790555080600460008a815260200190815260200160002060008c8c87818110612408577f4e487b7100000000000000000000000000000000000000000000000000000000600052603260045260246000fd5b905060200201602081019061241d9190612c06565b73ffffffffffffffffffffffffffffffffffffffff1673ffffffffffffffffffffffffffffffffffffffff16815260200190815260200160002060008282546124669190613392565b925050819055506001600860008c8c878181106124ac577f4e487b7100000000000000000000000000000000000000000000000000000000600052603260045260246000fd5b90506020020160208101906124c19190612c06565b73ffffffffffffffffffffffffffffffffffffffff1673ffffffffffffffffffffffffffffffffffffffff16815260200190815260200160002060006101000a81548160ff02191690831515021790555050508061251e906135a4565b90506121db565b5050505050505050565b600060019054906101000a900473ffffffffffffffffffffffffffffffffffffffff1673ffffffffffffffffffffffffffffffffffffffff1663d5f394886040518163ffffffff1660e01b815260040160206040518083038186803b15801561259757600080fd5b505afa1580156125ab573d6000803e3d6000fd5b505050506040513d601f19601f820116820180604052508101906125cf9190612c58565b73ffffffffffffffffffffffffffffffffffffffff163373ffffffffffffffffffffffffffffffffffffffff161461260657600080fd5b61260e6129d2565b565b60086020528060005260406000206000915054906101000a900460ff1681565b60008060019054906101000a900473ffffffffffffffffffffffffffffffffffffffff1673ffffffffffffffffffffffffffffffffffffffff1663e6253d40856040518263ffffffff1660e01b815260040161268c91906132e5565b60206040518083038186803b1580156126a457600080fd5b505afa1580156126b8573d6000803e3d6000fd5b505050506040513d601f19601f820116820180604052508101906126dc9190612c2f565b90503373ffffffffffffffffffffffffffffffffffffffff168173ffffffffffffffffffffffffffffffffffffffff16148061271d575061271c33612a73565b5b61272657600080fd5b6000600660008373ffffffffffffffffffffffffffffffffffffffff1673ffffffffffffffffffffffffffffffffffffffff1681526020019081526020016000205414156127d2576009819080600181540180825580915050600190039060005260206000200160009091909190916101000a81548173ffffffffffffffffffffffffffffffffffffffff021916908373ffffffffffffffffffffffffffffffffffffffff1602179055505b81600660008373ffffffffffffffffffffffffffffffffffffffff1673ffffffffffffffffffffffffffffffffffffffff16815260200190815260200160002060008282546128219190613392565b925050819055506000600760008573ffffffffffffffffffffffffffffffffffffffff1673ffffffffffffffffffffffffffffffffffffffff1681526020019081526020016000205414156128d457600a839080600181540180825580915050600190039060005260206000200160009091909190916101000a81548173ffffffffffffffffffffffffffffffffffffffff021916908373ffffffffffffffffffffffffffffffffffffffff1602179055505b81600760008573ffffffffffffffffffffffffffffffffffffffff1673ffffffffffffffffffffffffffffffffffffffff16815260200190815260200160002060008282546129239190613392565b9250508190555050505050565b612938611382565b15612978576040517f08c379a000000000000000000000000000000000000000000000000000000000815260040161296f90613283565b60405180910390fd5b60016000806101000a81548160ff0219169083151502179055507f62e78cea01bee320cd4e420270b5ea74000d11b0c9f74754ebdbfc544b05a2586129bb612a8c565b6040516129c891906130e0565b60405180910390a1565b6129da611382565b612a19576040517f08c379a0000000000000000000000000000000000000000000000000000000008152600401612a1090613263565b60405180910390fd5b60008060006101000a81548160ff0219169083151502179055507f5db9ee0a495bf2e6ff9c91a7834c1ba4fdd244a5e8aa4e537bd38aeae4b073aa612a5c612a8c565b604051612a6991906130e0565b60405180910390a1565b600080823b905060008163ffffffff1611915050919050565b600033905090565b604051806080016040528060008152602001600081526020016060815260200160006003811115612aee577f4e487b7100000000000000000000000000000000000000000000000000000000600052602160045260246000fd5b81525090565b600081359050612b038161368e565b92915050565b600081519050612b188161368e565b92915050565b600081519050612b2d816136a5565b92915050565b60008083601f840112612b4557600080fd5b8235905067ffffffffffffffff811115612b5e57600080fd5b602083019150836020820283011115612b7657600080fd5b9250929050565b60008083601f840112612b8f57600080fd5b8235905067ffffffffffffffff811115612ba857600080fd5b602083019150836020820283011115612bc057600080fd5b9250929050565b600081519050612bd6816136bc565b92915050565b600081359050612beb816136d3565b92915050565b600081519050612c00816136d3565b92915050565b600060208284031215612c1857600080fd5b6000612c2684828501612af4565b91505092915050565b600060208284031215612c4157600080fd5b6000612c4f84828501612b09565b91505092915050565b600060208284031215612c6a57600080fd5b6000612c7884828501612b1e565b91505092915050565b60008060408385031215612c9457600080fd5b6000612ca285828601612af4565b9250506020612cb385828601612bdc565b9150509250929050565b600080600060608486031215612cd257600080fd5b6000612ce086828701612af4565b9350506020612cf186828701612bdc565b9250506040612d0286828701612bdc565b9150509250925092565b600080600080600060608688031215612d2457600080fd5b600086013567ffffffffffffffff811115612d3e57600080fd5b612d4a88828901612b33565b95509550506020612d5d88828901612bdc565b935050604086013567ffffffffffffffff811115612d7a57600080fd5b612d8688828901612b7d565b92509250509295509295909350565b600060208284031215612da757600080fd5b6000612db584828501612bc7565b91505092915050565b600060208284031215612dd057600080fd5b6000612dde84828501612bdc565b91505092915050565b600060208284031215612df957600080fd5b6000612e0784828501612bf1565b91505092915050565b60008060408385031215612e2357600080fd5b6000612e3185828601612bdc565b9250506020612e4285828601612af4565b9150509250929050565b60008060408385031215612e5f57600080fd5b6000612e6d85828601612bdc565b9250506020612e7e85828601612bdc565b9150509250929050565b6000612e948383612ebe565b60208301905092915050565b612ea981613514565b82525050565b612eb8816134b9565b82525050565b612ec7816134a7565b82525050565b612ed6816134a7565b82525050565b6000612ee782613347565b612ef1818561335f565b9350612efc83613337565b8060005b83811015612f2d578151612f148882612e88565b9750612f1f83613352565b925050600181019050612f00565b5085935050505092915050565b612f43816134cb565b82525050565b612f5281613526565b82525050565b612f618161354a565b82525050565b612f708161356e565b82525050565b612f7f8161356e565b82525050565b6000612f92601483613381565b91507f5061757361626c653a206e6f74207061757365640000000000000000000000006000830152602082019050919050565b6000612fd2601083613381565b91507f5061757361626c653a20706175736564000000000000000000000000000000006000830152602082019050919050565b6000613012601583613381565b91507f43616c6c6572206e6f7420617574686f72697a656400000000000000000000006000830152602082019050919050565b6000613052600083613370565b9150600082019050919050565b600060808301600083015161307760008601826130c2565b50602083015161308a60208601826130c2565b50604083015184820360408601526130a28282612edc565b91505060608301516130b76060860182612f67565b508091505092915050565b6130cb8161350a565b82525050565b6130da8161350a565b82525050565b60006020820190506130f56000830184612ecd565b92915050565b60006020820190506131106000830184612eaf565b92915050565b600060408201905061312b6000830185612ea0565b61313860208301846130d1565b9392505050565b60006060820190506131546000830186612ecd565b6131616020830185612ecd565b61316e60408301846130d1565b949350505050565b600060a08201905061318b6000830187612ecd565b6131986020830186612ecd565b6131a560408301856130d1565b6131b260608301846130d1565b81810360808301526131c381613045565b905095945050505050565b60006040820190506131e36000830185612ecd565b6131f060208301846130d1565b9392505050565b600060208201905061320c6000830184612f3a565b92915050565b60006020820190506132276000830184612f49565b92915050565b60006020820190506132426000830184612f58565b92915050565b600060208201905061325d6000830184612f76565b92915050565b6000602082019050818103600083015261327c81612f85565b9050919050565b6000602082019050818103600083015261329c81612fc5565b9050919050565b600060208201905081810360008301526132bc81613005565b9050919050565b600060208201905081810360008301526132dd818461305f565b905092915050565b60006020820190506132fa60008301846130d1565b92915050565b600060608201905061331560008301866130d1565b61332260208301856130d1565b61332f6040830184612f76565b949350505050565b6000819050602082019050919050565b600081519050919050565b6000602082019050919050565b600082825260208201905092915050565b600082825260208201905092915050565b600082825260208201905092915050565b600061339d8261350a565b91506133a88361350a565b9250827fffffffffffffffffffffffffffffffffffffffffffffffffffffffffffffffff038211156133dd576133dc6135ed565b5b828201905092915050565b60006133f38261350a565b91506133fe8361350a565b92508261340e5761340d61361c565b5b828204905092915050565b60006134248261350a565b915061342f8361350a565b9250817fffffffffffffffffffffffffffffffffffffffffffffffffffffffffffffffff0483118215151615613468576134676135ed565b5b828202905092915050565b600061347e8261350a565b91506134898361350a565b92508282101561349c5761349b6135ed565b5b828203905092915050565b60006134b2826134ea565b9050919050565b60006134c4826134ea565b9050919050565b60008115159050919050565b60008190506134e58261367a565b919050565b600073ffffffffffffffffffffffffffffffffffffffff82169050919050565b6000819050919050565b600061351f82613580565b9050919050565b600061353182613538565b9050919050565b6000613543826134ea565b9050919050565b60006135558261355c565b9050919050565b6000613567826134ea565b9050919050565b6000613579826134d7565b9050919050565b600061358b82613592565b9050919050565b600061359d826134ea565b9050919050565b60006135af8261350a565b91507fffffffffffffffffffffffffffffffffffffffffffffffffffffffffffffffff8214156135e2576135e16135ed565b5b600182019050919050565b7f4e487b7100000000000000000000000000000000000000000000000000000000600052601160045260246000fd5b7f4e487b7100000000000000000000000000000000000000000000000000000000600052601260045260246000fd5b7f4e487b7100000000000000000000000000000000000000000000000000000000600052602160045260246000fd5b6004811061368b5761368a61364b565b5b50565b613697816134a7565b81146136a257600080fd5b50565b6136ae816134b9565b81146136b957600080fd5b50565b6136c5816134cb565b81146136d057600080fd5b50565b6136dc8161350a565b81146136e757600080fd5b5056fea26469706673582212203187266408ae8ddc1d8de32798d4555e4cc02317ca3663fa33ecc5c6ce2d103d64736f6c63430008000033",
  "immutableReferences": {},
  "source": "// SPDX-License-Identifier: MIT\r\n\r\npragma solidity^0.8.0;\r\n\r\nimport \"./ToknFactory.sol\";\r\n\r\n\r\n\r\ncontract ToknITO is Pausable{\r\n    \r\n    ToknFactory public toknFactory;\r\n    UsdcToken public usdc;\r\n    address payable public treasury;\r\n\r\n    uint public treasuryPercentage = 13;\r\n\r\n    enum State {Started, Running, Cancelled, Ended}\r\n    \r\n    struct ITOConfig{\r\n        uint toknsAvailable;\r\n        uint price;\r\n        address[] investors;\r\n        State itoState;\r\n    }\r\n\r\n    mapping(uint => mapping(address => uint)) public bookedTokns;\r\n    mapping(uint => ITOConfig) public toknITOs;\r\n    mapping(address => uint) public artistTracker;\r\n    mapping(address => uint) public userTracker;\r\n    mapping(address => bool) public hasPaid;\r\n    \r\n    address[] public artistList;\r\n    address[] public userList;\r\n\r\n\r\n    \r\n    constructor(ToknFactory _toknFactory, UsdcToken _usdc){\r\n        toknFactory = _toknFactory;\r\n        usdc = _usdc;\r\n        treasury = payable(msg.sender);\r\n    }\r\n    \r\n    // function setUserHasPaid(address _user, uint _amount) public {\r\n    //     require(msg.sender== toknFactory.deployer(), \"User not authorized\");\r\n    //     hasPaid[_user] = _amount;\r\n    // }\r\n\r\n    // function setUsersHavePaid(address[] memory _users, uint[] memory _amounts) public {\r\n    //     require(msg.sender== toknFactory.deployer(), \"User not authorized\");\r\n    //     for(uint i = 0; i<_users.length; ++i){\r\n    //         setUserHasPaid(_users[i], _amounts[i]);\r\n    //     }\r\n    // }\r\n    function setTreasuryPercentage(uint _pc) public whenNotPaused{\r\n        require(msg.sender == treasury || msg.sender == toknFactory.deployer(), \"Caller not authorized\");\r\n        treasuryPercentage = _pc;\r\n    }\r\n\r\n    function setTreasury(address _treasury) public whenNotPaused{\r\n        require(msg.sender == treasury || msg.sender == toknFactory.deployer(), \"Caller not authorized\");\r\n        treasury = payable(_treasury);\r\n    }\r\n\r\n    function getUsersCount() public view returns(uint){\r\n        return userList.length;    \r\n    }\r\n    \r\n    function isContract(address _addr) private view returns (bool){\r\n      uint32 size;\r\n      assembly {\r\n        size := extcodesize(_addr)\r\n      }\r\n      return (size > 0);\r\n    }\r\n    \r\n    function airdropTracker(uint _id, address _receiver, uint _price) internal {\r\n        // if(_id == 1){\r\n        //     require(msg.sender == toknFactory.deployer());\r\n        // } else{\r\n            address artist = toknFactory.toknIdToArtist(_id);\r\n            require(artist == msg.sender || isContract(msg.sender));\r\n            if(artistTracker[artist] == 0) {\r\n                artistList.push(artist); \r\n            }\r\n            artistTracker[artist] += _price;\r\n        // }\r\n        if(userTracker[_receiver] == 0) {\r\n            userList.push(_receiver);\r\n        }\r\n        userTracker[_receiver] += _price;\r\n    }\r\n    \r\n\r\n    function setToknPrice(uint _id, uint _price) public whenNotPaused{\r\n        \r\n        require(toknFactory.toknIdToArtist(_id) == msg.sender && _price != 0);\r\n        toknITOs[_id].price = _price*10**6;\r\n    }\r\n    \r\n   \r\n    \r\n    function startITO(uint _id) public whenNotPaused{\r\n        \r\n        require(toknFactory.toknIdToArtist(_id) == msg.sender && toknITOs[_id].price != 0);\r\n        toknITOs[_id].itoState = State.Running;\r\n        toknITOs[_id].toknsAvailable = toknFactory.balanceOf(msg.sender, _id);\r\n    }\r\n    \r\n    function stopITO(uint _id) public whenNotPaused{\r\n        \r\n        require(toknFactory.toknIdToArtist(_id) == msg.sender && toknITOs[_id].itoState== State.Running);\r\n        toknITOs[_id].itoState = State.Ended;\r\n    }    \r\n    \r\n    function getCurrentState(uint _id) public view returns(State) {\r\n        \r\n        return toknITOs[_id].itoState;\r\n    }\r\n\r\n    function getITO(uint _id) public view returns(ITOConfig memory) {\r\n        return toknITOs[_id];\r\n    }\r\n    \r\n    function investFixedPrice(uint _id, uint _qty) public whenNotPaused{\r\n        \r\n        require(_qty <= toknITOs[_id].toknsAvailable && toknITOs[_id].itoState == State.Running);\r\n        uint usdcAmount = _qty * toknITOs[_id].price;\r\n        uint platform_fee = usdcAmount*treasuryPercentage/uint(100);\r\n        usdc.transferFrom(msg.sender, address(this), usdcAmount+platform_fee);\r\n        toknITOs[_id].toknsAvailable -= _qty;\r\n        toknITOs[_id].investors.push(payable(msg.sender));\r\n        bookedTokns[_id][msg.sender] += _qty;\r\n    }\r\n\r\n    // function redeemBookedTokens(uint _id) public {\r\n    //     require(toknITOs[_id].itoState == State.Running);\r\n    //     require(hasPaid[msg.sender] != 0, \"User has not paid.\");\r\n    //     uint toknPrice = toknITOs[_id].price;\r\n    //     uint _qty = hasPaid[msg.sender]/toknPrice;\r\n    //     require(_qty <= toknITOs[_id].toknsAvailable );\r\n    //     toknITOs[_id].toknsAvailable -= _qty;\r\n    //     toknITOs[_id].investors.push(payable(msg.sender));\r\n    //     bookedTokns[_id][msg.sender] += _qty;\r\n    //     hasPaid[msg.sender] = 0;\r\n    // }\r\n\r\n    function bookTokensForUser(address _user, uint _id, uint _amount) public whenNotPaused{\r\n        require(msg.sender == toknFactory.deployer());\r\n        uint toknPrice = toknITOs[_id].price;\r\n        uint cost = _amount*100/uint(100 + treasuryPercentage);\r\n        uint tokens = cost*10**6/toknPrice;\r\n        toknITOs[_id].toknsAvailable -= tokens;\r\n        toknITOs[_id].investors.push(payable(_user));\r\n        bookedTokns[_id][_user] += tokens;\r\n        hasPaid[_user] = true;\r\n        // usdc.transferFrom(msg.sender, address(this), _amount*10**6);\r\n    }\r\n\r\n    function bookTokensForUsers(address[] calldata _users, uint _id, uint[] calldata _amounts) public whenNotPaused{\r\n        require(msg.sender == toknFactory.deployer());\r\n        uint amount = 0;\r\n        uint toknPrice = toknITOs[_id].price;\r\n        for(uint i = 0; i < _users.length; ++i){\r\n            amount += _amounts[i]*10**6;\r\n            uint cost = _amounts[i]*100/uint(100 + treasuryPercentage);\r\n            uint tokens = cost*10**6/toknPrice;\r\n            toknITOs[_id].toknsAvailable -= tokens;\r\n            toknITOs[_id].investors.push(payable(_users[i]));\r\n            bookedTokns[_id][_users[i]] += tokens;\r\n            hasPaid[_users[i]] = true;\r\n        }\r\n        // usdc.transferFrom(msg.sender, address(this), amount);\r\n\r\n    }\r\n    \r\n    function allocateFixedPrice(uint _id) public whenNotPaused{\r\n        // stopITO(_id);\r\n        \r\n        require(toknFactory.toknIdToArtist(_id) == msg.sender);\r\n        require(toknITOs[_id].itoState == State.Ended);\r\n        address[] memory toknInvestors = toknITOs[_id].investors;\r\n        for(uint i = 0; i < toknInvestors.length; i++) {\r\n            toknFactory.safeTransferFrom(msg.sender, toknInvestors[i], _id, bookedTokns[_id][toknInvestors[i]], \"\");\r\n            uint amount = toknITOs[_id].price * bookedTokns[_id][toknInvestors[i]];\r\n            uint treasury_amount = amount*treasuryPercentage/uint(100);\r\n            // uint artistAmount = amount - treasury_amount;\r\n            if(!hasPaid[toknInvestors[i]]){\r\n                usdc.transfer(treasury, treasury_amount);\r\n                usdc.transfer(msg.sender, amount);\r\n            }\r\n            \r\n            airdropTracker(_id, toknInvestors[i], amount);\r\n        }\r\n    }\r\n    \r\n   function getBookedToknsFor(address _investor, uint _id) public view returns (uint) {\r\n       return bookedTokns[_id][_investor];\r\n   }\r\n\r\n   function pause() public {\r\n        require(msg.sender == toknFactory.deployer());\r\n        _pause();\r\n    }\r\n\r\n    function unPause() public {\r\n        require(msg.sender == toknFactory.deployer());\r\n        _unpause();\r\n    }\r\n    \r\n}",
  "sourcePath": "C:\\Users\\sj931\\OneDrive\\Desktop\\Tokn\\alpha\\Tokn-alpha\\Alpha-Contracts\\contracts\\ToknITO.sol",
  "compiler": {
    "name": "solc",
    "version": "0.8.0+commit.c7dfd78e.Emscripten.clang"
  },
  "schemaVersion": "3.4.3",
  "updatedAt": "2022-02-01T17:25:54.875Z",
  "networkType": "ethereum",
  "devdoc": {
    "kind": "dev",
    "methods": {
      "paused()": {
        "details": "Returns true if the contract is paused, and false otherwise."
      }
    },
    "version": 1
  },
  "userdoc": {
    "kind": "user",
    "methods": {},
    "version": 1
  }
}