{
  "contractName": "ToknBuy",
  "abi": [
    {
      "inputs": [
        {
          "internalType": "string",
          "name": "_platformUri",
          "type": "string"
        }
      ],
      "stateMutability": "nonpayable",
      "type": "constructor"
    },
    {
      "anonymous": false,
      "inputs": [
        {
          "indexed": true,
          "internalType": "address",
          "name": "account",
          "type": "address"
        },
        {
          "indexed": true,
          "internalType": "address",
          "name": "operator",
          "type": "address"
        },
        {
          "indexed": false,
          "internalType": "bool",
          "name": "approved",
          "type": "bool"
        }
      ],
      "name": "ApprovalForAll",
      "type": "event"
    },
    {
      "anonymous": false,
      "inputs": [
        {
          "indexed": true,
          "internalType": "address",
          "name": "operator",
          "type": "address"
        },
        {
          "indexed": true,
          "internalType": "address",
          "name": "from",
          "type": "address"
        },
        {
          "indexed": true,
          "internalType": "address",
          "name": "to",
          "type": "address"
        },
        {
          "indexed": false,
          "internalType": "uint256[]",
          "name": "ids",
          "type": "uint256[]"
        },
        {
          "indexed": false,
          "internalType": "uint256[]",
          "name": "values",
          "type": "uint256[]"
        }
      ],
      "name": "TransferBatch",
      "type": "event"
    },
    {
      "anonymous": false,
      "inputs": [
        {
          "indexed": true,
          "internalType": "address",
          "name": "operator",
          "type": "address"
        },
        {
          "indexed": true,
          "internalType": "address",
          "name": "from",
          "type": "address"
        },
        {
          "indexed": true,
          "internalType": "address",
          "name": "to",
          "type": "address"
        },
        {
          "indexed": false,
          "internalType": "uint256",
          "name": "id",
          "type": "uint256"
        },
        {
          "indexed": false,
          "internalType": "uint256",
          "name": "value",
          "type": "uint256"
        }
      ],
      "name": "TransferSingle",
      "type": "event"
    },
    {
      "anonymous": false,
      "inputs": [
        {
          "indexed": false,
          "internalType": "string",
          "name": "value",
          "type": "string"
        },
        {
          "indexed": true,
          "internalType": "uint256",
          "name": "id",
          "type": "uint256"
        }
      ],
      "name": "URI",
      "type": "event"
    },
    {
      "inputs": [
        {
          "internalType": "uint256",
          "name": "",
          "type": "uint256"
        },
        {
          "internalType": "uint256",
          "name": "",
          "type": "uint256"
        }
      ],
      "name": "addressTracker",
      "outputs": [
        {
          "internalType": "address",
          "name": "",
          "type": "address"
        }
      ],
      "stateMutability": "view",
      "type": "function",
      "constant": true
    },
    {
      "inputs": [
        {
          "internalType": "address",
          "name": "",
          "type": "address"
        },
        {
          "internalType": "uint256",
          "name": "",
          "type": "uint256"
        }
      ],
      "name": "artistTokns",
      "outputs": [
        {
          "internalType": "uint256",
          "name": "",
          "type": "uint256"
        }
      ],
      "stateMutability": "view",
      "type": "function",
      "constant": true
    },
    {
      "inputs": [
        {
          "internalType": "address",
          "name": "account",
          "type": "address"
        },
        {
          "internalType": "uint256",
          "name": "id",
          "type": "uint256"
        }
      ],
      "name": "balanceOf",
      "outputs": [
        {
          "internalType": "uint256",
          "name": "",
          "type": "uint256"
        }
      ],
      "stateMutability": "view",
      "type": "function",
      "constant": true
    },
    {
      "inputs": [
        {
          "internalType": "address[]",
          "name": "accounts",
          "type": "address[]"
        },
        {
          "internalType": "uint256[]",
          "name": "ids",
          "type": "uint256[]"
        }
      ],
      "name": "balanceOfBatch",
      "outputs": [
        {
          "internalType": "uint256[]",
          "name": "",
          "type": "uint256[]"
        }
      ],
      "stateMutability": "view",
      "type": "function",
      "constant": true
    },
    {
      "inputs": [
        {
          "internalType": "uint256",
          "name": "_amount",
          "type": "uint256"
        },
        {
          "internalType": "uint256",
          "name": "_toknId",
          "type": "uint256"
        }
      ],
      "name": "burnInvestorTokns",
      "outputs": [],
      "stateMutability": "nonpayable",
      "type": "function"
    },
    {
      "inputs": [
        {
          "internalType": "string",
          "name": "_symbol",
          "type": "string"
        },
        {
          "internalType": "uint256",
          "name": "_amount",
          "type": "uint256"
        },
        {
          "internalType": "string",
          "name": "_uri",
          "type": "string"
        }
      ],
      "name": "createInvestorTokns",
      "outputs": [],
      "stateMutability": "nonpayable",
      "type": "function"
    },
    {
      "inputs": [],
      "name": "deployer",
      "outputs": [
        {
          "internalType": "address payable",
          "name": "",
          "type": "address"
        }
      ],
      "stateMutability": "view",
      "type": "function",
      "constant": true
    },
    {
      "inputs": [
        {
          "internalType": "address",
          "name": "account",
          "type": "address"
        },
        {
          "internalType": "address",
          "name": "operator",
          "type": "address"
        }
      ],
      "name": "isApprovedForAll",
      "outputs": [
        {
          "internalType": "bool",
          "name": "",
          "type": "bool"
        }
      ],
      "stateMutability": "view",
      "type": "function",
      "constant": true
    },
    {
      "inputs": [
        {
          "internalType": "uint256",
          "name": "_amount",
          "type": "uint256"
        },
        {
          "internalType": "uint256",
          "name": "_toknId",
          "type": "uint256"
        }
      ],
      "name": "mintInvestorTokns",
      "outputs": [],
      "stateMutability": "nonpayable",
      "type": "function"
    },
    {
      "inputs": [],
      "name": "price",
      "outputs": [
        {
          "internalType": "uint256",
          "name": "",
          "type": "uint256"
        }
      ],
      "stateMutability": "view",
      "type": "function",
      "constant": true
    },
    {
      "inputs": [
        {
          "internalType": "uint256",
          "name": "_id",
          "type": "uint256"
        }
      ],
      "name": "returnAddressesForTokn",
      "outputs": [
        {
          "internalType": "address[]",
          "name": "",
          "type": "address[]"
        }
      ],
      "stateMutability": "view",
      "type": "function",
      "constant": true
    },
    {
      "inputs": [
        {
          "internalType": "address",
          "name": "from",
          "type": "address"
        },
        {
          "internalType": "address",
          "name": "to",
          "type": "address"
        },
        {
          "internalType": "uint256[]",
          "name": "ids",
          "type": "uint256[]"
        },
        {
          "internalType": "uint256[]",
          "name": "amounts",
          "type": "uint256[]"
        },
        {
          "internalType": "bytes",
          "name": "data",
          "type": "bytes"
        }
      ],
      "name": "safeBatchTransferFrom",
      "outputs": [],
      "stateMutability": "nonpayable",
      "type": "function"
    },
    {
      "inputs": [
        {
          "internalType": "address",
          "name": "from",
          "type": "address"
        },
        {
          "internalType": "address",
          "name": "to",
          "type": "address"
        },
        {
          "internalType": "uint256",
          "name": "id",
          "type": "uint256"
        },
        {
          "internalType": "uint256",
          "name": "amount",
          "type": "uint256"
        },
        {
          "internalType": "bytes",
          "name": "data",
          "type": "bytes"
        }
      ],
      "name": "safeTransferFrom",
      "outputs": [],
      "stateMutability": "nonpayable",
      "type": "function"
    },
    {
      "inputs": [
        {
          "internalType": "address",
          "name": "operator",
          "type": "address"
        },
        {
          "internalType": "bool",
          "name": "approved",
          "type": "bool"
        }
      ],
      "name": "setApprovalForAll",
      "outputs": [],
      "stateMutability": "nonpayable",
      "type": "function"
    },
    {
      "inputs": [
        {
          "internalType": "bytes4",
          "name": "interfaceId",
          "type": "bytes4"
        }
      ],
      "name": "supportsInterface",
      "outputs": [
        {
          "internalType": "bool",
          "name": "",
          "type": "bool"
        }
      ],
      "stateMutability": "view",
      "type": "function",
      "constant": true
    },
    {
      "inputs": [
        {
          "internalType": "string",
          "name": "",
          "type": "string"
        }
      ],
      "name": "symbolToId",
      "outputs": [
        {
          "internalType": "uint256",
          "name": "",
          "type": "uint256"
        }
      ],
      "stateMutability": "view",
      "type": "function",
      "constant": true
    },
    {
      "inputs": [],
      "name": "toknId",
      "outputs": [
        {
          "internalType": "uint256",
          "name": "",
          "type": "uint256"
        }
      ],
      "stateMutability": "view",
      "type": "function",
      "constant": true
    },
    {
      "inputs": [
        {
          "internalType": "uint256",
          "name": "",
          "type": "uint256"
        }
      ],
      "name": "toknIdToArtist",
      "outputs": [
        {
          "internalType": "address",
          "name": "",
          "type": "address"
        }
      ],
      "stateMutability": "view",
      "type": "function",
      "constant": true
    },
    {
      "inputs": [
        {
          "internalType": "uint256",
          "name": "",
          "type": "uint256"
        }
      ],
      "name": "toknIdToURI",
      "outputs": [
        {
          "internalType": "string",
          "name": "",
          "type": "string"
        }
      ],
      "stateMutability": "view",
      "type": "function",
      "constant": true
    },
    {
      "inputs": [
        {
          "internalType": "uint256",
          "name": "",
          "type": "uint256"
        }
      ],
      "name": "toknsAvailable",
      "outputs": [
        {
          "internalType": "uint256",
          "name": "",
          "type": "uint256"
        }
      ],
      "stateMutability": "view",
      "type": "function",
      "constant": true
    },
    {
      "inputs": [
        {
          "internalType": "uint256",
          "name": "",
          "type": "uint256"
        }
      ],
      "name": "totalSupplies",
      "outputs": [
        {
          "internalType": "uint256",
          "name": "",
          "type": "uint256"
        }
      ],
      "stateMutability": "view",
      "type": "function",
      "constant": true
    },
    {
      "inputs": [],
      "name": "treasury",
      "outputs": [
        {
          "internalType": "address payable",
          "name": "",
          "type": "address"
        }
      ],
      "stateMutability": "view",
      "type": "function",
      "constant": true
    },
    {
      "inputs": [],
      "name": "treasuryPercentage",
      "outputs": [
        {
          "internalType": "uint256",
          "name": "",
          "type": "uint256"
        }
      ],
      "stateMutability": "view",
      "type": "function",
      "constant": true
    },
    {
      "inputs": [
        {
          "internalType": "uint256",
          "name": "",
          "type": "uint256"
        }
      ],
      "name": "uri",
      "outputs": [
        {
          "internalType": "string",
          "name": "",
          "type": "string"
        }
      ],
      "stateMutability": "view",
      "type": "function",
      "constant": true
    },
    {
      "inputs": [],
      "name": "usdc",
      "outputs": [
        {
          "internalType": "contract UsdcToken",
          "name": "",
          "type": "address"
        }
      ],
      "stateMutability": "view",
      "type": "function",
      "constant": true
    },
    {
      "inputs": [
        {
          "internalType": "uint256",
          "name": "_id",
          "type": "uint256"
        },
        {
          "internalType": "uint256",
          "name": "_qty",
          "type": "uint256"
        }
      ],
      "name": "buyTokn",
      "outputs": [],
      "stateMutability": "nonpayable",
      "type": "function"
    },
    {
      "inputs": [
        {
          "internalType": "uint256",
          "name": "_pc",
          "type": "uint256"
        }
      ],
      "name": "setTreasuryPercentage",
      "outputs": [],
      "stateMutability": "nonpayable",
      "type": "function"
    },
    {
      "inputs": [
        {
          "internalType": "address",
          "name": "_treasury",
          "type": "address"
        }
      ],
      "name": "setTreasury",
      "outputs": [],
      "stateMutability": "nonpayable",
      "type": "function"
    },
    {
      "inputs": [
        {
          "internalType": "uint256",
          "name": "_newPrice",
          "type": "uint256"
        }
      ],
      "name": "setPrice",
      "outputs": [],
      "stateMutability": "nonpayable",
      "type": "function"
    }
  ],
  "bytecode": "0x60806040526001600d556005600f553480156200001b57600080fd5b50604051620045fb380380620045fb833981810160405281019062000041919062000272565b808062000054816200013460201b60201c565b5033600360006101000a81548173ffffffffffffffffffffffffffffffffffffffff021916908373ffffffffffffffffffffffffffffffffffffffff160217905550734dbcdf9b62e891a7cec5a2568c3f4faf9e8abe2b600c60006101000a81548173ffffffffffffffffffffffffffffffffffffffff021916908373ffffffffffffffffffffffffffffffffffffffff1602179055505033600e60006101000a81548173ffffffffffffffffffffffffffffffffffffffff021916908373ffffffffffffffffffffffffffffffffffffffff16021790555050620003e8565b80600290805190602001906200014c92919062000150565b5050565b8280546200015e9062000354565b90600052602060002090601f016020900481019282620001825760008555620001ce565b82601f106200019d57805160ff1916838001178555620001ce565b82800160010185558215620001ce579182015b82811115620001cd578251825591602001919060010190620001b0565b5b509050620001dd9190620001e1565b5090565b5b80821115620001fc576000816000905550600101620001e2565b5090565b6000620002176200021184620002eb565b620002b7565b9050828152602081018484840111156200023057600080fd5b6200023d8482856200031e565b509392505050565b600082601f8301126200025757600080fd5b81516200026984826020860162000200565b91505092915050565b6000602082840312156200028557600080fd5b600082015167ffffffffffffffff811115620002a057600080fd5b620002ae8482850162000245565b91505092915050565b6000604051905081810181811067ffffffffffffffff82111715620002e157620002e0620003b9565b5b8060405250919050565b600067ffffffffffffffff821115620003095762000308620003b9565b5b601f19601f8301169050602081019050919050565b60005b838110156200033e57808201518184015260208101905062000321565b838111156200034e576000848401525b50505050565b600060028204905060018216806200036d57607f821691505b602082108114156200038457620003836200038a565b5b50919050565b7f4e487b7100000000000000000000000000000000000000000000000000000000600052602260045260246000fd5b7f4e487b7100000000000000000000000000000000000000000000000000000000600052604160045260246000fd5b61420380620003f86000396000f3fe608060405234801561001057600080fd5b50600436106101ce5760003560e01c806372ed8a5d11610104578063bb03b398116100a2578063e6253d4011610071578063e6253d4014610577578063e985e9c5146105a7578063f0f44260146105d7578063f242432a146105f3576101ce565b8063bb03b39814610503578063c4f899db1461051f578063ce290c371461053b578063d5f3948814610559576101ce565b8063a035b1fe116100de578063a035b1fe14610469578063a22cb46514610487578063a35d5ef9146104a3578063b54fa474146104d3576101ce565b806372ed8a5d146103ff5780637ab560831461042f57806391b7f5ed1461044d576101ce565b80632eb2c2d6116101715780633e413bee1161014b5780633e413bee146103635780634e1273f41461038157806361d027b3146103b1578063700a451b146103cf576101ce565b80632eb2c2d61461030f57806330a071f71461032b578063338012e514610347576101ce565b80630e89341c116101ad5780630e89341c146102635780631146c2b41461029357806311c2e55d146102c357806318adc582146102df576101ce565b8062fdd58e146101d357806301ffc9a71461020357806305e1e18d14610233575b600080fd5b6101ed60048036038101906101e89190612ca8565b61060f565b6040516101fa9190613b4d565b60405180910390f35b61021d60048036038101906102189190612d79565b6106d8565b60405161022a9190613915565b60405180910390f35b61024d60048036038101906102489190612ca8565b6107ba565b60405161025a9190613b4d565b60405180910390f35b61027d60048036038101906102789190612e8b565b6107eb565b60405161028a919061394b565b60405180910390f35b6102ad60048036038101906102a89190612e8b565b61087f565b6040516102ba9190613b4d565b60405180910390f35b6102dd60048036038101906102d89190612e8b565b610897565b005b6102f960048036038101906102f49190612edd565b610931565b604051610306919061370b565b60405180910390f35b61032960048036038101906103249190612b1e565b61097f565b005b61034560048036038101906103409190612edd565b610a20565b005b610361600480360381019061035c9190612edd565b610af2565b005b61036b610c60565b6040516103789190613930565b60405180910390f35b61039b60048036038101906103969190612ce4565b610c86565b6040516103a891906138bc565b60405180910390f35b6103b9610e37565b6040516103c69190613726565b60405180910390f35b6103e960048036038101906103e49190612dcb565b610e5d565b6040516103f69190613b4d565b60405180910390f35b61041960048036038101906104149190612e8b565b610e8b565b604051610426919061394b565b60405180910390f35b610437610f2b565b6040516104449190613b4d565b60405180910390f35b61046760048036038101906104629190612e8b565b610f31565b005b610471610f3b565b60405161047e9190613b4d565b60405180910390f35b6104a1600480360381019061049c9190612c6c565b610f41565b005b6104bd60048036038101906104b89190612e8b565b610f57565b6040516104ca919061389a565b60405180910390f35b6104ed60048036038101906104e89190612e8b565b610ff8565b6040516104fa9190613b4d565b60405180910390f35b61051d60048036038101906105189190612edd565b611010565b005b61053960048036038101906105349190612e0c565b611388565b005b6105436114b6565b6040516105509190613b4d565b60405180910390f35b6105616114bc565b60405161056e9190613726565b60405180910390f35b610591600480360381019061058c9190612e8b565b6114e2565b60405161059e919061370b565b60405180910390f35b6105c160048036038101906105bc9190612ae2565b611515565b6040516105ce9190613915565b60405180910390f35b6105f160048036038101906105ec9190612ab9565b6115a9565b005b61060d60048036038101906106089190612bdd565b61167d565b005b60008073ffffffffffffffffffffffffffffffffffffffff168373ffffffffffffffffffffffffffffffffffffffff161415610680576040517f08c379a0000000000000000000000000000000000000000000000000000000008152600401610677906139ad565b60405180910390fd5b60008083815260200190815260200160002060008473ffffffffffffffffffffffffffffffffffffffff1673ffffffffffffffffffffffffffffffffffffffff16815260200190815260200160002054905092915050565b60007fd9b67a26000000000000000000000000000000000000000000000000000000007bffffffffffffffffffffffffffffffffffffffffffffffffffffffff1916827bffffffffffffffffffffffffffffffffffffffffffffffffffffffff191614806107a357507f0e89341c000000000000000000000000000000000000000000000000000000007bffffffffffffffffffffffffffffffffffffffffffffffffffffffff1916827bffffffffffffffffffffffffffffffffffffffffffffffffffffffff1916145b806107b357506107b282611792565b5b9050919050565b600960205281600052604060002081815481106107d657600080fd5b90600052602060002001600091509150505481565b6060600280546107fa90613f66565b80601f016020809104026020016040519081016040528092919081815260200182805461082690613f66565b80156108735780601f1061084857610100808354040283529160200191610873565b820191906000526020600020905b81548152906001019060200180831161085657829003601f168201915b50505050509050919050565b60066020528060005260406000206000915090505481565b600e60009054906101000a900473ffffffffffffffffffffffffffffffffffffffff1673ffffffffffffffffffffffffffffffffffffffff163373ffffffffffffffffffffffffffffffffffffffff1614610927576040517f08c379a000000000000000000000000000000000000000000000000000000000815260040161091e90613a8d565b60405180910390fd5b80600f8190555050565b600b602052816000526040600020818154811061094d57600080fd5b906000526020600020016000915091509054906101000a900473ffffffffffffffffffffffffffffffffffffffff1681565b6109876117fc565b73ffffffffffffffffffffffffffffffffffffffff168573ffffffffffffffffffffffffffffffffffffffff1614806109cd57506109cc856109c76117fc565b611515565b5b610a0c576040517f08c379a0000000000000000000000000000000000000000000000000000000008152600401610a0390613a2d565b60405180910390fd5b610a198585858585611804565b5050505050565b80338073ffffffffffffffffffffffffffffffffffffffff16600a600084815260200190815260200160002060009054906101000a900473ffffffffffffffffffffffffffffffffffffffff1673ffffffffffffffffffffffffffffffffffffffff1614610a8d57600080fd5b610a98338486611b64565b83600560008581526020019081526020016000206000828254610abb9190613e10565b9250508190555083600660008581526020019081526020016000206000828254610ae59190613e10565b9250508190555050505050565b80338073ffffffffffffffffffffffffffffffffffffffff16600a600084815260200190815260200160002060009054906101000a900473ffffffffffffffffffffffffffffffffffffffff1673ffffffffffffffffffffffffffffffffffffffff1614610b5f57600080fd5b610c06338486600760008881526020019081526020016000208054610b8390613f66565b80601f0160208091040260200160405190810160405280929190818152602001828054610baf90613f66565b8015610bfc5780601f10610bd157610100808354040283529160200191610bfc565b820191906000526020600020905b815481529060010190602001808311610bdf57829003601f168201915b5050505050611d81565b83600560008581526020019081526020016000206000828254610c299190613d2f565b9250508190555083600660008581526020019081526020016000206000828254610c539190613d2f565b9250508190555050505050565b600c60009054906101000a900473ffffffffffffffffffffffffffffffffffffffff1681565b60608151835114610ccc576040517f08c379a0000000000000000000000000000000000000000000000000000000008152600401610cc390613aed565b60405180910390fd5b6000835167ffffffffffffffff811115610d0f577f4e487b7100000000000000000000000000000000000000000000000000000000600052604160045260246000fd5b604051908082528060200260200182016040528015610d3d5781602001602082028036833780820191505090505b50905060005b8451811015610e2c57610dd6858281518110610d88577f4e487b7100000000000000000000000000000000000000000000000000000000600052603260045260246000fd5b6020026020010151858381518110610dc9577f4e487b7100000000000000000000000000000000000000000000000000000000600052603260045260246000fd5b602002602001015161060f565b828281518110610e0f577f4e487b7100000000000000000000000000000000000000000000000000000000600052603260045260246000fd5b60200260200101818152505080610e2590613f98565b9050610d43565b508091505092915050565b600e60009054906101000a900473ffffffffffffffffffffffffffffffffffffffff1681565b6008818051602081018201805184825260208301602085012081835280955050505050506000915090505481565b60076020528060005260406000206000915090508054610eaa90613f66565b80601f0160208091040260200160405190810160405280929190818152602001828054610ed690613f66565b8015610f235780601f10610ef857610100808354040283529160200191610f23565b820191906000526020600020905b815481529060010190602001808311610f0657829003601f168201915b505050505081565b600f5481565b80600d8190555050565b600d5481565b610f53610f4c6117fc565b8383611f17565b5050565b6060600b6000838152602001908152602001600020805480602002602001604051908101604052809291908181526020018280548015610fec57602002820191906000526020600020905b8160009054906101000a900473ffffffffffffffffffffffffffffffffffffffff1673ffffffffffffffffffffffffffffffffffffffff1681526020019060010190808311610fa2575b50505050509050919050565b60056020528060005260406000206000915090505481565b6000600c60009054906101000a900473ffffffffffffffffffffffffffffffffffffffff1673ffffffffffffffffffffffffffffffffffffffff1663dd62ed3e33306040518363ffffffff1660e01b815260040161106f929190613741565b60206040518083038186803b15801561108757600080fd5b505afa15801561109b573d6000803e3d6000fd5b505050506040513d601f19601f820116820180604052508101906110bf9190612eb4565b9050600d54826110cf9190613db6565b811015611111576040517f08c379a000000000000000000000000000000000000000000000000000000000815260040161110890613aad565b60405180910390fd5b611160600a600085815260200190815260200160002060009054906101000a900473ffffffffffffffffffffffffffffffffffffffff1633858560405180602001604052806000815250612084565b6000600d54836111709190613db6565b905060006064600f54836111849190613db6565b61118e9190613d85565b9050808261119c9190613e10565b9150600c60009054906101000a900473ffffffffffffffffffffffffffffffffffffffff1673ffffffffffffffffffffffffffffffffffffffff166323b872dd33600e60009054906101000a900473ffffffffffffffffffffffffffffffffffffffff16846040518463ffffffff1660e01b815260040161121f9392919061376a565b602060405180830381600087803b15801561123957600080fd5b505af115801561124d573d6000803e3d6000fd5b505050506040513d601f19601f820116820180604052508101906112719190612d50565b50600c60009054906101000a900473ffffffffffffffffffffffffffffffffffffffff1673ffffffffffffffffffffffffffffffffffffffff166323b872dd33600a600089815260200190815260200160002060009054906101000a900473ffffffffffffffffffffffffffffffffffffffff16856040518463ffffffff1660e01b815260040161130493929190613809565b602060405180830381600087803b15801561131e57600080fd5b505af1158015611332573d6000803e3d6000fd5b505050506040513d601f19601f820116820180604052508101906113569190612d50565b508360066000878152602001908152602001600020600082825461137a9190613e10565b925050819055505050505050565b33600a600060046000815461139c90613f98565b919050819055815260200190815260200160002060006101000a81548173ffffffffffffffffffffffffffffffffffffffff021916908373ffffffffffffffffffffffffffffffffffffffff16021790555060045460088460405161140191906136f4565b908152602001604051809103902081905550600960003373ffffffffffffffffffffffffffffffffffffffff1673ffffffffffffffffffffffffffffffffffffffff16815260200190815260200160002060045490806001815401808255809150506001900390600052602060002001600090919091909150558060076000600454815260200190815260200160002090805190602001906114a4929190612787565b506114b182600454610af2565b505050565b60045481565b600360009054906101000a900473ffffffffffffffffffffffffffffffffffffffff1681565b600a6020528060005260406000206000915054906101000a900473ffffffffffffffffffffffffffffffffffffffff1681565b6000600160008473ffffffffffffffffffffffffffffffffffffffff1673ffffffffffffffffffffffffffffffffffffffff16815260200190815260200160002060008373ffffffffffffffffffffffffffffffffffffffff1673ffffffffffffffffffffffffffffffffffffffff16815260200190815260200160002060009054906101000a900460ff16905092915050565b600e60009054906101000a900473ffffffffffffffffffffffffffffffffffffffff1673ffffffffffffffffffffffffffffffffffffffff163373ffffffffffffffffffffffffffffffffffffffff1614611639576040517f08c379a000000000000000000000000000000000000000000000000000000000815260040161163090613a8d565b60405180910390fd5b80600e60006101000a81548173ffffffffffffffffffffffffffffffffffffffff021916908373ffffffffffffffffffffffffffffffffffffffff16021790555050565b6116856117fc565b73ffffffffffffffffffffffffffffffffffffffff168573ffffffffffffffffffffffffffffffffffffffff1614806116cb57506116ca856116c56117fc565b611515565b5b61170a576040517f08c379a0000000000000000000000000000000000000000000000000000000008152600401611701906139ed565b60405180910390fd5b6117178585858585612084565b600b6000848152602001908152602001600020849080600181540180825580915050600190039060005260206000200160009091909190916101000a81548173ffffffffffffffffffffffffffffffffffffffff021916908373ffffffffffffffffffffffffffffffffffffffff1602179055505050505050565b60007f01ffc9a7000000000000000000000000000000000000000000000000000000007bffffffffffffffffffffffffffffffffffffffffffffffffffffffff1916827bffffffffffffffffffffffffffffffffffffffffffffffffffffffff1916149050919050565b600033905090565b8151835114611848576040517f08c379a000000000000000000000000000000000000000000000000000000000815260040161183f90613b0d565b60405180910390fd5b600073ffffffffffffffffffffffffffffffffffffffff168473ffffffffffffffffffffffffffffffffffffffff1614156118b8576040517f08c379a00000000000000000000000000000000000000000000000000000000081526004016118af90613a0d565b60405180910390fd5b60006118c26117fc565b90506118d2818787878787612306565b60005b8451811015611acf576000858281518110611919577f4e487b7100000000000000000000000000000000000000000000000000000000600052603260045260246000fd5b60200260200101519050600085838151811061195e577f4e487b7100000000000000000000000000000000000000000000000000000000600052603260045260246000fd5b60200260200101519050600080600084815260200190815260200160002060008b73ffffffffffffffffffffffffffffffffffffffff1673ffffffffffffffffffffffffffffffffffffffff168152602001908152602001600020549050818110156119ff576040517f08c379a00000000000000000000000000000000000000000000000000000000081526004016119f690613a6d565b60405180910390fd5b81810360008085815260200190815260200160002060008c73ffffffffffffffffffffffffffffffffffffffff1673ffffffffffffffffffffffffffffffffffffffff168152602001908152602001600020819055508160008085815260200190815260200160002060008b73ffffffffffffffffffffffffffffffffffffffff1673ffffffffffffffffffffffffffffffffffffffff1681526020019081526020016000206000828254611ab49190613d2f565b9250508190555050505080611ac890613f98565b90506118d5565b508473ffffffffffffffffffffffffffffffffffffffff168673ffffffffffffffffffffffffffffffffffffffff168273ffffffffffffffffffffffffffffffffffffffff167f4a39dc06d4c0dbc64b70af90fd698a233a518aa5d07e595d983b8c0526c8f7fb8787604051611b469291906138de565b60405180910390a4611b5c81878787878761230e565b505050505050565b600073ffffffffffffffffffffffffffffffffffffffff168373ffffffffffffffffffffffffffffffffffffffff161415611bd4576040517f08c379a0000000000000000000000000000000000000000000000000000000008152600401611bcb90613a4d565b60405180910390fd5b6000611bde6117fc565b9050611c0e81856000611bf0876124de565b611bf9876124de565b60405180602001604052806000815250612306565b600080600085815260200190815260200160002060008673ffffffffffffffffffffffffffffffffffffffff1673ffffffffffffffffffffffffffffffffffffffff16815260200190815260200160002054905082811015611ca5576040517f08c379a0000000000000000000000000000000000000000000000000000000008152600401611c9c906139cd565b60405180910390fd5b82810360008086815260200190815260200160002060008773ffffffffffffffffffffffffffffffffffffffff1673ffffffffffffffffffffffffffffffffffffffff16815260200190815260200160002081905550600073ffffffffffffffffffffffffffffffffffffffff168573ffffffffffffffffffffffffffffffffffffffff168373ffffffffffffffffffffffffffffffffffffffff167fc3d58168c5ae7397731d063d5bbf3d657854427343f4c083240f7aacaa2d0f628787604051611d72929190613b68565b60405180910390a45050505050565b600073ffffffffffffffffffffffffffffffffffffffff168473ffffffffffffffffffffffffffffffffffffffff161415611df1576040517f08c379a0000000000000000000000000000000000000000000000000000000008152600401611de890613b2d565b60405180910390fd5b6000611dfb6117fc565b9050611e1c81600087611e0d886124de565b611e16886124de565b87612306565b8260008086815260200190815260200160002060008773ffffffffffffffffffffffffffffffffffffffff1673ffffffffffffffffffffffffffffffffffffffff1681526020019081526020016000206000828254611e7b9190613d2f565b925050819055508473ffffffffffffffffffffffffffffffffffffffff16600073ffffffffffffffffffffffffffffffffffffffff168273ffffffffffffffffffffffffffffffffffffffff167fc3d58168c5ae7397731d063d5bbf3d657854427343f4c083240f7aacaa2d0f628787604051611ef9929190613b68565b60405180910390a4611f10816000878787876125a4565b5050505050565b8173ffffffffffffffffffffffffffffffffffffffff168373ffffffffffffffffffffffffffffffffffffffff161415611f86576040517f08c379a0000000000000000000000000000000000000000000000000000000008152600401611f7d90613acd565b60405180910390fd5b80600160008573ffffffffffffffffffffffffffffffffffffffff1673ffffffffffffffffffffffffffffffffffffffff16815260200190815260200160002060008473ffffffffffffffffffffffffffffffffffffffff1673ffffffffffffffffffffffffffffffffffffffff16815260200190815260200160002060006101000a81548160ff0219169083151502179055508173ffffffffffffffffffffffffffffffffffffffff168373ffffffffffffffffffffffffffffffffffffffff167f17307eab39ab6107e8899845ad3d59bd9653f200f220920489ca2b5937696c31836040516120779190613915565b60405180910390a3505050565b600073ffffffffffffffffffffffffffffffffffffffff168473ffffffffffffffffffffffffffffffffffffffff1614156120f4576040517f08c379a00000000000000000000000000000000000000000000000000000000081526004016120eb90613a0d565b60405180910390fd5b60006120fe6117fc565b905061211e81878761210f886124de565b612118886124de565b87612306565b600080600086815260200190815260200160002060008873ffffffffffffffffffffffffffffffffffffffff1673ffffffffffffffffffffffffffffffffffffffff168152602001908152602001600020549050838110156121b5576040517f08c379a00000000000000000000000000000000000000000000000000000000081526004016121ac90613a6d565b60405180910390fd5b83810360008087815260200190815260200160002060008973ffffffffffffffffffffffffffffffffffffffff1673ffffffffffffffffffffffffffffffffffffffff168152602001908152602001600020819055508360008087815260200190815260200160002060008873ffffffffffffffffffffffffffffffffffffffff1673ffffffffffffffffffffffffffffffffffffffff168152602001908152602001600020600082825461226a9190613d2f565b925050819055508573ffffffffffffffffffffffffffffffffffffffff168773ffffffffffffffffffffffffffffffffffffffff168373ffffffffffffffffffffffffffffffffffffffff167fc3d58168c5ae7397731d063d5bbf3d657854427343f4c083240f7aacaa2d0f6288886040516122e7929190613b68565b60405180910390a46122fd8288888888886125a4565b50505050505050565b505050505050565b61232d8473ffffffffffffffffffffffffffffffffffffffff16612774565b156124d6578373ffffffffffffffffffffffffffffffffffffffff1663bc197c8187878686866040518663ffffffff1660e01b81526004016123739594939291906137a1565b602060405180830381600087803b15801561238d57600080fd5b505af19250505080156123be57506040513d601f19601f820116820180604052508101906123bb9190612da2565b60015b61244d576123ca6140bb565b806123d55750612412565b806040517f08c379a0000000000000000000000000000000000000000000000000000000008152600401612409919061394b565b60405180910390fd5b6040517f08c379a00000000000000000000000000000000000000000000000000000000081526004016124449061396d565b60405180910390fd5b63bc197c8160e01b7bffffffffffffffffffffffffffffffffffffffffffffffffffffffff1916817bffffffffffffffffffffffffffffffffffffffffffffffffffffffff1916146124d4576040517f08c379a00000000000000000000000000000000000000000000000000000000081526004016124cb9061398d565b60405180910390fd5b505b505050505050565b60606000600167ffffffffffffffff811115612523577f4e487b7100000000000000000000000000000000000000000000000000000000600052604160045260246000fd5b6040519080825280602002602001820160405280156125515781602001602082028036833780820191505090505b509050828160008151811061258f577f4e487b7100000000000000000000000000000000000000000000000000000000600052603260045260246000fd5b60200260200101818152505080915050919050565b6125c38473ffffffffffffffffffffffffffffffffffffffff16612774565b1561276c578373ffffffffffffffffffffffffffffffffffffffff1663f23a6e6187878686866040518663ffffffff1660e01b8152600401612609959493929190613840565b602060405180830381600087803b15801561262357600080fd5b505af192505050801561265457506040513d601f19601f820116820180604052508101906126519190612da2565b60015b6126e3576126606140bb565b8061266b57506126a8565b806040517f08c379a000000000000000000000000000000000000000000000000000000000815260040161269f919061394b565b60405180910390fd5b6040517f08c379a00000000000000000000000000000000000000000000000000000000081526004016126da9061396d565b60405180910390fd5b63f23a6e6160e01b7bffffffffffffffffffffffffffffffffffffffffffffffffffffffff1916817bffffffffffffffffffffffffffffffffffffffffffffffffffffffff19161461276a576040517f08c379a00000000000000000000000000000000000000000000000000000000081526004016127619061398d565b60405180910390fd5b505b505050505050565b600080823b905060008111915050919050565b82805461279390613f66565b90600052602060002090601f0160209004810192826127b557600085556127fc565b82601f106127ce57805160ff19168380011785556127fc565b828001600101855582156127fc579182015b828111156127fb5782518255916020019190600101906127e0565b5b509050612809919061280d565b5090565b5b8082111561282657600081600090555060010161280e565b5090565b600061283d61283884613bc2565b613b91565b9050808382526020820190508285602086028201111561285c57600080fd5b60005b8581101561288c5781612872888261297e565b84526020840193506020830192505060018101905061285f565b5050509392505050565b60006128a96128a484613bee565b613b91565b905080838252602082019050828560208602820111156128c857600080fd5b60005b858110156128f857816128de8882612a8f565b8452602084019350602083019250506001810190506128cb565b5050509392505050565b600061291561291084613c1a565b613b91565b90508281526020810184848401111561292d57600080fd5b612938848285613f24565b509392505050565b600061295361294e84613c4a565b613b91565b90508281526020810184848401111561296b57600080fd5b612976848285613f24565b509392505050565b60008135905061298d81614171565b92915050565b600082601f8301126129a457600080fd5b81356129b484826020860161282a565b91505092915050565b600082601f8301126129ce57600080fd5b81356129de848260208601612896565b91505092915050565b6000813590506129f681614188565b92915050565b600081519050612a0b81614188565b92915050565b600081359050612a208161419f565b92915050565b600081519050612a358161419f565b92915050565b600082601f830112612a4c57600080fd5b8135612a5c848260208601612902565b91505092915050565b600082601f830112612a7657600080fd5b8135612a86848260208601612940565b91505092915050565b600081359050612a9e816141b6565b92915050565b600081519050612ab3816141b6565b92915050565b600060208284031215612acb57600080fd5b6000612ad98482850161297e565b91505092915050565b60008060408385031215612af557600080fd5b6000612b038582860161297e565b9250506020612b148582860161297e565b9150509250929050565b600080600080600060a08688031215612b3657600080fd5b6000612b448882890161297e565b9550506020612b558882890161297e565b945050604086013567ffffffffffffffff811115612b7257600080fd5b612b7e888289016129bd565b935050606086013567ffffffffffffffff811115612b9b57600080fd5b612ba7888289016129bd565b925050608086013567ffffffffffffffff811115612bc457600080fd5b612bd088828901612a3b565b9150509295509295909350565b600080600080600060a08688031215612bf557600080fd5b6000612c038882890161297e565b9550506020612c148882890161297e565b9450506040612c2588828901612a8f565b9350506060612c3688828901612a8f565b925050608086013567ffffffffffffffff811115612c5357600080fd5b612c5f88828901612a3b565b9150509295509295909350565b60008060408385031215612c7f57600080fd5b6000612c8d8582860161297e565b9250506020612c9e858286016129e7565b9150509250929050565b60008060408385031215612cbb57600080fd5b6000612cc98582860161297e565b9250506020612cda85828601612a8f565b9150509250929050565b60008060408385031215612cf757600080fd5b600083013567ffffffffffffffff811115612d1157600080fd5b612d1d85828601612993565b925050602083013567ffffffffffffffff811115612d3a57600080fd5b612d46858286016129bd565b9150509250929050565b600060208284031215612d6257600080fd5b6000612d70848285016129fc565b91505092915050565b600060208284031215612d8b57600080fd5b6000612d9984828501612a11565b91505092915050565b600060208284031215612db457600080fd5b6000612dc284828501612a26565b91505092915050565b600060208284031215612ddd57600080fd5b600082013567ffffffffffffffff811115612df757600080fd5b612e0384828501612a65565b91505092915050565b600080600060608486031215612e2157600080fd5b600084013567ffffffffffffffff811115612e3b57600080fd5b612e4786828701612a65565b9350506020612e5886828701612a8f565b925050604084013567ffffffffffffffff811115612e7557600080fd5b612e8186828701612a65565b9150509250925092565b600060208284031215612e9d57600080fd5b6000612eab84828501612a8f565b91505092915050565b600060208284031215612ec657600080fd5b6000612ed484828501612aa4565b91505092915050565b60008060408385031215612ef057600080fd5b6000612efe85828601612a8f565b9250506020612f0f85828601612a8f565b9150509250929050565b6000612f258383612f67565b60208301905092915050565b6000612f3d83836136d6565b60208301905092915050565b612f5281613eca565b82525050565b612f6181613e56565b82525050565b612f7081613e44565b82525050565b612f7f81613e44565b82525050565b6000612f9082613c9a565b612f9a8185613ce0565b9350612fa583613c7a565b8060005b83811015612fd6578151612fbd8882612f19565b9750612fc883613cc6565b925050600181019050612fa9565b5085935050505092915050565b6000612fee82613ca5565b612ff88185613cf1565b935061300383613c8a565b8060005b8381101561303457815161301b8882612f31565b975061302683613cd3565b925050600181019050613007565b5085935050505092915050565b61304a81613e68565b82525050565b600061305b82613cb0565b6130658185613d02565b9350613075818560208601613f33565b61307e8161409d565b840191505092915050565b61309281613edc565b82525050565b60006130a382613cbb565b6130ad8185613d13565b93506130bd818560208601613f33565b6130c68161409d565b840191505092915050565b60006130dc82613cbb565b6130e68185613d24565b93506130f6818560208601613f33565b80840191505092915050565b600061310f603483613d13565b91507f455243313135353a207472616e7366657220746f206e6f6e204552433131353560008301527f526563656976657220696d706c656d656e7465720000000000000000000000006020830152604082019050919050565b6000613175602883613d13565b91507f455243313135353a204552433131353552656365697665722072656a6563746560008301527f6420746f6b656e730000000000000000000000000000000000000000000000006020830152604082019050919050565b60006131db602b83613d13565b91507f455243313135353a2062616c616e636520717565727920666f7220746865207a60008301527f65726f20616464726573730000000000000000000000000000000000000000006020830152604082019050919050565b6000613241602483613d13565b91507f455243313135353a206275726e20616d6f756e7420657863656564732062616c60008301527f616e6365000000000000000000000000000000000000000000000000000000006020830152604082019050919050565b60006132a7602983613d13565b91507f455243313135353a2063616c6c6572206973206e6f74206f776e6572206e6f7260008301527f20617070726f76656400000000000000000000000000000000000000000000006020830152604082019050919050565b600061330d602583613d13565b91507f455243313135353a207472616e7366657220746f20746865207a65726f20616460008301527f64726573730000000000000000000000000000000000000000000000000000006020830152604082019050919050565b6000613373603283613d13565b91507f455243313135353a207472616e736665722063616c6c6572206973206e6f742060008301527f6f776e6572206e6f7220617070726f76656400000000000000000000000000006020830152604082019050919050565b60006133d9602383613d13565b91507f455243313135353a206275726e2066726f6d20746865207a65726f206164647260008301527f65737300000000000000000000000000000000000000000000000000000000006020830152604082019050919050565b600061343f602a83613d13565b91507f455243313135353a20696e73756666696369656e742062616c616e636520666f60008301527f72207472616e73666572000000000000000000000000000000000000000000006020830152604082019050919050565b60006134a5601583613d13565b91507f43616c6c6572206e6f7420617574686f72697a656400000000000000000000006000830152602082019050919050565b60006134e5602c83613d13565b91507f416c6c6f77616e6365206e6f742073756666696369656e7420666f722074686560008301527f207472616e73616374696f6e00000000000000000000000000000000000000006020830152604082019050919050565b600061354b602983613d13565b91507f455243313135353a2073657474696e6720617070726f76616c2073746174757360008301527f20666f722073656c6600000000000000000000000000000000000000000000006020830152604082019050919050565b60006135b1602983613d13565b91507f455243313135353a206163636f756e747320616e6420696473206c656e67746860008301527f206d69736d6174636800000000000000000000000000000000000000000000006020830152604082019050919050565b6000613617602883613d13565b91507f455243313135353a2069647320616e6420616d6f756e7473206c656e6774682060008301527f6d69736d617463680000000000000000000000000000000000000000000000006020830152604082019050919050565b600061367d602183613d13565b91507f455243313135353a206d696e7420746f20746865207a65726f2061646472657360008301527f73000000000000000000000000000000000000000000000000000000000000006020830152604082019050919050565b6136df81613ec0565b82525050565b6136ee81613ec0565b82525050565b600061370082846130d1565b915081905092915050565b60006020820190506137206000830184612f76565b92915050565b600060208201905061373b6000830184612f58565b92915050565b60006040820190506137566000830185612f76565b6137636020830184612f76565b9392505050565b600060608201905061377f6000830186612f76565b61378c6020830185612f49565b61379960408301846136e5565b949350505050565b600060a0820190506137b66000830188612f76565b6137c36020830187612f76565b81810360408301526137d58186612fe3565b905081810360608301526137e98185612fe3565b905081810360808301526137fd8184613050565b90509695505050505050565b600060608201905061381e6000830186612f76565b61382b6020830185612f76565b61383860408301846136e5565b949350505050565b600060a0820190506138556000830188612f76565b6138626020830187612f76565b61386f60408301866136e5565b61387c60608301856136e5565b818103608083015261388e8184613050565b90509695505050505050565b600060208201905081810360008301526138b48184612f85565b905092915050565b600060208201905081810360008301526138d68184612fe3565b905092915050565b600060408201905081810360008301526138f88185612fe3565b9050818103602083015261390c8184612fe3565b90509392505050565b600060208201905061392a6000830184613041565b92915050565b60006020820190506139456000830184613089565b92915050565b600060208201905081810360008301526139658184613098565b905092915050565b6000602082019050818103600083015261398681613102565b9050919050565b600060208201905081810360008301526139a681613168565b9050919050565b600060208201905081810360008301526139c6816131ce565b9050919050565b600060208201905081810360008301526139e681613234565b9050919050565b60006020820190508181036000830152613a068161329a565b9050919050565b60006020820190508181036000830152613a2681613300565b9050919050565b60006020820190508181036000830152613a4681613366565b9050919050565b60006020820190508181036000830152613a66816133cc565b9050919050565b60006020820190508181036000830152613a8681613432565b9050919050565b60006020820190508181036000830152613aa681613498565b9050919050565b60006020820190508181036000830152613ac6816134d8565b9050919050565b60006020820190508181036000830152613ae68161353e565b9050919050565b60006020820190508181036000830152613b06816135a4565b9050919050565b60006020820190508181036000830152613b268161360a565b9050919050565b60006020820190508181036000830152613b4681613670565b9050919050565b6000602082019050613b6260008301846136e5565b92915050565b6000604082019050613b7d60008301856136e5565b613b8a60208301846136e5565b9392505050565b6000604051905081810181811067ffffffffffffffff82111715613bb857613bb761406e565b5b8060405250919050565b600067ffffffffffffffff821115613bdd57613bdc61406e565b5b602082029050602081019050919050565b600067ffffffffffffffff821115613c0957613c0861406e565b5b602082029050602081019050919050565b600067ffffffffffffffff821115613c3557613c3461406e565b5b601f19601f8301169050602081019050919050565b600067ffffffffffffffff821115613c6557613c6461406e565b5b601f19601f8301169050602081019050919050565b6000819050602082019050919050565b6000819050602082019050919050565b600081519050919050565b600081519050919050565b600081519050919050565b600081519050919050565b6000602082019050919050565b6000602082019050919050565b600082825260208201905092915050565b600082825260208201905092915050565b600082825260208201905092915050565b600082825260208201905092915050565b600081905092915050565b6000613d3a82613ec0565b9150613d4583613ec0565b9250827fffffffffffffffffffffffffffffffffffffffffffffffffffffffffffffffff03821115613d7a57613d79613fe1565b5b828201905092915050565b6000613d9082613ec0565b9150613d9b83613ec0565b925082613dab57613daa614010565b5b828204905092915050565b6000613dc182613ec0565b9150613dcc83613ec0565b9250817fffffffffffffffffffffffffffffffffffffffffffffffffffffffffffffffff0483118215151615613e0557613e04613fe1565b5b828202905092915050565b6000613e1b82613ec0565b9150613e2683613ec0565b925082821015613e3957613e38613fe1565b5b828203905092915050565b6000613e4f82613ea0565b9050919050565b6000613e6182613ea0565b9050919050565b60008115159050919050565b60007fffffffff0000000000000000000000000000000000000000000000000000000082169050919050565b600073ffffffffffffffffffffffffffffffffffffffff82169050919050565b6000819050919050565b6000613ed582613f00565b9050919050565b6000613ee782613eee565b9050919050565b6000613ef982613ea0565b9050919050565b6000613f0b82613f12565b9050919050565b6000613f1d82613ea0565b9050919050565b82818337600083830152505050565b60005b83811015613f51578082015181840152602081019050613f36565b83811115613f60576000848401525b50505050565b60006002820490506001821680613f7e57607f821691505b60208210811415613f9257613f9161403f565b5b50919050565b6000613fa382613ec0565b91507fffffffffffffffffffffffffffffffffffffffffffffffffffffffffffffffff821415613fd657613fd5613fe1565b5b600182019050919050565b7f4e487b7100000000000000000000000000000000000000000000000000000000600052601160045260246000fd5b7f4e487b7100000000000000000000000000000000000000000000000000000000600052601260045260246000fd5b7f4e487b7100000000000000000000000000000000000000000000000000000000600052602260045260246000fd5b7f4e487b7100000000000000000000000000000000000000000000000000000000600052604160045260246000fd5b6000601f19601f8301169050919050565b60008160e01c9050919050565b600060443d10156140cb5761416e565b60046000803e6140dc6000516140ae565b6308c379a081146140ed575061416e565b60405160043d036004823e80513d602482011167ffffffffffffffff821117156141195750505061416e565b808201805167ffffffffffffffff81111561413857505050505061416e565b8060208301013d85018111156141535750505050505061416e565b61415c8261409d565b60208401016040528296505050505050505b90565b61417a81613e44565b811461418557600080fd5b50565b61419181613e68565b811461419c57600080fd5b50565b6141a881613e74565b81146141b357600080fd5b50565b6141bf81613ec0565b81146141ca57600080fd5b5056fea26469706673582212206a7aa583272e9d69b5ddcc6e5d281f6dac206956324b9cf849217f7ec182733664736f6c63430008000033",
  "immutableReferences": {},
  "source": "//SPDX-License-Identifier: MIT\r\n\r\npragma solidity ^0.8.0;\r\n\r\nimport \"./ToknFactory.sol\";\r\n\r\ncontract ToknBuy is ToknFactory {\r\n\r\n    uint public price = 1;\r\n    address payable public treasury;\r\n\r\n    uint public treasuryPercentage = 5;\r\n\r\n    constructor(string memory _platformUri) ToknFactory(_platformUri) {\r\n       treasury = payable(msg.sender);\r\n    }\r\n\r\n    function buyTokn(uint _id, uint _qty) public {\r\n        uint allowance = usdc.allowance(msg.sender, address(this));\r\n        require(allowance >= _qty * price, \"Allowance not sufficient for the transaction\");\r\n        _safeTransferFrom(toknIdToArtist[_id], msg.sender, _id, _qty, \"\");\r\n        uint amount = _qty*price;\r\n        uint treasury_amount = amount*treasuryPercentage/uint(100);\r\n        amount = amount - treasury_amount;\r\n        usdc.transferFrom(msg.sender, treasury, treasury_amount);\r\n        usdc.transferFrom(msg.sender, toknIdToArtist[_id], amount);\r\n        toknsAvailable[_id] -= _qty;\r\n    }\r\n\r\n    function setTreasuryPercentage(uint _pc) public {\r\n        require(msg.sender == treasury, \"Caller not authorized\");\r\n        treasuryPercentage = _pc;\r\n    }\r\n\r\n    function setTreasury(address _treasury) public {\r\n        require(msg.sender == treasury, \"Caller not authorized\");\r\n        treasury = payable(_treasury);\r\n    }\r\n\r\n    function setPrice(uint _newPrice) public {\r\n        price = _newPrice;\r\n    }\r\n}",
  "sourcePath": "C:\\Users\\sj931\\OneDrive\\Desktop\\Tokn\\alpha\\Tokn-alpha\\Alpha-Contracts\\contracts\\ToknBuy.sol",
  "compiler": {
    "name": "solc",
    "version": "0.8.0+commit.c7dfd78e.Emscripten.clang"
  },
  "schemaVersion": "3.4.3",
  "updatedAt": "2022-01-03T14:25:48.023Z",
  "networkType": "ethereum",
  "devdoc": {
    "kind": "dev",
    "methods": {
      "balanceOf(address,uint256)": {
        "details": "See {IERC1155-balanceOf}. Requirements: - `account` cannot be the zero address."
      },
      "balanceOfBatch(address[],uint256[])": {
        "details": "See {IERC1155-balanceOfBatch}. Requirements: - `accounts` and `ids` must have the same length."
      },
      "isApprovedForAll(address,address)": {
        "details": "See {IERC1155-isApprovedForAll}."
      },
      "safeBatchTransferFrom(address,address,uint256[],uint256[],bytes)": {
        "details": "See {IERC1155-safeBatchTransferFrom}."
      },
      "safeTransferFrom(address,address,uint256,uint256,bytes)": {
        "details": "See {IERC1155-safeTransferFrom}."
      },
      "setApprovalForAll(address,bool)": {
        "details": "See {IERC1155-setApprovalForAll}."
      },
      "supportsInterface(bytes4)": {
        "details": "See {IERC165-supportsInterface}."
      },
      "uri(uint256)": {
        "details": "See {IERC1155MetadataURI-uri}. This implementation returns the same URI for *all* token types. It relies on the token type ID substitution mechanism https://eips.ethereum.org/EIPS/eip-1155#metadata[defined in the EIP]. Clients calling this function must replace the `\\{id\\}` substring with the actual token type ID."
      }
    },
    "version": 1
  },
  "userdoc": {
    "kind": "user",
    "methods": {},
    "version": 1
  }
}